{
  "contractName": "DeedMultiPayouts",
  "abi": [
    {
      "inputs": [
        {
          "internalType": "address",
          "name": "_lawyer",
          "type": "address"
        },
        {
          "internalType": "address payable",
          "name": "_beneficiary",
          "type": "address"
        },
        {
          "internalType": "uint256",
          "name": "_earliesTransferTime",
          "type": "uint256"
        },
        {
          "internalType": "uint256",
          "name": "_totalPayouts",
          "type": "uint256"
        },
        {
          "internalType": "uint256",
          "name": "_interval",
          "type": "uint256"
        },
        {
          "internalType": "uint256",
          "name": "_payoutAmount",
          "type": "uint256"
        },
        {
          "internalType": "address",
          "name": "_deedOwner",
          "type": "address"
        }
      ],
      "stateMutability": "nonpayable",
      "type": "constructor"
    },
    {
      "inputs": [],
      "name": "beneficiary",
      "outputs": [
        {
          "internalType": "address payable",
          "name": "",
          "type": "address"
        }
      ],
      "stateMutability": "view",
      "type": "function"
    },
    {
      "inputs": [],
      "name": "deedOwner",
      "outputs": [
        {
          "internalType": "address",
          "name": "",
          "type": "address"
        }
      ],
      "stateMutability": "view",
      "type": "function"
    },
    {
      "inputs": [],
      "name": "earliestTransferTime",
      "outputs": [
        {
          "internalType": "uint256",
          "name": "",
          "type": "uint256"
        }
      ],
      "stateMutability": "view",
      "type": "function"
    },
    {
      "inputs": [],
      "name": "interval",
      "outputs": [
        {
          "internalType": "uint256",
          "name": "",
          "type": "uint256"
        }
      ],
      "stateMutability": "view",
      "type": "function"
    },
    {
      "inputs": [],
      "name": "lawyer",
      "outputs": [
        {
          "internalType": "address",
          "name": "",
          "type": "address"
        }
      ],
      "stateMutability": "view",
      "type": "function"
    },
    {
      "inputs": [],
      "name": "paidPayouts",
      "outputs": [
        {
          "internalType": "uint256",
          "name": "",
          "type": "uint256"
        }
      ],
      "stateMutability": "view",
      "type": "function"
    },
    {
      "inputs": [],
      "name": "payoutAmount",
      "outputs": [
        {
          "internalType": "uint256",
          "name": "",
          "type": "uint256"
        }
      ],
      "stateMutability": "view",
      "type": "function"
    },
    {
      "inputs": [],
      "name": "totalPayouts",
      "outputs": [
        {
          "internalType": "uint256",
          "name": "",
          "type": "uint256"
        }
      ],
      "stateMutability": "view",
      "type": "function"
    },
    {
      "stateMutability": "payable",
      "type": "receive"
    },
    {
      "inputs": [],
      "name": "balanceOf",
      "outputs": [
        {
          "internalType": "uint256",
          "name": "",
          "type": "uint256"
        }
      ],
      "stateMutability": "view",
      "type": "function"
    },
    {
      "inputs": [],
      "name": "transfer",
      "outputs": [],
      "stateMutability": "payable",
      "type": "function"
    }
  ],
  "bytecode": "0x608060405234801561001057600080fd5b5060405161077f38038061077f833981810160405260e081101561003357600080fd5b8101908080519060200190929190805190602001909291908051906020019092919080519060200190929190805190602001909291908051906020019092919080519060200190929190505050806000806101000a81548173ffffffffffffffffffffffffffffffffffffffff021916908373ffffffffffffffffffffffffffffffffffffffff16021790555086600160006101000a81548173ffffffffffffffffffffffffffffffffffffffff021916908373ffffffffffffffffffffffffffffffffffffffff16021790555085600260006101000a81548173ffffffffffffffffffffffffffffffffffffffff021916908373ffffffffffffffffffffffffffffffffffffffff160217905550846003819055508360048190555082600681905550816007819055505050505050505061060b806101746000396000f3fe6080604052600436106100955760003560e01c80636b46c8c3116100595780636b46c8c3146101fc578063722713f714610227578063894082b5146102525780638a4068dd1461027d578063947a36fb146102875761009c565b806313516d51146100a157806338af3eed146100f85780633bfb6e311461014f5780634089b170146101a65780634a8a7ce3146101d15761009c565b3661009c57005b600080fd5b3480156100ad57600080fd5b506100b66102b2565b604051808273ffffffffffffffffffffffffffffffffffffffff1673ffffffffffffffffffffffffffffffffffffffff16815260200191505060405180910390f35b34801561010457600080fd5b5061010d6102d7565b604051808273ffffffffffffffffffffffffffffffffffffffff1673ffffffffffffffffffffffffffffffffffffffff16815260200191505060405180910390f35b34801561015b57600080fd5b506101646102fd565b604051808273ffffffffffffffffffffffffffffffffffffffff1673ffffffffffffffffffffffffffffffffffffffff16815260200191505060405180910390f35b3480156101b257600080fd5b506101bb610323565b6040518082815260200191505060405180910390f35b3480156101dd57600080fd5b506101e6610329565b6040518082815260200191505060405180910390f35b34801561020857600080fd5b5061021161032f565b6040518082815260200191505060405180910390f35b34801561023357600080fd5b5061023c610335565b6040518082815260200191505060405180910390f35b34801561025e57600080fd5b5061026761033d565b6040518082815260200191505060405180910390f35b610285610343565b005b34801561029357600080fd5b5061029c6105cf565b6040518082815260200191505060405180910390f35b6000809054906101000a900473ffffffffffffffffffffffffffffffffffffffff1681565b600260009054906101000a900473ffffffffffffffffffffffffffffffffffffffff1681565b600160009054906101000a900473ffffffffffffffffffffffffffffffffffffffff1681565b60045481565b60055481565b60075481565b600047905090565b60035481565b600160009054906101000a900473ffffffffffffffffffffffffffffffffffffffff1673ffffffffffffffffffffffffffffffffffffffff163373ffffffffffffffffffffffffffffffffffffffff1614610406576040517f08c379a00000000000000000000000000000000000000000000000000000000081526004018080602001828103825260148152602001807f63616c6c6572206973206e6f74206c617779657200000000000000000000000081525060200191505060405180910390fd5b60035442101561047e576040517f08c379a00000000000000000000000000000000000000000000000000000000081526004018080602001828103825260158152602001807f746f6f206561726c7920746f207472616e73666572000000000000000000000081525060200191505060405180910390fd5b600454600554106104f7576040517f08c379a000000000000000000000000000000000000000000000000000000000815260040180806020018281038252600e8152602001807f6e6f207061796f7574206c65667400000000000000000000000000000000000081525060200191505060405180910390fd5b6000806003544203146105195760065460035442038161051357fe5b0461051c565b60015b905060006005548203905060045460055482011161053a5780610542565b600554600454035b90508060056000828254019250508190555060008111156105cb57600260009054906101000a900473ffffffffffffffffffffffffffffffffffffffff1673ffffffffffffffffffffffffffffffffffffffff166108fc60075483029081150290604051600060405180830381858888f193505050501580156105c9573d6000803e3d6000fd5b505b5050565b6006548156fea2646970667358221220172745581969ad716b909c7f21472d99f3a0b33e154f5d3d36109a662fc3fbf664736f6c63430006060033",
  "immutableReferences": {},
  "source": "// SPDX-License-Identifier: MIT\npragma solidity >=0.6.0 <0.7.0;\n\ncontract DeedMultiPayoutsFactory {\n    address public deedFactoryOwner;\n    address[] private deployedDeeds;\n\n    constructor() public {\n        deedFactoryOwner = msg.sender;\n    }\n\n    function createNewDeed(\n        address _lawyer,\n        address payable _beneficiary,\n        uint256 _earliestTransferTime,\n        uint256 _totalPayouts,\n        uint256 _interval\n    ) external payable {\n        require(_interval > 0, \"interval cant be 0\");\n        require(_totalPayouts > 0, \"should have atleast 1 payout\");\n        require(\n            msg.value % _totalPayouts == 0,\n            \"cant divide amount in equal payout amount\"\n        );\n        uint256 _payoutAmount = msg.value / _totalPayouts;\n        DeedMultiPayouts newDeed = new DeedMultiPayouts(\n            _lawyer,\n            _beneficiary,\n            _earliestTransferTime,\n            _totalPayouts,\n            _interval,\n            _payoutAmount,\n            msg.sender\n        );\n        deployedDeeds.push(address(newDeed));\n        payable(newDeed).transfer(address(this).balance);\n    }\n\n    function getAllDeployedDeeds() external view returns (address[] memory) {\n        return deployedDeeds;\n    }\n}\n\ncontract DeedMultiPayouts {\n    address public deedOwner;\n    address public lawyer;\n    address payable public beneficiary;\n    uint256 public earliestTransferTime;\n    uint256 public totalPayouts;\n    uint256 public paidPayouts;\n    uint256 public interval;\n    uint256 public payoutAmount;\n\n    receive() external payable {}\n\n    constructor(\n        address _lawyer,\n        address payable _beneficiary,\n        uint256 _earliesTransferTime,\n        uint256 _totalPayouts,\n        uint256 _interval,\n        uint256 _payoutAmount,\n        address _deedOwner\n    ) public {\n        deedOwner = _deedOwner;\n        lawyer = _lawyer;\n        beneficiary = _beneficiary;\n        earliestTransferTime = _earliesTransferTime;\n        totalPayouts = _totalPayouts;\n        interval = _interval;\n        payoutAmount = _payoutAmount;\n    }\n\n    function balanceOf() external view returns (uint256) {\n        return address(this).balance;\n    }\n\n    function transfer() external payable {\n        require(msg.sender == lawyer, \"caller is not lawyer\");\n        require(now >= earliestTransferTime, \"too early to transfer\");\n        require(paidPayouts < totalPayouts, \"no payout left\");\n        uint256 eligiblePayouts = now - earliestTransferTime == 0\n            ? 1\n            : (now - earliestTransferTime) / interval;\n        uint256 duePayouts = eligiblePayouts - paidPayouts;\n\n        duePayouts = duePayouts + paidPayouts > totalPayouts\n            ? totalPayouts - paidPayouts\n            : duePayouts;\n        paidPayouts += duePayouts;\n\n        if (duePayouts > 0) beneficiary.transfer(duePayouts * payoutAmount);\n    }\n}\n",
  "sourcePath": "/home/dante/Iris/Study/Projects/Dapp30/day9_deedMultiPayout_factory/contracts/DeedMultiPayoutsFactory.sol",
  "compiler": {
    "name": "solc",
    "version": "0.6.6+commit.6c089d02.Emscripten.clang"
  },
  "schemaVersion": "3.2.0",
  "updatedAt": "2020-07-26T06:37:24.858Z",
  "devdoc": {
    "methods": {}
  },
  "userdoc": {
    "methods": {}
  }
}