{
  "contractName": "Crud",
  "abi": [
    {
      "inputs": [
        {
          "internalType": "address",
          "name": "",
          "type": "address"
        },
        {
          "internalType": "uint256",
          "name": "",
          "type": "uint256"
        }
      ],
      "name": "testMap",
      "outputs": [
        {
          "internalType": "bool",
          "name": "",
          "type": "bool"
        }
      ],
      "stateMutability": "view",
      "type": "function",
      "constant": true
    },
    {
      "inputs": [
        {
          "internalType": "string",
          "name": "_name",
          "type": "string"
        }
      ],
      "name": "create",
      "outputs": [],
      "stateMutability": "nonpayable",
      "type": "function"
    },
    {
      "inputs": [
        {
          "internalType": "uint256",
          "name": "_id",
          "type": "uint256"
        }
      ],
      "name": "read",
      "outputs": [
        {
          "components": [
            {
              "internalType": "uint256",
              "name": "id",
              "type": "uint256"
            },
            {
              "internalType": "string",
              "name": "name",
              "type": "string"
            }
          ],
          "internalType": "struct Crud.User",
          "name": "",
          "type": "tuple"
        }
      ],
      "stateMutability": "view",
      "type": "function",
      "constant": true
    },
    {
      "inputs": [],
      "name": "getAllUsers",
      "outputs": [
        {
          "components": [
            {
              "internalType": "uint256",
              "name": "id",
              "type": "uint256"
            },
            {
              "internalType": "string",
              "name": "name",
              "type": "string"
            }
          ],
          "internalType": "struct Crud.User[]",
          "name": "",
          "type": "tuple[]"
        }
      ],
      "stateMutability": "view",
      "type": "function",
      "constant": true
    },
    {
      "inputs": [
        {
          "internalType": "uint256",
          "name": "_id",
          "type": "uint256"
        },
        {
          "internalType": "string",
          "name": "_name",
          "type": "string"
        }
      ],
      "name": "update",
      "outputs": [],
      "stateMutability": "nonpayable",
      "type": "function"
    },
    {
      "inputs": [
        {
          "internalType": "uint256",
          "name": "_id",
          "type": "uint256"
        }
      ],
      "name": "destroy",
      "outputs": [],
      "stateMutability": "nonpayable",
      "type": "function"
    }
  ],
  "bytecode": "0x60806040526001805534801561001457600080fd5b50610c18806100246000396000f3fe608060405234801561001057600080fd5b50600436106100625760003560e01c80639d11877014610067578063b6a46b3b14610083578063e2842d791461009f578063e356bf18146100bd578063ed2e5a97146100ed578063f745630f1461011d575b600080fd5b610081600480360361007c9190810190610828565b610139565b005b61009d600480360361009891908101906107e3565b610180565b005b6100a76102b0565b6040516100b49190610a43565b60405180910390f35b6100d760048036036100d291908101906107a7565b6103bb565b6040516100e49190610a65565b60405180910390f35b61010760048036036101029190810190610828565b6103ea565b6040516101149190610aa0565b60405180910390f35b61013760048036036101329190810190610851565b6104d9565b005b60006101448261051a565b90506000818154811061015357fe5b906000526020600020906002020160008082016000905560018201600061017a91906105ac565b50505050565b60006040518060400160405280600154815260200184848080601f016020809104026020016040519081016040528093929190818152602001838380828437600081840152601f19601f82011690508083019250505050505050815250908060018154018082558091505060019003906000526020600020906002020160009091909190915060008201518160000155602082015181600101908051906020019061022c9291906105f4565b5050506001600260003373ffffffffffffffffffffffffffffffffffffffff1673ffffffffffffffffffffffffffffffffffffffff1681526020019081526020016000206000600154815260200190815260200160002060006101000a81548160ff0219169083151502179055506001600081548092919060010191905055505050565b60606000805480602002602001604051908101604052809291908181526020016000905b828210156103b2578382906000526020600020906002020160405180604001604052908160008201548152602001600182018054600181600116156101000203166002900480601f01602080910402602001604051908101604052809291908181526020018280546001816001161561010002031660029004801561039a5780601f1061036f5761010080835404028352916020019161039a565b820191906000526020600020905b81548152906001019060200180831161037d57829003601f168201915b505050505081525050815260200190600101906102d4565b50505050905090565b60026020528160005260406000206020528060005260406000206000915091509054906101000a900460ff1681565b6103f2610674565b60006103fd8361051a565b90506000818154811061040c57fe5b906000526020600020906002020160405180604001604052908160008201548152602001600182018054600181600116156101000203166002900480601f0160208091040260200160405190810160405280929190818152602001828054600181600116156101000203166002900480156104c85780601f1061049d576101008083540402835291602001916104c8565b820191906000526020600020905b8154815290600101906020018083116104ab57829003601f168201915b505050505081525050915050919050565b60006104e48461051a565b90508282600083815481106104f557fe5b9060005260206000209060020201600101919061051392919061068e565b5050505050565b600080600090505b60008054905081101561056b57826000828154811061053d57fe5b906000526020600020906002020160000154141561055e57809150506105a7565b8080600101915050610522565b506040517f08c379a000000000000000000000000000000000000000000000000000000000815260040161059e90610a80565b60405180910390fd5b919050565b50805460018160011615610100020316600290046000825580601f106105d257506105f1565b601f0160209004906000526020600020908101906105f0919061070e565b5b50565b828054600181600116156101000203166002900490600052602060002090601f016020900481019282601f1061063557805160ff1916838001178555610663565b82800160010185558215610663579182015b82811115610662578251825591602001919060010190610647565b5b509050610670919061070e565b5090565b604051806040016040528060008152602001606081525090565b828054600181600116156101000203166002900490600052602060002090601f016020900481019282601f106106cf57803560ff19168380011785556106fd565b828001600101855582156106fd579182015b828111156106fc5782358255916020019190600101906106e1565b5b50905061070a919061070e565b5090565b61073091905b8082111561072c576000816000905550600101610714565b5090565b90565b60008135905061074281610bb4565b92915050565b60008083601f84011261075a57600080fd5b8235905067ffffffffffffffff81111561077357600080fd5b60208301915083600182028301111561078b57600080fd5b9250929050565b6000813590506107a181610bcb565b92915050565b600080604083850312156107ba57600080fd5b60006107c885828601610733565b92505060206107d985828601610792565b9150509250929050565b600080602083850312156107f657600080fd5b600083013567ffffffffffffffff81111561081057600080fd5b61081c85828601610748565b92509250509250929050565b60006020828403121561083a57600080fd5b600061084884828501610792565b91505092915050565b60008060006040848603121561086657600080fd5b600061087486828701610792565b935050602084013567ffffffffffffffff81111561089157600080fd5b61089d86828701610748565b92509250509250925092565b60006108b583836109f7565b905092915050565b60006108c882610ad2565b6108d28185610af5565b9350836020820285016108e485610ac2565b8060005b85811015610920578484038952815161090185826108a9565b945061090c83610ae8565b925060208a019950506001810190506108e8565b50829750879550505050505092915050565b61093b81610b3a565b82525050565b600061094c82610add565b6109568185610b06565b9350610966818560208601610b70565b61096f81610ba3565b840191505092915050565b6000610987601383610b17565b91507f5573657220646f6573206e6f74206578697374000000000000000000000000006000830152602082019050919050565b60006040830160008301516109d26000860182610a34565b50602083015184820360208601526109ea8282610941565b9150508091505092915050565b6000604083016000830151610a0f6000860182610a34565b5060208301518482036020860152610a278282610941565b9150508091505092915050565b610a3d81610b66565b82525050565b60006020820190508181036000830152610a5d81846108bd565b905092915050565b6000602082019050610a7a6000830184610932565b92915050565b60006020820190508181036000830152610a998161097a565b9050919050565b60006020820190508181036000830152610aba81846109ba565b905092915050565b6000819050602082019050919050565b600081519050919050565b600081519050919050565b6000602082019050919050565b600082825260208201905092915050565b600082825260208201905092915050565b600082825260208201905092915050565b6000610b3382610b46565b9050919050565b60008115159050919050565b600073ffffffffffffffffffffffffffffffffffffffff82169050919050565b6000819050919050565b60005b83811015610b8e578082015181840152602081019050610b73565b83811115610b9d576000848401525b50505050565b6000601f19601f8301169050919050565b610bbd81610b28565b8114610bc857600080fd5b50565b610bd481610b66565b8114610bdf57600080fd5b5056fea2646970667358221220b145eb0aa69512b8da83d53aa7d25226e800faf944454826444ddb44ac26b13064736f6c63430006000033",
  "source": "// SPDX-License-Identifier: MIT\npragma solidity ^0.6.0;\npragma experimental ABIEncoderV2;\n\ncontract Crud {\n    struct User {\n        uint256 id;\n        string name;\n    }\n\n    User[] private users;\n    uint256 private nextId = 1;\n\n    mapping(address => mapping(uint256 => bool)) public testMap;\n    function create(string calldata _name) external {\n        users.push(User(nextId, _name));\n        testMap[msg.sender][nextId] = true;\n        nextId++;\n    }\n\n    function read(uint256 _id) external view returns (User memory) {\n        uint256 index = find(_id);\n        return users[index];\n    }\n\n    // function read(uint256 _id) external view returns (uint256, string memory) {\n    //     uint256 index = find(_id);\n    //     return (users[index].id, users[index].name);\n    // }\n\n    function getAllUsers() external view returns (User[] memory) {\n        return users;\n    }\n\n    function update(uint256 _id, string calldata _name) external {\n        uint256 index = find(_id);\n        users[index].name = _name;\n    }\n\n    function destroy(uint256 _id) external {\n        uint256 index = find(_id);\n        delete users[index];\n    }\n\n    function find(uint256 _id) internal view returns (uint256) {\n        for (uint256 i = 0; i < users.length; i++) {\n            if (users[i].id == _id) return i;\n        }\n        revert(\"User does not exist\");\n    }\n}\n",
  "sourcePath": "/home/dante/Iris/Study/Projects/Dapp30/Day5_Crud/contracts/Crud.sol",
  "compiler": {
    "name": "solc",
    "version": "0.6.0+commit.26b70077.Emscripten.clang"
  },
  "schemaVersion": "3.2.0",
  "updatedAt": "2020-07-26T20:14:37.452Z",
  "networkType": "ethereum",
  "devdoc": {
    "methods": {}
  },
  "userdoc": {
    "methods": {}
  }
}