{
  "contractName": "Voting",
  "abi": [
    {
      "inputs": [],
      "stateMutability": "nonpayable",
      "type": "constructor"
    },
    {
      "inputs": [],
      "name": "admin",
      "outputs": [
        {
          "internalType": "address",
          "name": "",
          "type": "address"
        }
      ],
      "stateMutability": "view",
      "type": "function",
      "constant": true
    },
    {
      "inputs": [
        {
          "internalType": "uint256",
          "name": "",
          "type": "uint256"
        }
      ],
      "name": "ballots",
      "outputs": [
        {
          "internalType": "bool",
          "name": "ballotExist",
          "type": "bool"
        },
        {
          "internalType": "uint256",
          "name": "ballotId",
          "type": "uint256"
        },
        {
          "internalType": "string",
          "name": "name",
          "type": "string"
        },
        {
          "internalType": "uint256",
          "name": "timeLimit",
          "type": "uint256"
        },
        {
          "internalType": "uint256",
          "name": "endTime",
          "type": "uint256"
        },
        {
          "internalType": "bool",
          "name": "hasVotingBegin",
          "type": "bool"
        },
        {
          "internalType": "uint256",
          "name": "totalVatesLogged",
          "type": "uint256"
        }
      ],
      "stateMutability": "view",
      "type": "function",
      "constant": true
    },
    {
      "inputs": [
        {
          "internalType": "string",
          "name": "_ballotName",
          "type": "string"
        },
        {
          "internalType": "string[]",
          "name": "_choicesNames",
          "type": "string[]"
        },
        {
          "internalType": "uint256",
          "name": "_timeLimit",
          "type": "uint256"
        }
      ],
      "name": "createBallot",
      "outputs": [],
      "stateMutability": "nonpayable",
      "type": "function"
    },
    {
      "inputs": [
        {
          "internalType": "uint256",
          "name": "_ballotId",
          "type": "uint256"
        },
        {
          "internalType": "address[]",
          "name": "_voters",
          "type": "address[]"
        }
      ],
      "name": "addVoters",
      "outputs": [],
      "stateMutability": "nonpayable",
      "type": "function"
    },
    {
      "inputs": [
        {
          "internalType": "uint256",
          "name": "_ballotId",
          "type": "uint256"
        }
      ],
      "name": "beginVoting",
      "outputs": [],
      "stateMutability": "nonpayable",
      "type": "function"
    },
    {
      "inputs": [
        {
          "internalType": "uint256",
          "name": "_ballotId",
          "type": "uint256"
        },
        {
          "internalType": "uint256",
          "name": "_choiceId",
          "type": "uint256"
        }
      ],
      "name": "vote",
      "outputs": [],
      "stateMutability": "nonpayable",
      "type": "function"
    },
    {
      "inputs": [
        {
          "internalType": "uint256",
          "name": "_ballotId",
          "type": "uint256"
        }
      ],
      "name": "result",
      "outputs": [
        {
          "components": [
            {
              "internalType": "uint256",
              "name": "choiceId",
              "type": "uint256"
            },
            {
              "internalType": "string",
              "name": "name",
              "type": "string"
            },
            {
              "internalType": "uint256",
              "name": "votesReceived",
              "type": "uint256"
            }
          ],
          "internalType": "struct Voting.Choices[]",
          "name": "",
          "type": "tuple[]"
        }
      ],
      "stateMutability": "view",
      "type": "function",
      "constant": true
    },
    {
      "inputs": [
        {
          "internalType": "uint256",
          "name": "_ballotId",
          "type": "uint256"
        }
      ],
      "name": "showWinner",
      "outputs": [
        {
          "components": [
            {
              "internalType": "uint256",
              "name": "choiceId",
              "type": "uint256"
            },
            {
              "internalType": "string",
              "name": "name",
              "type": "string"
            },
            {
              "internalType": "uint256",
              "name": "votesReceived",
              "type": "uint256"
            }
          ],
          "internalType": "struct Voting.Choices",
          "name": "",
          "type": "tuple"
        }
      ],
      "stateMutability": "view",
      "type": "function",
      "constant": true
    },
    {
      "inputs": [],
      "name": "showBallots",
      "outputs": [
        {
          "components": [
            {
              "internalType": "uint256",
              "name": "ballotId",
              "type": "uint256"
            },
            {
              "internalType": "string",
              "name": "name",
              "type": "string"
            },
            {
              "internalType": "enum Voting.Status",
              "name": "ballotStatus",
              "type": "uint8"
            },
            {
              "internalType": "uint256",
              "name": "endTime",
              "type": "uint256"
            }
          ],
          "internalType": "struct Voting.BallotTemp[]",
          "name": "",
          "type": "tuple[]"
        }
      ],
      "stateMutability": "view",
      "type": "function",
      "constant": true
    },
    {
      "inputs": [
        {
          "internalType": "uint256",
          "name": "_ballotId",
          "type": "uint256"
        }
      ],
      "name": "showChoices",
      "outputs": [
        {
          "components": [
            {
              "internalType": "uint256",
              "name": "_id",
              "type": "uint256"
            },
            {
              "internalType": "string",
              "name": "_name",
              "type": "string"
            }
          ],
          "internalType": "struct Voting.ChoicesTemp[]",
          "name": "",
          "type": "tuple[]"
        }
      ],
      "stateMutability": "view",
      "type": "function",
      "constant": true
    },
    {
      "inputs": [
        {
          "internalType": "uint256",
          "name": "_ballotId",
          "type": "uint256"
        }
      ],
      "name": "showVoters",
      "outputs": [
        {
          "internalType": "address[]",
          "name": "",
          "type": "address[]"
        }
      ],
      "stateMutability": "view",
      "type": "function",
      "constant": true
    }
  ],
  "bytecode": "0x608060405234801561001057600080fd5b50336000806101000a81548173ffffffffffffffffffffffffffffffffffffffff021916908373ffffffffffffffffffffffffffffffffffffffff160217905550612d8b806100606000396000f3fe608060405234801561001057600080fd5b50600436106100a95760003560e01c80635c632b38116100715780635c632b3814610178578063629e0585146101ae57806366e1bb0a146101de578063b384abef146101fa578063f45969c614610216578063f851a44014610232576100a9565b806303c8be67146100ae57806305df40dd146100de57806320faae8e1461010e578063219e0f251461012a5780633c59405914610148575b600080fd5b6100c860048036038101906100c39190611ec9565b610250565b6040516100d59190612aa6565b60405180910390f35b6100f860048036038101906100f39190611ec9565b61065a565b6040516101059190612808565b60405180910390f35b61012860048036038101906101239190611e4a565b61076a565b005b6101326109aa565b60405161013f919061282a565b60405180910390f35b610162600480360381019061015d9190611ec9565b610cab565b60405161016f919061286e565b60405180910390f35b610192600480360381019061018d9190611ec9565b610f04565b6040516101a59796959493929190612890565b60405180910390f35b6101c860048036038101906101c39190611ec9565b610ff8565b6040516101d5919061284c565b60405180910390f35b6101f860048036038101906101f39190611ec9565b611245565b005b610214600480360381019061020f9190611f4a565b61146a565b005b610230600480360381019061022b9190611ef2565b611822565b005b61023a611bb6565b60405161024791906127ed565b60405180910390f35b610258611bda565b81600115156002600083815260200190815260200160002060000160009054906101000a900460ff161515146102c3576040517f08c379a00000000000000000000000000000000000000000000000000000000081526004016102ba906129c6565b60405180910390fd5b600115156002600085815260200190815260200160002060080160009054906101000a900460ff1615151461032d576040517f08c379a000000000000000000000000000000000000000000000000000000000815260040161032490612926565b60405180910390fd5b60026000848152602001908152602001600020600701544211610385576040517f08c379a000000000000000000000000000000000000000000000000000000000815260040161037c90612a66565b60405180910390fd5b61038d611bda565b6000600260008681526020019081526020016000206003016000815481106103b157fe5b90600052602060002090600302016002015490506000600260008781526020019081526020016000206003016000815481106103e957fe5b9060005260206000209060030201600001549050600080600190505b60026000898152602001908152602001600020600301805490508110156105205783600260008a8152602001908152602001600020600301828154811061044857fe5b90600052602060002090600302016002015411156104d35760026000898152602001908152602001600020600301818154811061048157fe5b90600052602060002090600302016002015493506002600089815260200190815260200160002060030181815481106104b657fe5b906000526020600020906003020160000154925060009150610513565b83600260008a815260200190815260200160002060030182815481106104f557fe5b906000526020600020906003020160020154141561051257600191505b5b8080600101915050610405565b5080156105335783955050505050610654565b6040518060600160405280838152602001600260008a8152602001908152602001600020600301848154811061056557fe5b90600052602060002090600302016001018054600181600116156101000203166002900480601f01602080910402602001604051908101604052809291908181526020018280546001816001161561010002031660029004801561060a5780601f106105df5761010080835404028352916020019161060a565b820191906000526020600020905b8154815290600101906020018083116105ed57829003601f168201915b50505050508152602001600260008a8152602001908152602001600020600301848154811061063557fe5b9060005260206000209060030201600201548152509350839550505050505b50919050565b606081600115156002600083815260200190815260200160002060000160009054906101000a900460ff161515146106c7576040517f08c379a00000000000000000000000000000000000000000000000000000000081526004016106be906129c6565b60405180910390fd5b6002600084815260200190815260200160002060040180548060200260200160405190810160405280929190818152602001828054801561075d57602002820191906000526020600020905b8160009054906101000a900473ffffffffffffffffffffffffffffffffffffffff1673ffffffffffffffffffffffffffffffffffffffff1681526020019060010190808311610713575b5050505050915050919050565b60008054906101000a900473ffffffffffffffffffffffffffffffffffffffff1673ffffffffffffffffffffffffffffffffffffffff163373ffffffffffffffffffffffffffffffffffffffff16146107f8576040517f08c379a00000000000000000000000000000000000000000000000000000000081526004016107ef90612a06565b60405180910390fd5b600182511161083c576040517f08c379a000000000000000000000000000000000000000000000000000000000815260040161083390612906565b60405180910390fd5b600160026000600154815260200190815260200160002060000160006101000a81548160ff021916908315150217905550600154600260006001548152602001908152602001600020600101819055508260026000600154815260200190815260200160002060020190805190602001906108b8929190611bfb565b50806002600060015481526020019081526020016000206006018190555060005b825181101561099257600260006001548152602001908152602001600020600301604051806060016040528083815260200185848151811061091757fe5b6020026020010151815260200160008152509080600181540180825580915050600190039060005260206000209060030201600090919091909150600082015181600001556020820151816001019080519060200190610978929190611bfb565b5060408201518160020155505080806001019150506108d9565b50600160008154809291906001019190505550505050565b60608060015467ffffffffffffffff811180156109c657600080fd5b50604051908082528060200260200182016040528015610a0057816020015b6109ed611c7b565b8152602001906001900390816109e55790505b50905060005b600154811015610ca357600115156002600083815260200190815260200160002060000160009054906101000a900460ff16151514610a4457600080fd5b6002600082815260200190815260200160002060010154828281518110610a6757fe5b60200260200101516000018181525050600260008281526020019081526020016000206002018054600181600116156101000203166002900480601f016020809104026020016040519081016040528092919081815260200182805460018160011615610100020316600290048015610b215780601f10610af657610100808354040283529160200191610b21565b820191906000526020600020905b815481529060010190602001808311610b0457829003601f168201915b5050505050828281518110610b3257fe5b6020026020010151602001819052506002600082815260200190815260200160002060080160009054906101000a900460ff168015610b87575060026000828152602001908152602001600020600701544210155b15610bc7576002828281518110610b9a57fe5b6020026020010151604001906002811115610bb157fe5b90816002811115610bbe57fe5b81525050610c63565b6002600082815260200190815260200160002060080160009054906101000a900460ff1615610c2b576001828281518110610bfe57fe5b6020026020010151604001906002811115610c1557fe5b90816002811115610c2257fe5b81525050610c62565b6000828281518110610c3957fe5b6020026020010151604001906002811115610c5057fe5b90816002811115610c5d57fe5b815250505b5b6002600082815260200190815260200160002060070154828281518110610c8657fe5b602002602001015160600181815250508080600101915050610a06565b508091505090565b606081600115156002600083815260200190815260200160002060000160009054906101000a900460ff16151514610d18576040517f08c379a0000000000000000000000000000000000000000000000000000000008152600401610d0f906129c6565b60405180910390fd5b600115156002600085815260200190815260200160002060080160009054906101000a900460ff16151514610d82576040517f08c379a0000000000000000000000000000000000000000000000000000000008152600401610d7990612926565b60405180910390fd5b60026000848152602001908152602001600020600701544211610dda576040517f08c379a0000000000000000000000000000000000000000000000000000000008152600401610dd190612a66565b60405180910390fd5b60026000848152602001908152602001600020600301805480602002602001604051908101604052809291908181526020016000905b82821015610ef8578382906000526020600020906003020160405180606001604052908160008201548152602001600182018054600181600116156101000203166002900480601f016020809104026020016040519081016040528092919081815260200182805460018160011615610100020316600290048015610ed65780601f10610eab57610100808354040283529160200191610ed6565b820191906000526020600020905b815481529060010190602001808311610eb957829003601f168201915b5050505050815260200160028201548152505081526020019060010190610e10565b50505050915050919050565b60026020528060005260406000206000915090508060000160009054906101000a900460ff1690806001015490806002018054600181600116156101000203166002900480601f016020809104026020016040519081016040528092919081815260200182805460018160011615610100020316600290048015610fc95780601f10610f9e57610100808354040283529160200191610fc9565b820191906000526020600020905b815481529060010190602001808311610fac57829003601f168201915b5050505050908060060154908060070154908060080160009054906101000a900460ff16908060090154905087565b606081600115156002600083815260200190815260200160002060000160009054906101000a900460ff16151514611065576040517f08c379a000000000000000000000000000000000000000000000000000000000815260040161105c906129c6565b60405180910390fd5b6060600260008581526020019081526020016000206003018054905067ffffffffffffffff8111801561109757600080fd5b506040519080825280602002602001820160405280156110d157816020015b6110be611cae565b8152602001906001900390816110b65790505b50905060005b600260008681526020019081526020016000206003018054905081101561123a5760026000868152602001908152602001600020600301818154811061111957fe5b90600052602060002090600302016000015482828151811061113757fe5b6020026020010151600001818152505060026000868152602001908152602001600020600301818154811061116857fe5b90600052602060002090600302016001018054600181600116156101000203166002900480601f01602080910402602001604051908101604052809291908181526020018280546001816001161561010002031660029004801561120d5780601f106111e25761010080835404028352916020019161120d565b820191906000526020600020905b8154815290600101906020018083116111f057829003601f168201915b505050505082828151811061121e57fe5b60200260200101516020018190525080806001019150506110d7565b508092505050919050565b80600115156002600083815260200190815260200160002060000160009054906101000a900460ff161515146112b0576040517f08c379a00000000000000000000000000000000000000000000000000000000081526004016112a7906129c6565b60405180910390fd5b60008054906101000a900473ffffffffffffffffffffffffffffffffffffffff1673ffffffffffffffffffffffffffffffffffffffff163373ffffffffffffffffffffffffffffffffffffffff161461133e576040517f08c379a000000000000000000000000000000000000000000000000000000000815260040161133590612a06565b60405180910390fd5b600015156002600084815260200190815260200160002060080160009054906101000a900460ff161515146113a8576040517f08c379a000000000000000000000000000000000000000000000000000000000815260040161139f90612986565b60405180910390fd5b6001600260008481526020019081526020016000206004018054905011611404576040517f08c379a00000000000000000000000000000000000000000000000000000000081526004016113fb90612946565b60405180910390fd5b60016002600084815260200190815260200160002060080160006101000a81548160ff0219169083151502179055506002600083815260200190815260200160002060060154420160026000848152602001908152602001600020600701819055505050565b81600115156002600083815260200190815260200160002060000160009054906101000a900460ff161515146114d5576040517f08c379a00000000000000000000000000000000000000000000000000000000081526004016114cc906129c6565b60405180910390fd5b81600260008581526020019081526020016000206003018054905011611530576040517f08c379a000000000000000000000000000000000000000000000000000000000815260040161152790612966565b60405180910390fd5b600115156002600085815260200190815260200160002060080160009054906101000a900460ff1615151461159a576040517f08c379a000000000000000000000000000000000000000000000000000000000815260040161159190612926565b60405180910390fd5b600260008481526020019081526020016000206007015442106115f2576040517f08c379a00000000000000000000000000000000000000000000000000000000081526004016115e9906129e6565b60405180910390fd5b600115156002600085815260200190815260200160002060050160003373ffffffffffffffffffffffffffffffffffffffff1673ffffffffffffffffffffffffffffffffffffffff16815260200190815260200160002060000160009054906101000a900460ff1615151461169c576040517f08c379a000000000000000000000000000000000000000000000000000000000815260040161169390612a46565b60405180910390fd5b600015156002600085815260200190815260200160002060050160003373ffffffffffffffffffffffffffffffffffffffff1673ffffffffffffffffffffffffffffffffffffffff16815260200190815260200160002060000160019054906101000a900460ff16151514611746576040517f08c379a000000000000000000000000000000000000000000000000000000000815260040161173d90612a26565b60405180910390fd5b60016002600085815260200190815260200160002060050160003373ffffffffffffffffffffffffffffffffffffffff1673ffffffffffffffffffffffffffffffffffffffff16815260200190815260200160002060000160016101000a81548160ff0219169083151502179055506002600084815260200190815260200160002060030182815481106117d657fe5b9060005260206000209060030201600201600081548092919060010191905055506002600084815260200190815260200160002060090160008154809291906001019190505550505050565b60008054906101000a900473ffffffffffffffffffffffffffffffffffffffff1673ffffffffffffffffffffffffffffffffffffffff163373ffffffffffffffffffffffffffffffffffffffff16146118b0576040517f08c379a00000000000000000000000000000000000000000000000000000000081526004016118a790612a06565b60405180910390fd5b82600115156002600083815260200190815260200160002060000160009054906101000a900460ff1615151461191b576040517f08c379a0000000000000000000000000000000000000000000000000000000008152600401611912906129c6565b60405180910390fd5b600115156002600086815260200190815260200160002060080160009054906101000a900460ff16151514156119a457600260008581526020019081526020016000206007015442106119a3576040517f08c379a000000000000000000000000000000000000000000000000000000000815260040161199a906129a6565b60405180910390fd5b5b60005b83839050811015611baf57600015156002600087815260200190815260200160002060050160008686858181106119da57fe5b90506020020160208101906119ef9190611e21565b73ffffffffffffffffffffffffffffffffffffffff1673ffffffffffffffffffffffffffffffffffffffff16815260200190815260200160002060000160009054906101000a900460ff16151514611a7c576040517f08c379a0000000000000000000000000000000000000000000000000000000008152600401611a7390612a86565b60405180910390fd5b6001600260008781526020019081526020016000206005016000868685818110611aa257fe5b9050602002016020810190611ab79190611e21565b73ffffffffffffffffffffffffffffffffffffffff1673ffffffffffffffffffffffffffffffffffffffff16815260200190815260200160002060000160006101000a81548160ff02191690831515021790555060026000868152602001908152602001600020600401848483818110611b2d57fe5b9050602002016020810190611b429190611e21565b9080600181540180825580915050600190039060005260206000200160009091909190916101000a81548173ffffffffffffffffffffffffffffffffffffffff021916908373ffffffffffffffffffffffffffffffffffffffff16021790555080806001019150506119a7565b5050505050565b60008054906101000a900473ffffffffffffffffffffffffffffffffffffffff1681565b60405180606001604052806000815260200160608152602001600081525090565b828054600181600116156101000203166002900490600052602060002090601f016020900481019282601f10611c3c57805160ff1916838001178555611c6a565b82800160010185558215611c6a579182015b82811115611c69578251825591602001919060010190611c4e565b5b509050611c779190611cc8565b5090565b6040518060800160405280600081526020016060815260200160006002811115611ca157fe5b8152602001600081525090565b604051806040016040528060008152602001606081525090565b5b80821115611ce1576000816000905550600101611cc9565b5090565b600081359050611cf481612d27565b92915050565b60008083601f840112611d0c57600080fd5b8235905067ffffffffffffffff811115611d2557600080fd5b602083019150836020820283011115611d3d57600080fd5b9250929050565b600082601f830112611d5557600080fd5b8135611d68611d6382612af5565b612ac8565b9150818183526020840193506020810190508360005b83811015611dae5781358601611d948882611db8565b845260208401935060208301925050600181019050611d7e565b5050505092915050565b600082601f830112611dc957600080fd5b8135611ddc611dd782612b1d565b612ac8565b91508082526020830160208301858383011115611df857600080fd5b611e03838284612cc7565b50505092915050565b600081359050611e1b81612d3e565b92915050565b600060208284031215611e3357600080fd5b6000611e4184828501611ce5565b91505092915050565b600080600060608486031215611e5f57600080fd5b600084013567ffffffffffffffff811115611e7957600080fd5b611e8586828701611db8565b935050602084013567ffffffffffffffff811115611ea257600080fd5b611eae86828701611d44565b9250506040611ebf86828701611e0c565b9150509250925092565b600060208284031215611edb57600080fd5b6000611ee984828501611e0c565b91505092915050565b600080600060408486031215611f0757600080fd5b6000611f1586828701611e0c565b935050602084013567ffffffffffffffff811115611f3257600080fd5b611f3e86828701611cfa565b92509250509250925092565b60008060408385031215611f5d57600080fd5b6000611f6b85828601611e0c565b9250506020611f7c85828601611e0c565b9150509250929050565b6000611f928383611fda565b60208301905092915050565b6000611faa838361268f565b905092915050565b6000611fbe83836126f2565b905092915050565b6000611fd2838361272f565b905092915050565b611fe381612c5a565b82525050565b611ff281612c5a565b82525050565b600061200382612b89565b61200d8185612bf4565b935061201883612b49565b8060005b838110156120495781516120308882611f86565b975061203b83612bc0565b92505060018101905061201c565b5085935050505092915050565b600061206182612b94565b61206b8185612c05565b93508360208202850161207d85612b59565b8060005b858110156120b9578484038952815161209a8582611f9e565b94506120a583612bcd565b925060208a01995050600181019050612081565b50829750879550505050505092915050565b60006120d682612b9f565b6120e08185612c16565b9350836020820285016120f285612b69565b8060005b8581101561212e578484038952815161210f8582611fb2565b945061211a83612bda565b925060208a019950506001810190506120f6565b50829750879550505050505092915050565b600061214b82612baa565b6121558185612c27565b93508360208202850161216785612b79565b8060005b858110156121a357848403895281516121848582611fc6565b945061218f83612be7565b925060208a0199505060018101905061216b565b50829750879550505050505092915050565b6121be81612c6c565b82525050565b6121cd81612cb5565b82525050565b60006121de82612bb5565b6121e88185612c38565b93506121f8818560208601612cd6565b61220181612d09565b840191505092915050565b600061221782612bb5565b6122218185612c49565b9350612231818560208601612cd6565b61223a81612d09565b840191505092915050565b6000612252603583612c49565b91507f53686f756c642068617665206d696e696d756d20322063686f6963657320707260008301527f6573656e7420666f72207468652062616c6c6f742100000000000000000000006020830152604082019050919050565b60006122b8601783612c49565b91507f566f74696e67206861736e7420626567696e20796574210000000000000000006000830152602082019050919050565b60006122f8603683612c49565b91507f53686f756c6420686176652061746c65617374203220766f746572732061646460008301527f656420617320617070726f76656420766f7465727321000000000000000000006020830152604082019050919050565b600061235e601483612c49565b91507f43686f6963652069736e742070726573656e74210000000000000000000000006000830152602082019050919050565b600061239e601f83612c49565b91507f566f74696e672068617320616c726561647920737461727465642079657421006000830152602082019050919050565b60006123de603983612c49565b91507f43616e7420616464206d6f726520766f7465727320617320766f74696e67207060008301527f6572696f642068617320616c726561647920656e6464656421000000000000006020830152604082019050919050565b6000612444602383612c49565b91507f42616c6c6f742077697468207468697320696420646f6573206e6f742065786960008301527f73742100000000000000000000000000000000000000000000000000000000006020830152604082019050919050565b60006124aa601983612c49565b91507f566f74696e6720706572696f642068617320656e6464656421000000000000006000830152602082019050919050565b60006124ea601483612c49565b91507f43616c6c6572206973206e6f742061646d696e210000000000000000000000006000830152602082019050919050565b600061252a602783612c49565b91507f596f75206861766520616c726561647920766f74656420666f7220746869732060008301527f62616c6c6f7421000000000000000000000000000000000000000000000000006020830152604082019050919050565b6000612590601f83612c49565b91507f596f757220617265206e6f7420616e20617070726f76656420766f74657221006000830152602082019050919050565b60006125d0602183612c49565b91507f566f74696e6720706572696f6420686173206e6f7420656e646465642079657460008301527f21000000000000000000000000000000000000000000000000000000000000006020830152604082019050919050565b6000612636602283612c49565b91507f566f7465727320617272617920686173206475626c69636174652076616c756560008301527f73210000000000000000000000000000000000000000000000000000000000006020830152604082019050919050565b60006080830160008301516126a760008601826127cf565b50602083015184820360208601526126bf82826121d3565b91505060408301516126d460408601826121c4565b5060608301516126e760608601826127cf565b508091505092915050565b600060408301600083015161270a60008601826127cf565b506020830151848203602086015261272282826121d3565b9150508091505092915050565b600060608301600083015161274760008601826127cf565b506020830151848203602086015261275f82826121d3565b915050604083015161277460408601826127cf565b508091505092915050565b600060608301600083015161279760008601826127cf565b50602083015184820360208601526127af82826121d3565b91505060408301516127c460408601826127cf565b508091505092915050565b6127d881612cab565b82525050565b6127e781612cab565b82525050565b60006020820190506128026000830184611fe9565b92915050565b600060208201905081810360008301526128228184611ff8565b905092915050565b600060208201905081810360008301526128448184612056565b905092915050565b6000602082019050818103600083015261286681846120cb565b905092915050565b600060208201905081810360008301526128888184612140565b905092915050565b600060e0820190506128a5600083018a6121b5565b6128b260208301896127de565b81810360408301526128c4818861220c565b90506128d360608301876127de565b6128e060808301866127de565b6128ed60a08301856121b5565b6128fa60c08301846127de565b98975050505050505050565b6000602082019050818103600083015261291f81612245565b9050919050565b6000602082019050818103600083015261293f816122ab565b9050919050565b6000602082019050818103600083015261295f816122eb565b9050919050565b6000602082019050818103600083015261297f81612351565b9050919050565b6000602082019050818103600083015261299f81612391565b9050919050565b600060208201905081810360008301526129bf816123d1565b9050919050565b600060208201905081810360008301526129df81612437565b9050919050565b600060208201905081810360008301526129ff8161249d565b9050919050565b60006020820190508181036000830152612a1f816124dd565b9050919050565b60006020820190508181036000830152612a3f8161251d565b9050919050565b60006020820190508181036000830152612a5f81612583565b9050919050565b60006020820190508181036000830152612a7f816125c3565b9050919050565b60006020820190508181036000830152612a9f81612629565b9050919050565b60006020820190508181036000830152612ac0818461277f565b905092915050565b6000604051905081810181811067ffffffffffffffff82111715612aeb57600080fd5b8060405250919050565b600067ffffffffffffffff821115612b0c57600080fd5b602082029050602081019050919050565b600067ffffffffffffffff821115612b3457600080fd5b601f19601f8301169050602081019050919050565b6000819050602082019050919050565b6000819050602082019050919050565b6000819050602082019050919050565b6000819050602082019050919050565b600081519050919050565b600081519050919050565b600081519050919050565b600081519050919050565b600081519050919050565b6000602082019050919050565b6000602082019050919050565b6000602082019050919050565b6000602082019050919050565b600082825260208201905092915050565b600082825260208201905092915050565b600082825260208201905092915050565b600082825260208201905092915050565b600082825260208201905092915050565b600082825260208201905092915050565b6000612c6582612c8b565b9050919050565b60008115159050919050565b6000819050612c8682612d1a565b919050565b600073ffffffffffffffffffffffffffffffffffffffff82169050919050565b6000819050919050565b6000612cc082612c78565b9050919050565b82818337600083830152505050565b60005b83811015612cf4578082015181840152602081019050612cd9565b83811115612d03576000848401525b50505050565b6000601f19601f8301169050919050565b60038110612d2457fe5b50565b612d3081612c5a565b8114612d3b57600080fd5b50565b612d4781612cab565b8114612d5257600080fd5b5056fea2646970667358221220f2b501a6702b172e4f89b157d3f69157127698380bff17c4eefc5f6b31d7cdbf64736f6c63430007000033",
  "immutableReferences": {},
  "source": "// SPDX-License-Identifier:MIT\npragma solidity 0.7.0;\npragma experimental ABIEncoderV2;\n\ncontract Voting {\n    address public admin;\n    \n    struct Choices {\n        uint choiceId;\n        string name;\n        uint votesReceived;\n    }\n    \n    struct ChoicesTemp{\n        uint _id;\n        string _name;\n    }\n    \n    struct Voter {\n        bool isVoter;\n        bool hasVoted;\n    }\n\n    enum Status{NOTOPEN, OPEN, FINISHED}\n\n    struct BallotTemp {\n        uint ballotId;\n        string name;\n        Status ballotStatus;\n        uint endTime;\n    }\n    \n    struct Ballot {\n        bool ballotExist;\n        uint ballotId;\n        string name;\n        \n        Choices[] choices;\n        address[] voterAddress;\n        mapping(address => Voter) voters;\n        \n        uint timeLimit;\n        uint endTime;\n        bool hasVotingBegin;\n        \n        uint totalVatesLogged;\n    }\n    uint nextBallotId;\n    mapping(uint => Ballot) public ballots;\n    \n    \n    // mapping(address => mapping(uint => Voter)) public voters;\n    \n    constructor() {\n        admin = msg.sender;\n    }\n\n    function createBallot(\n            string memory _ballotName,\n            string[] memory _choicesNames,\n            uint _timeLimit\n        ) \n        external onlyAdmin() {\n            require(_choicesNames.length > 1, \"Should have minimum 2 choices present for the ballot!\");\n            ballots[nextBallotId].ballotExist = true;\n            ballots[nextBallotId].ballotId = nextBallotId;\n            ballots[nextBallotId].name = _ballotName;\n            ballots[nextBallotId].timeLimit = _timeLimit;\n            \n            for(uint i = 0; i < _choicesNames.length; i++) {\n                ballots[nextBallotId].choices.push(Choices(i, _choicesNames[i], 0));\n            }\n            \n            nextBallotId++;\n    }\n    \n    function addVoters(uint _ballotId, address[] calldata _voters) external onlyAdmin() ballotExist(_ballotId){\n        if(ballots[_ballotId].hasVotingBegin == true) {\n            require(block.timestamp < ballots[_ballotId].endTime, \"Cant add more voters as voting period has already endded!\");\n        }\n        for(uint i = 0; i < _voters.length; i++) {\n            require(ballots[_ballotId].voters[_voters[i]].isVoter == false, \"Voters array has dublicate values!\");\n            ballots[_ballotId].voters[_voters[i]].isVoter = true;\n            ballots[_ballotId].voterAddress.push(_voters[i]);\n        }\n    }\n    \n    function beginVoting(uint _ballotId) external ballotExist(_ballotId) onlyAdmin() {\n        require(ballots[_ballotId].hasVotingBegin == false, \"Voting has already started yet!\");\n        require(ballots[_ballotId].voterAddress.length > 1, \"Should have atleast 2 voters added as approved voters!\");\n        ballots[_ballotId].hasVotingBegin = true;\n        ballots[_ballotId].endTime = block.timestamp + ballots[_ballotId].timeLimit;\n    }\n    \n    function vote(uint _ballotId, uint _choiceId) external ballotExist(_ballotId) {\n        require(ballots[_ballotId].choices.length > _choiceId, \"Choice isnt present!\");\n        require(ballots[_ballotId].hasVotingBegin == true, \"Voting hasnt begin yet!\");\n        require(block.timestamp < ballots[_ballotId].endTime, \"Voting period has endded!\");\n        require(ballots[_ballotId].voters[msg.sender].isVoter == true, \"Your are not an approved voter!\");\n        require(ballots[_ballotId].voters[msg.sender].hasVoted == false, \"You have already voted for this ballot!\");\n        \n        ballots[_ballotId].voters[msg.sender].hasVoted = true;\n        ballots[_ballotId].choices[_choiceId].votesReceived++;\n        \n        ballots[_ballotId].totalVatesLogged++;\n    }\n    \n    function result(uint _ballotId)  external view ballotExist(_ballotId) returns(Choices[] memory) {\n        require(ballots[_ballotId].hasVotingBegin == true, \"Voting hasnt begin yet!\");\n        require(block.timestamp > ballots[_ballotId].endTime, \"Voting period has not endded yet!\");\n        \n        return ballots[_ballotId].choices;\n    }\n    \n    function showWinner(uint _ballotId) external view ballotExist(_ballotId) returns(Choices memory) {\n        require(ballots[_ballotId].hasVotingBegin == true, \"Voting hasnt begin yet!\");\n        require(block.timestamp > ballots[_ballotId].endTime, \"Voting period has not endded yet!\");\n        \n        Choices memory _winner;\n        uint _maxVotes = ballots[_ballotId].choices[0].votesReceived;\n        uint _winnerId = ballots[_ballotId].choices[0].choiceId;\n        bool draw;\n        \n        for(uint i = 1; i < ballots[_ballotId].choices.length; i++) {\n            if(ballots[_ballotId].choices[i].votesReceived > _maxVotes) {\n                _maxVotes = ballots[_ballotId].choices[i].votesReceived;\n                _winnerId = ballots[_ballotId].choices[i].choiceId;\n                draw = false;\n            } else if(ballots[_ballotId].choices[i].votesReceived == _maxVotes) {\n                draw = true;\n            }\n        }\n        \n        if(draw) {\n            return _winner;\n        } else {\n            _winner = Choices(_winnerId, ballots[_ballotId].choices[_winnerId].name, ballots[_ballotId].choices[_winnerId].votesReceived);\n            return _winner;\n        }\n    }\n\n    function showBallots() external view returns(BallotTemp[] memory){\n        BallotTemp[] memory _ballots = new BallotTemp[](nextBallotId);\n\n        for(uint i = 0; i < nextBallotId; i++) {\n            require(ballots[i].ballotExist == true);\n            _ballots[i].ballotId = ballots[i].ballotId;\n            _ballots[i].name = ballots[i].name;\n            if(ballots[i].hasVotingBegin && block.timestamp >= ballots[i].endTime) {\n                _ballots[i].ballotStatus = Status.FINISHED;\n            } else if(ballots[i].hasVotingBegin ) {\n                _ballots[i].ballotStatus = Status.OPEN;\n            } else {\n                _ballots[i].ballotStatus = Status.NOTOPEN;\n            }\n            _ballots[i].endTime = ballots[i].endTime;\n        }\n        return _ballots;\n    } \n    \n    function showChoices(uint _ballotId)\n        external\n        view\n        ballotExist(_ballotId)\n        returns(ChoicesTemp[] memory) {\n            \n            ChoicesTemp[] memory _choices = new ChoicesTemp[](ballots[_ballotId].choices.length);\n            \n            for(uint i = 0; i < ballots[_ballotId].choices.length; i++) {\n                _choices[i]._id = ballots[_ballotId].choices[i].choiceId;\n                _choices[i]._name = ballots[_ballotId].choices[i].name;\n            }\n            // return ballots[_ballotId].choices;\n            return _choices;\n    }\n    \n    function showVoters(uint _ballotId) \n        external \n        view \n        ballotExist(_ballotId)\n        returns(address[] memory) {\n            return ballots[_ballotId].voterAddress;\n    }\n    \n    modifier onlyAdmin() {\n        require(msg.sender == admin, \"Caller is not admin!\");\n        _;\n    }\n    \n    modifier ballotExist(uint _ballotId) {\n        require(ballots[_ballotId].ballotExist == true, \"Ballot with this id does not exist!\");\n        _;\n    }\n}",
  "sourcePath": "/home/dante/Iris/Study/Projects/Dapp30/day14_voting/contracts/Voting.sol",
  "compiler": {
    "name": "solc",
    "version": "0.7.0+commit.9e61f92b.Emscripten.clang"
  },
  "schemaVersion": "3.2.3",
  "updatedAt": "2020-08-21T12:13:42.212Z",
  "networkType": "ethereum",
  "devdoc": {
    "kind": "dev",
    "methods": {},
    "version": 1
  },
  "userdoc": {
    "kind": "user",
    "methods": {},
    "version": 1
  }
}