{
  "contractName": "Factory1",
  "abi": [
    {
      "inputs": [],
      "stateMutability": "nonpayable",
      "type": "constructor"
    },
    {
      "inputs": [],
      "name": "factoryOwner",
      "outputs": [
        {
          "internalType": "address",
          "name": "",
          "type": "address"
        }
      ],
      "stateMutability": "view",
      "type": "function"
    },
    {
      "inputs": [],
      "name": "createMultiSigWallet",
      "outputs": [],
      "stateMutability": "payable",
      "type": "function"
    },
    {
      "inputs": [],
      "name": "getAllWalletAddress",
      "outputs": [
        {
          "internalType": "address[]",
          "name": "",
          "type": "address[]"
        }
      ],
      "stateMutability": "view",
      "type": "function"
    }
  ],
  "bytecode": "0x608060405234801561001057600080fd5b50336000806101000a81548173ffffffffffffffffffffffffffffffffffffffff021916908373ffffffffffffffffffffffffffffffffffffffff1602179055506120e8806100606000396000f3fe6080604052600436106100345760003560e01c80634273601c146100395780635753b6a414610064578063f78038b61461006e575b600080fd5b34801561004557600080fd5b5061004e610099565b60405161005b91906102f2565b60405180910390f35b61006c6100be565b005b34801561007a57600080fd5b506100836101a5565b604051610090919061030d565b60405180910390f35b6000809054906101000a900473ffffffffffffffffffffffffffffffffffffffff1681565b600034336040516100ce90610233565b6100d992919061032f565b604051809103906000f0801580156100f5573d6000803e3d6000fd5b5090506001819080600181540180825580915050600190039060005260206000200160009091909190916101000a81548173ffffffffffffffffffffffffffffffffffffffff021916908373ffffffffffffffffffffffffffffffffffffffff1602179055508073ffffffffffffffffffffffffffffffffffffffff166108fc349081150290604051600060405180830381858888f193505050501580156101a1573d6000803e3d6000fd5b5050565b6060600180548060200260200160405190810160405280929190818152602001828054801561022957602002820191906000526020600020905b8160009054906101000a900473ffffffffffffffffffffffffffffffffffffffff1673ffffffffffffffffffffffffffffffffffffffff16815260200190600101908083116101df575b5050505050905090565b611caf8061040483390190565b600061024c8383610267565b60208301905092915050565b610261816103cd565b82525050565b61027081610391565b82525050565b61027f81610391565b82525050565b600061029082610368565b61029a8185610380565b93506102a583610358565b8060005b838110156102d65781516102bd8882610240565b97506102c883610373565b9250506001810190506102a9565b5085935050505092915050565b6102ec816103c3565b82525050565b60006020820190506103076000830184610276565b92915050565b600060208201905081810360008301526103278184610285565b905092915050565b600060408201905061034460008301856102e3565b6103516020830184610258565b9392505050565b6000819050602082019050919050565b600081519050919050565b6000602082019050919050565b600082825260208201905092915050565b600061039c826103a3565b9050919050565b600073ffffffffffffffffffffffffffffffffffffffff82169050919050565b6000819050919050565b60006103d8826103df565b9050919050565b60006103ea826103f1565b9050919050565b60006103fc826103a3565b905091905056fe60806040523480156200001157600080fd5b5060405162001caf38038062001caf83398181016040528101906200003791906200011e565b806000806101000a81548173ffffffffffffffffffffffffffffffffffffffff021916908373ffffffffffffffffffffffffffffffffffffffff160217905550816001819055506001600360008373ffffffffffffffffffffffffffffffffffffffff1673ffffffffffffffffffffffffffffffffffffffff16815260200190815260200160002060006101000a81548160ff0219169083151502179055506004600081548092919060010191905055505050620001d1565b60008151905062000101816200019d565b92915050565b6000815190506200011881620001b7565b92915050565b600080604083850312156200013257600080fd5b6000620001428582860162000107565b92505060206200015585828601620000f0565b9150509250929050565b60006200016c8262000173565b9050919050565b600073ffffffffffffffffffffffffffffffffffffffff82169050919050565b6000819050919050565b620001a8816200015f565b8114620001b457600080fd5b50565b620001c28162000193565b8114620001ce57600080fd5b50565b611ace80620001e16000396000f3fe6080604052600436106100c65760003560e01c8063722713f71161007f578063c290341d11610059578063c290341d14610347578063cacca4a014610384578063e707cf54146103ad578063fe8aa488146103d8576101ae565b8063722713f7146102c35780637e22c1df146102ee5780639377d71114610305576101ae565b80630e9e756c146101b35780631ae879e8146101de5780632c48e7db146102095780633ac172dd1461023257806354b4aa4a1461025b5780635c2b441e14610286576101ae565b366101ae5760011515600360003373ffffffffffffffffffffffffffffffffffffffff1673ffffffffffffffffffffffffffffffffffffffff16815260200190815260200160002060009054906101000a900460ff1615151461015e576040517f08c379a000000000000000000000000000000000000000000000000000000000815260040161015590611873565b60405180910390fd5b3373ffffffffffffffffffffffffffffffffffffffff167f7d5457e74922781ea8fe6b09f7e70e0788ed0f929f96a30e0fd54e070c57d375346040516101a49190611933565b60405180910390a2005b600080fd5b3480156101bf57600080fd5b506101c86103e2565b6040516101d59190611933565b60405180910390f35b3480156101ea57600080fd5b506101f36103e8565b604051610200919061181b565b60405180910390f35b34801561021557600080fd5b50610230600480360381019061022b9190611471565b61040d565b005b34801561023e57600080fd5b50610259600480360381019061025491906113f9565b610877565b005b34801561026757600080fd5b50610270610ab6565b60405161027d9190611836565b60405180910390f35b34801561029257600080fd5b506102ad60048036038101906102a891906113d0565b610bfa565b6040516102ba9190611858565b60405180910390f35b3480156102cf57600080fd5b506102d8610c1a565b6040516102e59190611933565b60405180910390f35b3480156102fa57600080fd5b50610303610c22565b005b34801561031157600080fd5b5061032c60048036038101906103279190611471565b610d58565b60405161033e9695949392919061194e565b60405180910390f35b34801561035357600080fd5b5061036e60048036038101906103699190611435565b610dee565b60405161037b9190611858565b60405180910390f35b34801561039057600080fd5b506103ab60048036038101906103a69190611471565b610e1d565b005b3480156103b957600080fd5b506103c26112da565b6040516103cf9190611933565b60405180910390f35b6103e06112e0565b005b60015481565b6000809054906101000a900473ffffffffffffffffffffffffffffffffffffffff1681565b6002818154811061041a57fe5b906000526020600020906006020160010154600154600454028101471015610477576040517f08c379a000000000000000000000000000000000000000000000000000000000815260040161046e90611893565b60405180910390fd5b600015156002838154811061048857fe5b906000526020600020906006020160050160009054906101000a900460ff161515146104e9576040517f08c379a00000000000000000000000000000000000000000000000000000000081526004016104e0906118d3565b60405180910390fd5b60011515600360003373ffffffffffffffffffffffffffffffffffffffff1673ffffffffffffffffffffffffffffffffffffffff16815260200190815260200160002060009054906101000a900460ff16151514806105b157506002828154811061055057fe5b906000526020600020906006020160020160009054906101000a900473ffffffffffffffffffffffffffffffffffffffff1673ffffffffffffffffffffffffffffffffffffffff163373ffffffffffffffffffffffffffffffffffffffff16145b806106255750600282815481106105c457fe5b906000526020600020906006020160030160009054906101000a900473ffffffffffffffffffffffffffffffffffffffff1673ffffffffffffffffffffffffffffffffffffffff163373ffffffffffffffffffffffffffffffffffffffff16145b610664576040517f08c379a000000000000000000000000000000000000000000000000000000000815260040161065b906118b3565b60405180910390fd5b600160026004548161067257fe5b04016002838154811061068157fe5b90600052602060002090600602016004015410610873576001600283815481106106a757fe5b906000526020600020906006020160050160006101000a81548160ff021916908315150217905550600282815481106106dc57fe5b906000526020600020906006020160030160009054906101000a900473ffffffffffffffffffffffffffffffffffffffff1673ffffffffffffffffffffffffffffffffffffffff166108fc6002848154811061073457fe5b9060005260206000209060060201600101549081150290604051600060405180830381858888f19350505050158015610771573d6000803e3d6000fd5b506002828154811061077f57fe5b906000526020600020906006020160030160009054906101000a900473ffffffffffffffffffffffffffffffffffffffff1673ffffffffffffffffffffffffffffffffffffffff16600283815481106107d457fe5b906000526020600020906006020160020160009054906101000a900473ffffffffffffffffffffffffffffffffffffffff1673ffffffffffffffffffffffffffffffffffffffff16837f0c42533a821580a4793536ce97ea52a70f7ffcc66a675e9f9a47e4f63914586c6002868154811061084b57fe5b90600052602060002090600602016001015460405161086a9190611933565b60405180910390a45b5050565b60011515600360003373ffffffffffffffffffffffffffffffffffffffff1673ffffffffffffffffffffffffffffffffffffffff16815260200190815260200160002060009054906101000a900460ff1615151461090a576040517f08c379a000000000000000000000000000000000000000000000000000000000815260040161090190611873565b60405180910390fd5b80600154600454028101471015610956576040517f08c379a000000000000000000000000000000000000000000000000000000000815260040161094d90611893565b60405180910390fd5b60026040518060c0016040528060028054905081526020018481526020013373ffffffffffffffffffffffffffffffffffffffff1681526020018573ffffffffffffffffffffffffffffffffffffffff16815260200160008152602001600015158152509080600181540180825580915050600190039060005260206000209060060201600090919091909150600082015181600001556020820151816001015560408201518160020160006101000a81548173ffffffffffffffffffffffffffffffffffffffff021916908373ffffffffffffffffffffffffffffffffffffffff16021790555060608201518160030160006101000a81548173ffffffffffffffffffffffffffffffffffffffff021916908373ffffffffffffffffffffffffffffffffffffffff1602179055506080820151816004015560a08201518160050160006101000a81548160ff0219169083151502179055505050505050565b60606002805480602002602001604051908101604052809291908181526020016000905b82821015610bf157838290600052602060002090600602016040518060c001604052908160008201548152602001600182015481526020016002820160009054906101000a900473ffffffffffffffffffffffffffffffffffffffff1673ffffffffffffffffffffffffffffffffffffffff1673ffffffffffffffffffffffffffffffffffffffff1681526020016003820160009054906101000a900473ffffffffffffffffffffffffffffffffffffffff1673ffffffffffffffffffffffffffffffffffffffff1673ffffffffffffffffffffffffffffffffffffffff168152602001600482015481526020016005820160009054906101000a900460ff16151515158152505081526020019060010190610ada565b50505050905090565b60036020528060005260406000206000915054906101000a900460ff1681565b600047905090565b60011515600360003373ffffffffffffffffffffffffffffffffffffffff1673ffffffffffffffffffffffffffffffffffffffff16815260200190815260200160002060009054906101000a900460ff16151514610cb5576040517f08c379a0000000000000000000000000000000000000000000000000000000008152600401610cac90611873565b60405180910390fd5b6000600360003373ffffffffffffffffffffffffffffffffffffffff1673ffffffffffffffffffffffffffffffffffffffff16815260200190815260200160002060006101000a81548160ff0219169083151502179055503373ffffffffffffffffffffffffffffffffffffffff166108fc6001549081150290604051600060405180830381858888f19350505050158015610d55573d6000803e3d6000fd5b50565b60028181548110610d6557fe5b90600052602060002090600602016000915090508060000154908060010154908060020160009054906101000a900473ffffffffffffffffffffffffffffffffffffffff16908060030160009054906101000a900473ffffffffffffffffffffffffffffffffffffffff16908060040154908060050160009054906101000a900460ff16905086565b60056020528160005260406000206020528060005260406000206000915091509054906101000a900460ff1681565b60011515600360003373ffffffffffffffffffffffffffffffffffffffff1673ffffffffffffffffffffffffffffffffffffffff16815260200190815260200160002060009054906101000a900460ff16151514610eb0576040517f08c379a0000000000000000000000000000000000000000000000000000000008152600401610ea790611873565b60405180910390fd5b60028181548110610ebd57fe5b906000526020600020906006020160010154600154600454028101471015610f1a576040517f08c379a0000000000000000000000000000000000000000000000000000000008152600401610f1190611893565b60405180910390fd5b6000151560028381548110610f2b57fe5b906000526020600020906006020160050160009054906101000a900460ff16151514610f8c576040517f08c379a0000000000000000000000000000000000000000000000000000000008152600401610f83906118d3565b60405180910390fd5b60001515600560003373ffffffffffffffffffffffffffffffffffffffff1673ffffffffffffffffffffffffffffffffffffffff168152602001908152602001600020600084815260200190815260200160002060009054906101000a900460ff16151514611030576040517f08c379a000000000000000000000000000000000000000000000000000000000815260040161102790611913565b60405180910390fd5b6002828154811061103d57fe5b9060005260206000209060060201600401600081548092919060010191905055506001600560003373ffffffffffffffffffffffffffffffffffffffff1673ffffffffffffffffffffffffffffffffffffffff168152602001908152602001600020600084815260200190815260200160002060006101000a81548160ff02191690831515021790555060016002600454816110d557fe5b0401600283815481106110e457fe5b906000526020600020906006020160040154106112d65760016002838154811061110a57fe5b906000526020600020906006020160050160006101000a81548160ff0219169083151502179055506002828154811061113f57fe5b906000526020600020906006020160030160009054906101000a900473ffffffffffffffffffffffffffffffffffffffff1673ffffffffffffffffffffffffffffffffffffffff166108fc6002848154811061119757fe5b9060005260206000209060060201600101549081150290604051600060405180830381858888f193505050501580156111d4573d6000803e3d6000fd5b50600282815481106111e257fe5b906000526020600020906006020160030160009054906101000a900473ffffffffffffffffffffffffffffffffffffffff1673ffffffffffffffffffffffffffffffffffffffff166002838154811061123757fe5b906000526020600020906006020160020160009054906101000a900473ffffffffffffffffffffffffffffffffffffffff1673ffffffffffffffffffffffffffffffffffffffff16837f0c42533a821580a4793536ce97ea52a70f7ffcc66a675e9f9a47e4f63914586c600286815481106112ae57fe5b9060005260206000209060060201600101546040516112cd9190611933565b60405180910390a45b5050565b60045481565b600154341015611325576040517f08c379a000000000000000000000000000000000000000000000000000000000815260040161131c906118f3565b60405180910390fd5b6001600360003373ffffffffffffffffffffffffffffffffffffffff1673ffffffffffffffffffffffffffffffffffffffff16815260200190815260200160002060006101000a81548160ff021916908315150217905550600460008154809291906001019190505550565b6000813590506113a081611a53565b92915050565b6000813590506113b581611a6a565b92915050565b6000813590506113ca81611a81565b92915050565b6000602082840312156113e257600080fd5b60006113f084828501611391565b91505092915050565b6000806040838503121561140c57600080fd5b600061141a858286016113a6565b925050602061142b858286016113bb565b9150509250929050565b6000806040838503121561144857600080fd5b600061145685828601611391565b9250506020611467858286016113bb565b9150509250929050565b60006020828403121561148357600080fd5b6000611491848285016113bb565b91505092915050565b60006114a68383611782565b60c08301905092915050565b6114bb81611a0b565b82525050565b6114ca81611a0b565b82525050565b6114d9816119f9565b82525050565b6114e8816119f9565b82525050565b60006114f9826119bf565b61150381856119d7565b935061150e836119af565b8060005b8381101561153f578151611526888261149a565b9750611531836119ca565b925050600181019050611512565b5085935050505092915050565b61155581611a1d565b82525050565b61156481611a1d565b82525050565b60006115776017836119e8565b91507f43616c6c6572206973206e6f7420617070726f766572210000000000000000006000830152602082019050919050565b60006115b7603f836119e8565b91507f54686520636f6e747261637420686173206e6f742073756666656369656e742060008301527f62616c616e6365206c656674206166746572206c6f636b696e672065746821006020830152604082019050919050565b600061161d6033836119e8565b91507f43616c6c65722063616e2062652065697468657220617070726f7665722c207360008301527f656e6465722c206f7220726563697069656e74000000000000000000000000006020830152604082019050919050565b6000611683601f836119e8565b91507f5472616e736665722068617320616c7265616479206265656e2073656e7421006000830152602082019050919050565b60006116c36039836119e8565b91507f4d6f726520657468206e656564656420746f206265206c6f636b656420696e2060008301527f6f7264657220746f206265636f6d6520617070726f76657221000000000000006020830152604082019050919050565b60006117296027836119e8565b91507f596f75206861766520616c726561647920617070726f7665642074686973207460008301527f72616e73666572000000000000000000000000000000000000000000000000006020830152604082019050919050565b60c08201600082015161179860008501826117fd565b5060208201516117ab60208501826117fd565b5060408201516117be60408501826114d0565b5060608201516117d160608501826114b2565b5060808201516117e460808501826117fd565b5060a08201516117f760a085018261154c565b50505050565b61180681611a49565b82525050565b61181581611a49565b82525050565b600060208201905061183060008301846114df565b92915050565b6000602082019050818103600083015261185081846114ee565b905092915050565b600060208201905061186d600083018461155b565b92915050565b6000602082019050818103600083015261188c8161156a565b9050919050565b600060208201905081810360008301526118ac816115aa565b9050919050565b600060208201905081810360008301526118cc81611610565b9050919050565b600060208201905081810360008301526118ec81611676565b9050919050565b6000602082019050818103600083015261190c816116b6565b9050919050565b6000602082019050818103600083015261192c8161171c565b9050919050565b6000602082019050611948600083018461180c565b92915050565b600060c082019050611963600083018961180c565b611970602083018861180c565b61197d60408301876114df565b61198a60608301866114c1565b611997608083018561180c565b6119a460a083018461155b565b979650505050505050565b6000819050602082019050919050565b600081519050919050565b6000602082019050919050565b600082825260208201905092915050565b600082825260208201905092915050565b6000611a0482611a29565b9050919050565b6000611a1682611a29565b9050919050565b60008115159050919050565b600073ffffffffffffffffffffffffffffffffffffffff82169050919050565b6000819050919050565b611a5c816119f9565b8114611a6757600080fd5b50565b611a7381611a0b565b8114611a7e57600080fd5b50565b611a8a81611a49565b8114611a9557600080fd5b5056fea2646970667358221220f168590f779c0fe98270a6d65a91029460db716b075839a577665038b4cd1f4264736f6c63430006060033a264697066735822122094ce7bc411a916a1463486376e176718ff07a194565df2add1e088b3dba75fe064736f6c63430006060033",
  "immutableReferences": {},
  "source": "// SPDX-License-Identifier:MIT\npragma solidity >=0.6.0 <0.7.0;\npragma experimental ABIEncoderV2;\n\ncontract Factory1 {\n    address public factoryOwner;\n    address[] private walletAddresses;\n\n    constructor() public {\n        factoryOwner = msg.sender;\n    }\n\n    function createMultiSigWallet() external payable {\n        MultiSigWallet1 newWallet = new MultiSigWallet1(msg.value, msg.sender);\n\n        walletAddresses.push(address(newWallet));\n\n        payable(newWallet).transfer(msg.value);\n    }\n\n    function getAllWalletAddress() external view returns (address[] memory) {\n        return walletAddresses;\n    }\n}\n\ncontract MultiSigWallet1 {\n    address public walletOwner;\n    uint256 public minLockingAmount;\n\n    struct Transfer {\n        uint256 _id;\n        uint256 _amount;\n        address _from;\n        address payable _to;\n        uint256 _noOfApprovals;\n        bool _tranferCompleted;\n    }\n    Transfer[] public transfers;\n\n    mapping(address => bool) public approversMap;\n    uint256 public noOfApprovers;\n\n    mapping(address => mapping(uint256 => bool))\n        public approversAppoveTransferMap;\n\n    event DepositeEvent(address indexed, uint256);\n    event TransferEvent(\n        uint256 indexed,\n        address indexed,\n        address indexed,\n        uint256\n    );\n\n    constructor(uint256 _minLockingAmount, address _owner) public {\n        walletOwner = _owner;\n        minLockingAmount = _minLockingAmount;\n\n        approversMap[_owner] = true;\n        noOfApprovers++;\n    }\n\n    function becomeApprover() external payable {\n        require(\n            msg.value >= minLockingAmount,\n            \"More eth needed to be locked in order to become approver!\"\n        );\n\n        approversMap[msg.sender] = true;\n        noOfApprovers++;\n    }\n\n    function unBecomeApprover() external isApprover {\n        approversMap[msg.sender] = false;\n        msg.sender.transfer(minLockingAmount);\n    }\n\n    function createTransfer(address payable _to, uint256 _amount)\n        external\n        isApprover\n        haveBalance(_amount)\n    {\n        transfers.push(\n            Transfer(transfers.length, _amount, msg.sender, _to, 0, false)\n        );\n    }\n\n    function approveTransfer(uint256 _transferId)\n        external\n        isApprover\n        haveBalance(transfers[_transferId]._amount)\n    {\n        require(\n            transfers[_transferId]._tranferCompleted == false,\n            \"Transfer has already been sent!\"\n        );\n        require(\n            approversAppoveTransferMap[msg.sender][_transferId] == false,\n            \"You have already approved this transfer\"\n        );\n        transfers[_transferId]._noOfApprovals++;\n        approversAppoveTransferMap[msg.sender][_transferId] = true;\n\n        if (transfers[_transferId]._noOfApprovals >= noOfApprovers / 2 + 1) {\n            transfers[_transferId]._tranferCompleted = true;\n            transfers[_transferId]._to.transfer(transfers[_transferId]._amount);\n            emit TransferEvent(\n                _transferId,\n                transfers[_transferId]._from,\n                transfers[_transferId]._to,\n                transfers[_transferId]._amount\n            );\n        }\n    }\n\n    function confirmTransfer(uint256 _transferId)\n        external\n        haveBalance(transfers[_transferId]._amount)\n    {\n        require(\n            transfers[_transferId]._tranferCompleted == false,\n            \"Transfer has already been sent!\"\n        );\n        require(\n            approversMap[msg.sender] == true ||\n                msg.sender == transfers[_transferId]._from ||\n                msg.sender == transfers[_transferId]._to,\n            \"Caller can be either approver, sender, or recipient\"\n        );\n\n        if (transfers[_transferId]._noOfApprovals >= noOfApprovers / 2 + 1) {\n            transfers[_transferId]._tranferCompleted = true;\n            transfers[_transferId]._to.transfer(transfers[_transferId]._amount);\n            emit TransferEvent(\n                _transferId,\n                transfers[_transferId]._from,\n                transfers[_transferId]._to,\n                transfers[_transferId]._amount\n            );\n        }\n    }\n\n    function balanceOf() external view returns (uint256) {\n        return address(this).balance;\n    }\n\n    function getAllTransfers() external view returns (Transfer[] memory) {\n        return transfers;\n    }\n\n    modifier isApprover() {\n        require(approversMap[msg.sender] == true, \"Caller is not approver!\");\n        _;\n    }\n\n    modifier haveBalance(uint256 _amount) {\n        require(\n            address(this).balance >=\n                (_amount + (noOfApprovers * minLockingAmount)),\n            \"The contract has not suffecient balance left after locking eth!\"\n        );\n        _;\n    }\n\n    receive() external payable isApprover {\n        emit DepositeEvent(msg.sender, msg.value);\n    }\n}\n",
  "sourcePath": "/home/dante/Iris/Study/Projects/Dapp30/day13_miltiSigWallet/contracts/MultiSigWallet1.sol",
  "compiler": {
    "name": "solc",
    "version": "0.6.6+commit.6c089d02.Emscripten.clang"
  },
  "schemaVersion": "3.2.3",
  "updatedAt": "2020-08-11T06:41:32.069Z",
  "devdoc": {
    "methods": {}
  },
  "userdoc": {
    "methods": {}
  }
}