{
  "contractName": "MultiSigWallet2",
  "abi": [
    {
      "inputs": [
        {
          "internalType": "address[]",
          "name": "_approvers",
          "type": "address[]"
        },
        {
          "internalType": "uint256",
          "name": "_quorum",
          "type": "uint256"
        },
        {
          "internalType": "address",
          "name": "_owner",
          "type": "address"
        }
      ],
      "stateMutability": "nonpayable",
      "type": "constructor"
    },
    {
      "anonymous": false,
      "inputs": [
        {
          "indexed": true,
          "internalType": "address",
          "name": "",
          "type": "address"
        },
        {
          "indexed": false,
          "internalType": "uint256",
          "name": "",
          "type": "uint256"
        }
      ],
      "name": "DepositeEvent",
      "type": "event"
    },
    {
      "anonymous": false,
      "inputs": [
        {
          "indexed": true,
          "internalType": "uint256",
          "name": "",
          "type": "uint256"
        },
        {
          "indexed": true,
          "internalType": "address",
          "name": "",
          "type": "address"
        },
        {
          "indexed": true,
          "internalType": "address",
          "name": "",
          "type": "address"
        },
        {
          "indexed": false,
          "internalType": "uint256",
          "name": "",
          "type": "uint256"
        }
      ],
      "name": "TransferEvent",
      "type": "event"
    },
    {
      "inputs": [
        {
          "internalType": "uint256",
          "name": "",
          "type": "uint256"
        }
      ],
      "name": "approvers",
      "outputs": [
        {
          "internalType": "address",
          "name": "",
          "type": "address"
        }
      ],
      "stateMutability": "view",
      "type": "function"
    },
    {
      "inputs": [
        {
          "internalType": "address",
          "name": "",
          "type": "address"
        },
        {
          "internalType": "uint256",
          "name": "",
          "type": "uint256"
        }
      ],
      "name": "approversAppoveTransferMap",
      "outputs": [
        {
          "internalType": "bool",
          "name": "",
          "type": "bool"
        }
      ],
      "stateMutability": "view",
      "type": "function"
    },
    {
      "inputs": [
        {
          "internalType": "address",
          "name": "",
          "type": "address"
        }
      ],
      "name": "approversMap",
      "outputs": [
        {
          "internalType": "bool",
          "name": "",
          "type": "bool"
        }
      ],
      "stateMutability": "view",
      "type": "function"
    },
    {
      "inputs": [],
      "name": "quorum",
      "outputs": [
        {
          "internalType": "uint256",
          "name": "",
          "type": "uint256"
        }
      ],
      "stateMutability": "view",
      "type": "function"
    },
    {
      "inputs": [
        {
          "internalType": "uint256",
          "name": "",
          "type": "uint256"
        }
      ],
      "name": "transfers",
      "outputs": [
        {
          "internalType": "uint256",
          "name": "_id",
          "type": "uint256"
        },
        {
          "internalType": "uint256",
          "name": "_amount",
          "type": "uint256"
        },
        {
          "internalType": "address",
          "name": "_from",
          "type": "address"
        },
        {
          "internalType": "address payable",
          "name": "_to",
          "type": "address"
        },
        {
          "internalType": "uint256",
          "name": "_noOfApprovals",
          "type": "uint256"
        },
        {
          "internalType": "bool",
          "name": "_tranferCompleted",
          "type": "bool"
        }
      ],
      "stateMutability": "view",
      "type": "function"
    },
    {
      "inputs": [],
      "name": "walletOwner",
      "outputs": [
        {
          "internalType": "address",
          "name": "",
          "type": "address"
        }
      ],
      "stateMutability": "view",
      "type": "function"
    },
    {
      "stateMutability": "payable",
      "type": "receive"
    },
    {
      "inputs": [
        {
          "internalType": "address payable",
          "name": "_to",
          "type": "address"
        },
        {
          "internalType": "uint256",
          "name": "_amount",
          "type": "uint256"
        }
      ],
      "name": "createTransfer",
      "outputs": [],
      "stateMutability": "nonpayable",
      "type": "function"
    },
    {
      "inputs": [
        {
          "internalType": "uint256",
          "name": "_transferId",
          "type": "uint256"
        }
      ],
      "name": "approveTransfer",
      "outputs": [],
      "stateMutability": "nonpayable",
      "type": "function"
    },
    {
      "inputs": [],
      "name": "balanceOf",
      "outputs": [
        {
          "internalType": "uint256",
          "name": "",
          "type": "uint256"
        }
      ],
      "stateMutability": "view",
      "type": "function"
    },
    {
      "inputs": [],
      "name": "getAllApprovers",
      "outputs": [
        {
          "internalType": "address[]",
          "name": "",
          "type": "address[]"
        }
      ],
      "stateMutability": "view",
      "type": "function"
    },
    {
      "inputs": [],
      "name": "getAllTransfers",
      "outputs": [
        {
          "components": [
            {
              "internalType": "uint256",
              "name": "_id",
              "type": "uint256"
            },
            {
              "internalType": "uint256",
              "name": "_amount",
              "type": "uint256"
            },
            {
              "internalType": "address",
              "name": "_from",
              "type": "address"
            },
            {
              "internalType": "address payable",
              "name": "_to",
              "type": "address"
            },
            {
              "internalType": "uint256",
              "name": "_noOfApprovals",
              "type": "uint256"
            },
            {
              "internalType": "bool",
              "name": "_tranferCompleted",
              "type": "bool"
            }
          ],
          "internalType": "struct MultiSigWallet2.Transfer[]",
          "name": "",
          "type": "tuple[]"
        }
      ],
      "stateMutability": "view",
      "type": "function"
    }
  ],
  "bytecode": "0x60806040523480156200001157600080fd5b5060405162001b1e38038062001b1e8339818101604052810190620000379190620003fb565b806000806101000a81548173ffffffffffffffffffffffffffffffffffffffff021916908373ffffffffffffffffffffffffffffffffffffffff16021790555082600190805190602001906200008f9291906200026b565b508160028190555060008090505b8351811015620001cb576000151560046000868481518110620000bc57fe5b602002602001015173ffffffffffffffffffffffffffffffffffffffff1673ffffffffffffffffffffffffffffffffffffffff16815260200190815260200160002060009054906101000a900460ff1615151462000151576040517f08c379a000000000000000000000000000000000000000000000000000000000815260040162000148906200053a565b60405180910390fd5b6001600460008684815181106200016457fe5b602002602001015173ffffffffffffffffffffffffffffffffffffffff1673ffffffffffffffffffffffffffffffffffffffff16815260200190815260200160002060006101000a81548160ff02191690831515021790555080806001019150506200009d565b5060011515600460008373ffffffffffffffffffffffffffffffffffffffff1673ffffffffffffffffffffffffffffffffffffffff16815260200190815260200160002060009054906101000a900460ff1615151462000262576040517f08c379a000000000000000000000000000000000000000000000000000000000815260040162000259906200055c565b60405180910390fd5b50505062000658565b828054828255906000526020600020908101928215620002e7579160200282015b82811115620002e65782518260006101000a81548173ffffffffffffffffffffffffffffffffffffffff021916908373ffffffffffffffffffffffffffffffffffffffff160217905550916020019190600101906200028c565b5b509050620002f69190620002fa565b5090565b6200033d91905b808211156200033957600081816101000a81549073ffffffffffffffffffffffffffffffffffffffff02191690555060010162000301565b5090565b90565b600081519050620003518162000624565b92915050565b600082601f8301126200036957600080fd5b8151620003806200037a82620005ac565b6200057e565b91508181835260208401935060208101905083856020840282011115620003a657600080fd5b60005b83811015620003da5781620003bf888262000340565b845260208401935060208301925050600181019050620003a9565b5050505092915050565b600081519050620003f5816200063e565b92915050565b6000806000606084860312156200041157600080fd5b600084015167ffffffffffffffff8111156200042c57600080fd5b6200043a8682870162000357565b93505060206200044d86828701620003e4565b9250506040620004608682870162000340565b9150509250925092565b600062000479603183620005d5565b91507f53616d6520616464726573732063616e74206265636f6d6520617070726f766560008301527f72206d756c7469706c652074696d6573210000000000000000000000000000006020830152604082019050919050565b6000620004e1603683620005d5565b91507f596f7520666f72676f7420746f2061646420796f7572206f776e20616464726560008301527f737320746f20617070726f7665727320617272617921000000000000000000006020830152604082019050919050565b6000602082019050818103600083015262000555816200046a565b9050919050565b600060208201905081810360008301526200057781620004d2565b9050919050565b6000604051905081810181811067ffffffffffffffff82111715620005a257600080fd5b8060405250919050565b600067ffffffffffffffff821115620005c457600080fd5b602082029050602081019050919050565b600082825260208201905092915050565b6000620005f382620005fa565b9050919050565b600073ffffffffffffffffffffffffffffffffffffffff82169050919050565b6000819050919050565b6200062f81620005e6565b81146200063b57600080fd5b50565b62000649816200061a565b81146200065557600080fd5b50565b6114b680620006686000396000f3fe6080604052600436106100a05760003560e01c806365d8bf801161006457806365d8bf8014610274578063722713f71461029f5780639377d711146102ca578063c290341d1461030c578063cacca4a014610349578063d3650fb81461037257610188565b80631703a0181461018d5780631ae879e8146101b85780633ac172dd146101e357806354b4aa4a1461020c5780635c2b441e1461023757610188565b366101885760011515600460003373ffffffffffffffffffffffffffffffffffffffff1673ffffffffffffffffffffffffffffffffffffffff16815260200190815260200160002060009054906101000a900460ff16151514610138576040517f08c379a000000000000000000000000000000000000000000000000000000000815260040161012f90611262565b60405180910390fd5b3373ffffffffffffffffffffffffffffffffffffffff167f7d5457e74922781ea8fe6b09f7e70e0788ed0f929f96a30e0fd54e070c57d3753460405161017e91906112e2565b60405180910390a2005b600080fd5b34801561019957600080fd5b506101a26103af565b6040516101af91906112e2565b60405180910390f35b3480156101c457600080fd5b506101cd6103b5565b6040516101da91906111e8565b60405180910390f35b3480156101ef57600080fd5b5061020a60048036038101906102059190610e1c565b6103da565b005b34801561021857600080fd5b50610221610611565b60405161022e9190611225565b60405180910390f35b34801561024357600080fd5b5061025e60048036038101906102599190610df3565b610755565b60405161026b9190611247565b60405180910390f35b34801561028057600080fd5b50610289610775565b6040516102969190611203565b60405180910390f35b3480156102ab57600080fd5b506102b4610803565b6040516102c191906112e2565b60405180910390f35b3480156102d657600080fd5b506102f160048036038101906102ec9190610e94565b61080b565b604051610303969594939291906112fd565b60405180910390f35b34801561031857600080fd5b50610333600480360381019061032e9190610e58565b6108a1565b6040516103409190611247565b60405180910390f35b34801561035557600080fd5b50610370600480360381019061036b9190610e94565b6108d0565b005b34801561037e57600080fd5b5061039960048036038101906103949190610e94565b610d78565b6040516103a691906111e8565b60405180910390f35b60025481565b6000809054906101000a900473ffffffffffffffffffffffffffffffffffffffff1681565b60011515600460003373ffffffffffffffffffffffffffffffffffffffff1673ffffffffffffffffffffffffffffffffffffffff16815260200190815260200160002060009054906101000a900460ff1615151461046d576040517f08c379a000000000000000000000000000000000000000000000000000000000815260040161046490611262565b60405180910390fd5b80804710156104b1576040517f08c379a00000000000000000000000000000000000000000000000000000000081526004016104a890611282565b60405180910390fd5b60036040518060c0016040528060038054905081526020018481526020013373ffffffffffffffffffffffffffffffffffffffff1681526020018573ffffffffffffffffffffffffffffffffffffffff16815260200160008152602001600015158152509080600181540180825580915050600190039060005260206000209060060201600090919091909150600082015181600001556020820151816001015560408201518160020160006101000a81548173ffffffffffffffffffffffffffffffffffffffff021916908373ffffffffffffffffffffffffffffffffffffffff16021790555060608201518160030160006101000a81548173ffffffffffffffffffffffffffffffffffffffff021916908373ffffffffffffffffffffffffffffffffffffffff1602179055506080820151816004015560a08201518160050160006101000a81548160ff0219169083151502179055505050505050565b60606003805480602002602001604051908101604052809291908181526020016000905b8282101561074c57838290600052602060002090600602016040518060c001604052908160008201548152602001600182015481526020016002820160009054906101000a900473ffffffffffffffffffffffffffffffffffffffff1673ffffffffffffffffffffffffffffffffffffffff1673ffffffffffffffffffffffffffffffffffffffff1681526020016003820160009054906101000a900473ffffffffffffffffffffffffffffffffffffffff1673ffffffffffffffffffffffffffffffffffffffff1673ffffffffffffffffffffffffffffffffffffffff168152602001600482015481526020016005820160009054906101000a900460ff16151515158152505081526020019060010190610635565b50505050905090565b60046020528060005260406000206000915054906101000a900460ff1681565b606060018054806020026020016040519081016040528092919081815260200182805480156107f957602002820191906000526020600020905b8160009054906101000a900473ffffffffffffffffffffffffffffffffffffffff1673ffffffffffffffffffffffffffffffffffffffff16815260200190600101908083116107af575b5050505050905090565b600047905090565b6003818154811061081857fe5b90600052602060002090600602016000915090508060000154908060010154908060020160009054906101000a900473ffffffffffffffffffffffffffffffffffffffff16908060030160009054906101000a900473ffffffffffffffffffffffffffffffffffffffff16908060040154908060050160009054906101000a900460ff16905086565b60056020528160005260406000206020528060005260406000206000915091509054906101000a900460ff1681565b60011515600460003373ffffffffffffffffffffffffffffffffffffffff1673ffffffffffffffffffffffffffffffffffffffff16815260200190815260200160002060009054906101000a900460ff16151514610963576040517f08c379a000000000000000000000000000000000000000000000000000000000815260040161095a90611262565b60405180910390fd5b6003818154811061097057fe5b906000526020600020906006020160010154804710156109c5576040517f08c379a00000000000000000000000000000000000000000000000000000000081526004016109bc90611282565b60405180910390fd5b60001515600383815481106109d657fe5b906000526020600020906006020160050160009054906101000a900460ff16151514610a37576040517f08c379a0000000000000000000000000000000000000000000000000000000008152600401610a2e906112c2565b60405180910390fd5b60001515600560003373ffffffffffffffffffffffffffffffffffffffff1673ffffffffffffffffffffffffffffffffffffffff168152602001908152602001600020600084815260200190815260200160002060009054906101000a900460ff16151514610adb576040517f08c379a0000000000000000000000000000000000000000000000000000000008152600401610ad2906112a2565b60405180910390fd5b60038281548110610ae857fe5b9060005260206000209060060201600401600081548092919060010191905055506001600560003373ffffffffffffffffffffffffffffffffffffffff1673ffffffffffffffffffffffffffffffffffffffff168152602001908152602001600020600084815260200190815260200160002060006101000a81548160ff02191690831515021790555060025460038381548110610b8257fe5b90600052602060002090600602016004015410610d7457600160038381548110610ba857fe5b906000526020600020906006020160050160006101000a81548160ff02191690831515021790555060038281548110610bdd57fe5b906000526020600020906006020160030160009054906101000a900473ffffffffffffffffffffffffffffffffffffffff1673ffffffffffffffffffffffffffffffffffffffff166108fc60038481548110610c3557fe5b9060005260206000209060060201600101549081150290604051600060405180830381858888f19350505050158015610c72573d6000803e3d6000fd5b5060038281548110610c8057fe5b906000526020600020906006020160030160009054906101000a900473ffffffffffffffffffffffffffffffffffffffff1673ffffffffffffffffffffffffffffffffffffffff1660038381548110610cd557fe5b906000526020600020906006020160020160009054906101000a900473ffffffffffffffffffffffffffffffffffffffff1673ffffffffffffffffffffffffffffffffffffffff16837f0c42533a821580a4793536ce97ea52a70f7ffcc66a675e9f9a47e4f63914586c60038681548110610d4c57fe5b906000526020600020906006020160010154604051610d6b91906112e2565b60405180910390a45b5050565b60018181548110610d8557fe5b906000526020600020016000915054906101000a900473ffffffffffffffffffffffffffffffffffffffff1681565b600081359050610dc38161143b565b92915050565b600081359050610dd881611452565b92915050565b600081359050610ded81611469565b92915050565b600060208284031215610e0557600080fd5b6000610e1384828501610db4565b91505092915050565b60008060408385031215610e2f57600080fd5b6000610e3d85828601610dc9565b9250506020610e4e85828601610dde565b9150509250929050565b60008060408385031215610e6b57600080fd5b6000610e7985828601610db4565b9250506020610e8a85828601610dde565b9150509250929050565b600060208284031215610ea657600080fd5b6000610eb484828501610dde565b91505092915050565b6000610ec98383610f0b565b60208301905092915050565b6000610ee1838361114f565b60c08301905092915050565b610ef6816113f3565b82525050565b610f05816113f3565b82525050565b610f14816113e1565b82525050565b610f23816113e1565b82525050565b6000610f348261137e565b610f3e81856113ae565b9350610f498361135e565b8060005b83811015610f7a578151610f618882610ebd565b9750610f6c83611394565b925050600181019050610f4d565b5085935050505092915050565b6000610f9282611389565b610f9c81856113bf565b9350610fa78361136e565b8060005b83811015610fd8578151610fbf8882610ed5565b9750610fca836113a1565b925050600181019050610fab565b5085935050505092915050565b610fee81611405565b82525050565b610ffd81611405565b82525050565b60006110106017836113d0565b91507f43616c6c6572206973206e6f7420617070726f766572210000000000000000006000830152602082019050919050565b6000611050602d836113d0565b91507f54686520636f6e747261637420686173206e6f742073756666656369656e742060008301527f62616c616e6365206c65667421000000000000000000000000000000000000006020830152604082019050919050565b60006110b66028836113d0565b91507f596f75206861766520616c726561647920617070726f7665642074686973207460008301527f72616e73666572210000000000000000000000000000000000000000000000006020830152604082019050919050565b600061111c601f836113d0565b91507f5472616e736665722068617320616c7265616479206265656e2073656e7421006000830152602082019050919050565b60c08201600082015161116560008501826111ca565b50602082015161117860208501826111ca565b50604082015161118b6040850182610f0b565b50606082015161119e6060850182610eed565b5060808201516111b160808501826111ca565b5060a08201516111c460a0850182610fe5565b50505050565b6111d381611431565b82525050565b6111e281611431565b82525050565b60006020820190506111fd6000830184610f1a565b92915050565b6000602082019050818103600083015261121d8184610f29565b905092915050565b6000602082019050818103600083015261123f8184610f87565b905092915050565b600060208201905061125c6000830184610ff4565b92915050565b6000602082019050818103600083015261127b81611003565b9050919050565b6000602082019050818103600083015261129b81611043565b9050919050565b600060208201905081810360008301526112bb816110a9565b9050919050565b600060208201905081810360008301526112db8161110f565b9050919050565b60006020820190506112f760008301846111d9565b92915050565b600060c08201905061131260008301896111d9565b61131f60208301886111d9565b61132c6040830187610f1a565b6113396060830186610efc565b61134660808301856111d9565b61135360a0830184610ff4565b979650505050505050565b6000819050602082019050919050565b6000819050602082019050919050565b600081519050919050565b600081519050919050565b6000602082019050919050565b6000602082019050919050565b600082825260208201905092915050565b600082825260208201905092915050565b600082825260208201905092915050565b60006113ec82611411565b9050919050565b60006113fe82611411565b9050919050565b60008115159050919050565b600073ffffffffffffffffffffffffffffffffffffffff82169050919050565b6000819050919050565b611444816113e1565b811461144f57600080fd5b50565b61145b816113f3565b811461146657600080fd5b50565b61147281611431565b811461147d57600080fd5b5056fea2646970667358221220bd9a6d9e2275ffebf74ba4e0acd576a539609d9ac5434c517b1abc6f7ef1793164736f6c63430006060033",
  "immutableReferences": {},
  "source": "// SPDX-License-Identifier:MIT\npragma solidity >=0.6.0 <0.7.0;\npragma experimental ABIEncoderV2;\n\ncontract Factory2 {\n    address public factoryOwner;\n    address[] private walletAddresses;\n\n    constructor() public {\n        factoryOwner = msg.sender;\n    }\n\n    function createMultiSigWallet(\n        address[] calldata _approvers,\n        uint256 _quorum\n    ) external {\n        require(\n            _quorum <= _approvers.length,\n            \"quorum should be less than or equal to the no of approvers\"\n        );\n        MultiSigWallet2 newWallet = new MultiSigWallet2(\n            _approvers,\n            _quorum,\n            msg.sender\n        );\n\n        walletAddresses.push(address(newWallet));\n    }\n\n    function getAllWalletAddress() external view returns (address[] memory) {\n        return walletAddresses;\n    }\n}\n\ncontract MultiSigWallet2 {\n    address public walletOwner;\n    address[] public approvers;\n    uint256 public quorum;\n\n    struct Transfer {\n        uint256 _id;\n        uint256 _amount;\n        address _from;\n        address payable _to;\n        uint256 _noOfApprovals;\n        bool _tranferCompleted;\n    }\n    Transfer[] public transfers;\n\n    mapping(address => bool) public approversMap;\n\n    mapping(address => mapping(uint256 => bool))\n        public approversAppoveTransferMap;\n\n    event DepositeEvent(address indexed, uint256);\n    event TransferEvent(\n        uint256 indexed,\n        address indexed,\n        address indexed,\n        uint256\n    );\n\n    constructor(\n        address[] memory _approvers,\n        uint256 _quorum,\n        address _owner\n    ) public {\n        walletOwner = _owner;\n        approvers = _approvers;\n        quorum = _quorum;\n\n        for (uint256 i = 0; i < _approvers.length; i++) {\n            require(\n                approversMap[_approvers[i]] == false,\n                \"Same address cant become approver multiple times!\"\n            );\n            approversMap[_approvers[i]] = true;\n        }\n\n        require(\n            approversMap[_owner] == true,\n            \"You forgot to add your own address to approvers array!\"\n        );\n    }\n\n    function createTransfer(address payable _to, uint256 _amount)\n        external\n        isApprover\n        haveBalance(_amount)\n    {\n        transfers.push(\n            Transfer(transfers.length, _amount, msg.sender, _to, 0, false)\n        );\n    }\n\n    function approveTransfer(uint256 _transferId)\n        external\n        isApprover\n        haveBalance(transfers[_transferId]._amount)\n    {\n        require(\n            transfers[_transferId]._tranferCompleted == false,\n            \"Transfer has already been sent!\"\n        );\n        require(\n            approversAppoveTransferMap[msg.sender][_transferId] == false,\n            \"You have already approved this transfer!\"\n        );\n\n        transfers[_transferId]._noOfApprovals++;\n        approversAppoveTransferMap[msg.sender][_transferId] = true;\n\n        if (transfers[_transferId]._noOfApprovals >= quorum) {\n            transfers[_transferId]._tranferCompleted = true;\n            transfers[_transferId]._to.transfer(transfers[_transferId]._amount);\n            emit TransferEvent(\n                _transferId,\n                transfers[_transferId]._from,\n                transfers[_transferId]._to,\n                transfers[_transferId]._amount\n            );\n        }\n    }\n\n    function balanceOf() external view returns (uint256) {\n        return address(this).balance;\n    }\n\n    function getAllApprovers() external view returns (address[] memory) {\n        return approvers;\n    }\n\n    function getAllTransfers() external view returns (Transfer[] memory) {\n        return transfers;\n    }\n\n    modifier isApprover() {\n        require(approversMap[msg.sender] == true, \"Caller is not approver!\");\n        _;\n    }\n\n    modifier haveBalance(uint256 _amount) {\n        require(\n            address(this).balance >= _amount,\n            \"The contract has not suffecient balance left!\"\n        );\n        _;\n    }\n\n    receive() external payable isApprover {\n        emit DepositeEvent(msg.sender, msg.value);\n    }\n}\n",
  "sourcePath": "/home/dante/Iris/Study/Projects/Dapp30/day13_miltiSigWallet/contracts/MultiSigWallet2.sol",
  "compiler": {
    "name": "solc",
    "version": "0.6.6+commit.6c089d02.Emscripten.clang"
  },
  "schemaVersion": "3.2.3",
  "updatedAt": "2020-08-11T06:41:32.233Z",
  "devdoc": {
    "methods": {}
  },
  "userdoc": {
    "methods": {}
  }
}