{
  "contractName": "SplitPayment",
  "abi": [
    {
      "inputs": [],
      "stateMutability": "nonpayable",
      "type": "constructor"
    },
    {
      "anonymous": false,
      "inputs": [
        {
          "indexed": true,
          "internalType": "address",
          "name": "_from",
          "type": "address"
        },
        {
          "indexed": false,
          "internalType": "uint256",
          "name": "_amount",
          "type": "uint256"
        }
      ],
      "name": "Deposite",
      "type": "event"
    },
    {
      "anonymous": false,
      "inputs": [
        {
          "indexed": true,
          "internalType": "address",
          "name": "_to",
          "type": "address"
        },
        {
          "indexed": false,
          "internalType": "uint256",
          "name": "_amount",
          "type": "uint256"
        }
      ],
      "name": "Transfer",
      "type": "event"
    },
    {
      "inputs": [],
      "name": "owner",
      "outputs": [
        {
          "internalType": "address",
          "name": "",
          "type": "address"
        }
      ],
      "stateMutability": "view",
      "type": "function",
      "constant": true
    },
    {
      "stateMutability": "payable",
      "type": "receive",
      "payable": true
    },
    {
      "inputs": [],
      "name": "balanceOf",
      "outputs": [
        {
          "internalType": "uint256",
          "name": "",
          "type": "uint256"
        }
      ],
      "stateMutability": "view",
      "type": "function",
      "constant": true
    },
    {
      "inputs": [
        {
          "internalType": "address payable[]",
          "name": "_to",
          "type": "address[]"
        },
        {
          "internalType": "uint256[]",
          "name": "_amount",
          "type": "uint256[]"
        }
      ],
      "name": "transfer",
      "outputs": [],
      "stateMutability": "nonpayable",
      "type": "function"
    }
  ],
  "bytecode": "0x608060405234801561001057600080fd5b50336000806101000a81548173ffffffffffffffffffffffffffffffffffffffff021916908373ffffffffffffffffffffffffffffffffffffffff160217905550610587806100606000396000f3fe6080604052600436106100385760003560e01c8063722713f7146100925780638da5cb5b146100bd578063ffc3a769146101145761008d565b3661008d573373ffffffffffffffffffffffffffffffffffffffff167f67d0e209d76ed24370106b1fd0fc1c82de411f7b72ba3d92736b75fe4add443a346040518082815260200191505060405180910390a2005b600080fd5b34801561009e57600080fd5b506100a76101ef565b6040518082815260200191505060405180910390f35b3480156100c957600080fd5b506100d26101f7565b604051808273ffffffffffffffffffffffffffffffffffffffff1673ffffffffffffffffffffffffffffffffffffffff16815260200191505060405180910390f35b34801561012057600080fd5b506101ed6004803603604081101561013757600080fd5b810190808035906020019064010000000081111561015457600080fd5b82018360208201111561016657600080fd5b8035906020019184602083028401116401000000008311171561018857600080fd5b9091929391929390803590602001906401000000008111156101a957600080fd5b8201836020820111156101bb57600080fd5b803590602001918460208302840111640100000000831117156101dd57600080fd5b909192939192939050505061021c565b005b600047905090565b6000809054906101000a900473ffffffffffffffffffffffffffffffffffffffff1681565b6000809054906101000a900473ffffffffffffffffffffffffffffffffffffffff1673ffffffffffffffffffffffffffffffffffffffff163373ffffffffffffffffffffffffffffffffffffffff16146102de576040517f08c379a00000000000000000000000000000000000000000000000000000000081526004018080602001828103825260138152602001807f43616c6c6572206973206e6f74206f776e65720000000000000000000000000081525060200191505060405180910390fd5b81819050848490501461033c576040517f08c379a00000000000000000000000000000000000000000000000000000000081526004018080602001828103825260298152602001806105296029913960400191505060405180910390fd5b600080600090505b838390508110156103735783838281811061035b57fe5b90506020020135820191508080600101915050610344565b50478111156103cd576040517f08c379a000000000000000000000000000000000000000000000000000000000815260040180806020018281038252602c8152602001806104fd602c913960400191505060405180910390fd5b60008090505b858590508110156104f4578585828181106103ea57fe5b9050602002013573ffffffffffffffffffffffffffffffffffffffff1673ffffffffffffffffffffffffffffffffffffffff166108fc85858481811061042c57fe5b905060200201359081150290604051600060405180830381858888f1935050505015801561045e573d6000803e3d6000fd5b5085858281811061046b57fe5b9050602002013573ffffffffffffffffffffffffffffffffffffffff1673ffffffffffffffffffffffffffffffffffffffff167f69ca02dd4edd7bf0a4abb9ed3b7af3f14778db5d61921c7dc7cd545266326de28585848181106104cb57fe5b905060200201356040518082815260200191505060405180910390a280806001019150506103d3565b50505050505056fe4e6f7420656e6f7567682066756e647320746f2070726f636573732065616368207472616e73616374696f6e546f20616e6420616d6f756e74206172726179206d75737420686176652073616d65206c656e677468a26469706673582212209cdb3bf01dc45232cc2c1e58d91b68e2f555d7e6cee3291abca2b9a3112ea0d064736f6c63430006000033",
  "source": "// SPDX-License-Identifier: MIT\npragma solidity >=0.6.0 <0.7.0;\n\ncontract SplitPayment {\n    address public owner;\n    event Deposite(address indexed _from, uint256 _amount);\n    event Transfer(address indexed _to, uint256 _amount);\n\n    constructor() public {\n        owner = msg.sender;\n    }\n\n    modifier onlyOwner() {\n        require(msg.sender == owner, \"Caller is not owner\");\n        _;\n    }\n\n    receive() external payable {\n        emit Deposite(msg.sender, msg.value);\n    }\n\n    function balanceOf() external view returns (uint256) {\n        return address(this).balance;\n    }\n\n    function transfer(\n        address payable[] calldata _to,\n        uint256[] calldata _amount\n    ) external onlyOwner() {\n        require(\n            _to.length == _amount.length,\n            \"To and amount array must have same length\"\n        );\n\n        uint256 _totalAmount;\n        for (uint256 i = 0; i < _amount.length; i++) {\n            _totalAmount += _amount[i];\n        }\n        require(\n            _totalAmount <= address(this).balance,\n            \"Not enough funds to process each transaction\"\n        );\n\n        for (uint256 i = 0; i < _to.length; i++) {\n            _to[i].transfer(_amount[i]);\n            emit Transfer(_to[i], _amount[i]);\n        }\n    }\n}\n",
  "sourcePath": "/home/dante/Iris/Study/Projects/Dapp30/day7_split_payment/contracts/SplitPayment.sol",
  "compiler": {
    "name": "solc",
    "version": "0.6.0+commit.26b70077.Emscripten.clang"
  },
  "schemaVersion": "3.2.0",
  "updatedAt": "2020-07-25T00:26:50.942Z",
  "networkType": "ethereum",
  "devdoc": {
    "methods": {}
  },
  "userdoc": {
    "methods": {}
  }
}