{
  "contractName": "Dex",
  "abi": [
    {
      "inputs": [],
      "stateMutability": "nonpayable",
      "type": "constructor"
    },
    {
      "anonymous": false,
      "inputs": [
        {
          "indexed": false,
          "internalType": "uint256",
          "name": "tradeId",
          "type": "uint256"
        },
        {
          "indexed": false,
          "internalType": "uint256",
          "name": "orderId",
          "type": "uint256"
        },
        {
          "indexed": true,
          "internalType": "bytes32",
          "name": "ticker",
          "type": "bytes32"
        },
        {
          "indexed": true,
          "internalType": "address",
          "name": "trader1",
          "type": "address"
        },
        {
          "indexed": true,
          "internalType": "address",
          "name": "trader2",
          "type": "address"
        },
        {
          "indexed": false,
          "internalType": "uint256",
          "name": "amount",
          "type": "uint256"
        },
        {
          "indexed": false,
          "internalType": "uint256",
          "name": "price",
          "type": "uint256"
        },
        {
          "indexed": false,
          "internalType": "uint256",
          "name": "date",
          "type": "uint256"
        }
      ],
      "name": "NewTrade",
      "type": "event"
    },
    {
      "inputs": [],
      "name": "admin",
      "outputs": [
        {
          "internalType": "address",
          "name": "",
          "type": "address"
        }
      ],
      "stateMutability": "view",
      "type": "function",
      "constant": true
    },
    {
      "inputs": [],
      "name": "nextOrderId",
      "outputs": [
        {
          "internalType": "uint256",
          "name": "",
          "type": "uint256"
        }
      ],
      "stateMutability": "view",
      "type": "function",
      "constant": true
    },
    {
      "inputs": [],
      "name": "nextTradeId",
      "outputs": [
        {
          "internalType": "uint256",
          "name": "",
          "type": "uint256"
        }
      ],
      "stateMutability": "view",
      "type": "function",
      "constant": true
    },
    {
      "inputs": [
        {
          "internalType": "bytes32",
          "name": "",
          "type": "bytes32"
        },
        {
          "internalType": "uint256",
          "name": "",
          "type": "uint256"
        },
        {
          "internalType": "uint256",
          "name": "",
          "type": "uint256"
        }
      ],
      "name": "orderBook",
      "outputs": [
        {
          "internalType": "uint256",
          "name": "id",
          "type": "uint256"
        },
        {
          "internalType": "address",
          "name": "trader",
          "type": "address"
        },
        {
          "internalType": "bytes32",
          "name": "ticker",
          "type": "bytes32"
        },
        {
          "internalType": "enum Dex.OrderType",
          "name": "orderType",
          "type": "uint8"
        },
        {
          "internalType": "uint256",
          "name": "amount",
          "type": "uint256"
        },
        {
          "internalType": "uint256",
          "name": "filled",
          "type": "uint256"
        },
        {
          "internalType": "uint256",
          "name": "price",
          "type": "uint256"
        },
        {
          "internalType": "uint256",
          "name": "date",
          "type": "uint256"
        }
      ],
      "stateMutability": "view",
      "type": "function",
      "constant": true
    },
    {
      "inputs": [
        {
          "internalType": "uint256",
          "name": "",
          "type": "uint256"
        }
      ],
      "name": "tokenList",
      "outputs": [
        {
          "internalType": "bytes32",
          "name": "",
          "type": "bytes32"
        }
      ],
      "stateMutability": "view",
      "type": "function",
      "constant": true
    },
    {
      "inputs": [
        {
          "internalType": "bytes32",
          "name": "",
          "type": "bytes32"
        }
      ],
      "name": "tokens",
      "outputs": [
        {
          "internalType": "bytes32",
          "name": "ticker",
          "type": "bytes32"
        },
        {
          "internalType": "address",
          "name": "tokenAddress",
          "type": "address"
        }
      ],
      "stateMutability": "view",
      "type": "function",
      "constant": true
    },
    {
      "inputs": [
        {
          "internalType": "address",
          "name": "",
          "type": "address"
        },
        {
          "internalType": "bytes32",
          "name": "",
          "type": "bytes32"
        }
      ],
      "name": "traderBalances",
      "outputs": [
        {
          "internalType": "uint256",
          "name": "",
          "type": "uint256"
        }
      ],
      "stateMutability": "view",
      "type": "function",
      "constant": true
    },
    {
      "inputs": [
        {
          "internalType": "bytes32",
          "name": "_ticker",
          "type": "bytes32"
        },
        {
          "internalType": "enum Dex.OrderType",
          "name": "_orderType",
          "type": "uint8"
        }
      ],
      "name": "getOrders",
      "outputs": [
        {
          "components": [
            {
              "internalType": "uint256",
              "name": "id",
              "type": "uint256"
            },
            {
              "internalType": "address",
              "name": "trader",
              "type": "address"
            },
            {
              "internalType": "bytes32",
              "name": "ticker",
              "type": "bytes32"
            },
            {
              "internalType": "enum Dex.OrderType",
              "name": "orderType",
              "type": "uint8"
            },
            {
              "internalType": "uint256",
              "name": "amount",
              "type": "uint256"
            },
            {
              "internalType": "uint256",
              "name": "filled",
              "type": "uint256"
            },
            {
              "internalType": "uint256",
              "name": "price",
              "type": "uint256"
            },
            {
              "internalType": "uint256",
              "name": "date",
              "type": "uint256"
            }
          ],
          "internalType": "struct Dex.Order[]",
          "name": "",
          "type": "tuple[]"
        }
      ],
      "stateMutability": "view",
      "type": "function",
      "constant": true
    },
    {
      "inputs": [],
      "name": "getTokens",
      "outputs": [
        {
          "components": [
            {
              "internalType": "bytes32",
              "name": "ticker",
              "type": "bytes32"
            },
            {
              "internalType": "address",
              "name": "tokenAddress",
              "type": "address"
            }
          ],
          "internalType": "struct Dex.Token[]",
          "name": "",
          "type": "tuple[]"
        }
      ],
      "stateMutability": "view",
      "type": "function",
      "constant": true
    },
    {
      "inputs": [
        {
          "internalType": "bytes32",
          "name": "_ticker",
          "type": "bytes32"
        },
        {
          "internalType": "address",
          "name": "_tokenAddress",
          "type": "address"
        }
      ],
      "name": "addToken",
      "outputs": [],
      "stateMutability": "nonpayable",
      "type": "function"
    },
    {
      "inputs": [
        {
          "internalType": "bytes32",
          "name": "_ticker",
          "type": "bytes32"
        },
        {
          "internalType": "uint256",
          "name": "_amount",
          "type": "uint256"
        }
      ],
      "name": "deposit",
      "outputs": [],
      "stateMutability": "nonpayable",
      "type": "function"
    },
    {
      "inputs": [
        {
          "internalType": "bytes32",
          "name": "_ticker",
          "type": "bytes32"
        },
        {
          "internalType": "uint256",
          "name": "_amount",
          "type": "uint256"
        }
      ],
      "name": "withdraw",
      "outputs": [],
      "stateMutability": "nonpayable",
      "type": "function"
    },
    {
      "inputs": [
        {
          "internalType": "bytes32",
          "name": "_ticker",
          "type": "bytes32"
        },
        {
          "internalType": "uint256",
          "name": "_amount",
          "type": "uint256"
        },
        {
          "internalType": "uint256",
          "name": "_price",
          "type": "uint256"
        },
        {
          "internalType": "enum Dex.OrderType",
          "name": "_orderType",
          "type": "uint8"
        }
      ],
      "name": "createLimitOrder",
      "outputs": [],
      "stateMutability": "nonpayable",
      "type": "function"
    },
    {
      "inputs": [
        {
          "internalType": "bytes32",
          "name": "_ticker",
          "type": "bytes32"
        },
        {
          "internalType": "uint256",
          "name": "_amount",
          "type": "uint256"
        },
        {
          "internalType": "enum Dex.OrderType",
          "name": "_orderType",
          "type": "uint8"
        }
      ],
      "name": "createMarketOrder",
      "outputs": [],
      "stateMutability": "nonpayable",
      "type": "function"
    }
  ],
  "bytecode": "0x608060405234801561001057600080fd5b5033600660006101000a81548173ffffffffffffffffffffffffffffffffffffffff021916908373ffffffffffffffffffffffffffffffffffffffff1602179055506134cf806100616000396000f3fe608060405234801561001057600080fd5b50600436106100ea5760003560e01c8063813ad0831161008c5780639ead7222116100665780639ead722214610263578063aa6ca80814610293578063d9c0c950146102b1578063f851a440146102cd576100ea565b8063813ad083146101f8578063904194a3146102165780639776aacf14610247576100ea565b80632a58b330116100c85780632a58b3301461015e57806346e9658b1461017c57806372ce957e146101ac5780637f2c6246146101dc576100ea565b8063040cf020146100ef5780630bb431b61461010b5780631de26e1614610142575b600080fd5b610109600480360361010491908101906128da565b6102eb565b005b61012560048036036101209190810190612965565b6105a3565b6040516101399897969594939291906131d0565b60405180910390f35b61015c600480360361015791908101906128da565b61063f565b005b610166610866565b60405161017391906131b5565b60405180910390f35b6101966004803603610191919081019061289e565b61086c565b6040516101a39190612feb565b60405180910390f35b6101c660048036036101c191908101906127d4565b6109bb565b6040516101d391906131b5565b60405180910390f35b6101f660048036036101f19190810190612916565b6109e0565b005b610200611a84565b60405161020d91906131b5565b60405180910390f35b610230600480360361022b9190810190612839565b611a8a565b60405161023e92919061304a565b60405180910390f35b610261600480360361025c9190810190612862565b611ace565b005b61027d60048036036102789190810190612a17565b611c1c565b60405161028a919061302f565b60405180910390f35b61029b611c3d565b6040516102a8919061300d565b60405180910390f35b6102cb60048036036102c691908101906129b4565b611d64565b005b6102d561253f565b6040516102e29190612f70565b60405180910390f35b81600073ffffffffffffffffffffffffffffffffffffffff1660008083815260200190815260200160002060010160009054906101000a900473ffffffffffffffffffffffffffffffffffffffff1673ffffffffffffffffffffffffffffffffffffffff161415610391576040517f08c379a000000000000000000000000000000000000000000000000000000000815260040161038890613115565b60405180910390fd5b81600160003373ffffffffffffffffffffffffffffffffffffffff1673ffffffffffffffffffffffffffffffffffffffff1681526020019081526020016000206000858152602001908152602001600020541015610424576040517f08c379a000000000000000000000000000000000000000000000000000000000815260040161041b906130f5565b60405180910390fd5b61048782600160003373ffffffffffffffffffffffffffffffffffffffff1673ffffffffffffffffffffffffffffffffffffffff16815260200190815260200160002060008681526020019081526020016000205461256590919063ffffffff16565b600160003373ffffffffffffffffffffffffffffffffffffffff1673ffffffffffffffffffffffffffffffffffffffff16815260200190815260200160002060008581526020019081526020016000208190555060008084815260200190815260200160002060010160009054906101000a900473ffffffffffffffffffffffffffffffffffffffff1673ffffffffffffffffffffffffffffffffffffffff1663a9059cbb33846040518363ffffffff1660e01b815260040161054b929190612fc2565b602060405180830381600087803b15801561056557600080fd5b505af1158015610579573d6000803e3d6000fd5b505050506040513d601f19601f8201168201806040525061059d9190810190612810565b50505050565b600360205282600052604060002060205281600052604060002081815481106105c857fe5b906000526020600020906008020160009250925050508060000154908060010160009054906101000a900473ffffffffffffffffffffffffffffffffffffffff16908060020154908060030160009054906101000a900460ff16908060040154908060050154908060060154908060070154905088565b81600073ffffffffffffffffffffffffffffffffffffffff1660008083815260200190815260200160002060010160009054906101000a900473ffffffffffffffffffffffffffffffffffffffff1673ffffffffffffffffffffffffffffffffffffffff1614156106e5576040517f08c379a00000000000000000000000000000000000000000000000000000000081526004016106dc90613115565b60405180910390fd5b60008084815260200190815260200160002060010160009054906101000a900473ffffffffffffffffffffffffffffffffffffffff1673ffffffffffffffffffffffffffffffffffffffff166323b872dd3330856040518463ffffffff1660e01b815260040161075793929190612f8b565b602060405180830381600087803b15801561077157600080fd5b505af1158015610785573d6000803e3d6000fd5b505050506040513d601f19601f820116820180604052506107a99190810190612810565b5061080d82600160003373ffffffffffffffffffffffffffffffffffffffff1673ffffffffffffffffffffffffffffffffffffffff1681526020019081526020016000206000868152602001908152602001600020546125af90919063ffffffff16565b600160003373ffffffffffffffffffffffffffffffffffffffff1673ffffffffffffffffffffffffffffffffffffffff168152602001908152602001600020600085815260200190815260200160002081905550505050565b60045481565b606060036000848152602001908152602001600020600083600181111561088f57fe5b8152602001908152602001600020805480602002602001604051908101604052809291908181526020016000905b828210156109af578382906000526020600020906008020160405180610100016040529081600082015481526020016001820160009054906101000a900473ffffffffffffffffffffffffffffffffffffffff1673ffffffffffffffffffffffffffffffffffffffff1673ffffffffffffffffffffffffffffffffffffffff168152602001600282015481526020016003820160009054906101000a900460ff16600181111561096957fe5b600181111561097457fe5b8152602001600482015481526020016005820154815260200160068201548152602001600782015481525050815260200190600101906108bd565b50505050905092915050565b6001602052816000526040600020602052806000526040600020600091509150505481565b82600073ffffffffffffffffffffffffffffffffffffffff1660008083815260200190815260200160002060010160009054906101000a900473ffffffffffffffffffffffffffffffffffffffff1673ffffffffffffffffffffffffffffffffffffffff161415610a86576040517f08c379a0000000000000000000000000000000000000000000000000000000008152600401610a7d90613115565b60405180910390fd5b837f4441490000000000000000000000000000000000000000000000000000000000811415610aea576040517f08c379a0000000000000000000000000000000000000000000000000000000008152600401610ae190613175565b60405180910390fd5b600180811115610af657fe5b836001811115610b0257fe5b1415610b9c5783600160003373ffffffffffffffffffffffffffffffffffffffff1673ffffffffffffffffffffffffffffffffffffffff1681526020019081526020016000206000878152602001908152602001600020541015610b9b576040517f08c379a0000000000000000000000000000000000000000000000000000000008152600401610b92906130d5565b60405180910390fd5b5b6000600360008781526020019081526020016000206000806001811115610bbf57fe5b866001811115610bcb57fe5b14610bd7576000610bda565b60015b6001811115610be557fe5b815260200190815260200160002090506000808690505b828054905082108015610c0f5750600081115b15611853576000838381548110610c2257fe5b906000526020600020906008020160050154848481548110610c4057fe5b9060005260206000209060080201600401540390506000818311610c645782610c66565b815b9050610c7b818461256590919063ffffffff16565b9250610cad81868681548110610c8d57fe5b9060005260206000209060080201600501546125af90919063ffffffff16565b858581548110610cb957fe5b9060005260206000209060080201600501819055503373ffffffffffffffffffffffffffffffffffffffff16858581548110610cf157fe5b906000526020600020906008020160010160009054906101000a900473ffffffffffffffffffffffffffffffffffffffff1673ffffffffffffffffffffffffffffffffffffffff168b7fdb0c486e680ba8026643e6a85f8d157b5e7bcd4b32b54d564542570a9eb20416600554898981548110610d6a57fe5b906000526020600020906008020160000154868b8b81548110610d8957fe5b90600052602060002090600802016006015442604051610dad95949392919061324e565b60405180910390a4600180811115610dc157fe5b886001811115610dcd57fe5b141561128257610e3681600160003373ffffffffffffffffffffffffffffffffffffffff1673ffffffffffffffffffffffffffffffffffffffff16815260200190815260200160002060008d81526020019081526020016000205461256590919063ffffffff16565b600160003373ffffffffffffffffffffffffffffffffffffffff1673ffffffffffffffffffffffffffffffffffffffff16815260200190815260200160002060008c815260200190815260200160002081905550610f3c610ebd868681548110610e9c57fe5b9060005260206000209060080201600601548361260490919063ffffffff16565b600160003373ffffffffffffffffffffffffffffffffffffffff1673ffffffffffffffffffffffffffffffffffffffff16815260200190815260200160002060007f44414900000000000000000000000000000000000000000000000000000000008152602001908152602001600020546125af90919063ffffffff16565b600160003373ffffffffffffffffffffffffffffffffffffffff1673ffffffffffffffffffffffffffffffffffffffff16815260200190815260200160002060007f44414900000000000000000000000000000000000000000000000000000000008152602001908152602001600020819055506110508160016000888881548110610fc457fe5b906000526020600020906008020160010160009054906101000a900473ffffffffffffffffffffffffffffffffffffffff1673ffffffffffffffffffffffffffffffffffffffff1673ffffffffffffffffffffffffffffffffffffffff16815260200190815260200160002060008d8152602001908152602001600020546125af90919063ffffffff16565b6001600087878154811061106057fe5b906000526020600020906008020160010160009054906101000a900473ffffffffffffffffffffffffffffffffffffffff1673ffffffffffffffffffffffffffffffffffffffff1673ffffffffffffffffffffffffffffffffffffffff16815260200190815260200160002060008c8152602001908152602001600020819055506111d06111148686815481106110f357fe5b9060005260206000209060080201600601548361260490919063ffffffff16565b6001600088888154811061112457fe5b906000526020600020906008020160010160009054906101000a900473ffffffffffffffffffffffffffffffffffffffff1673ffffffffffffffffffffffffffffffffffffffff1673ffffffffffffffffffffffffffffffffffffffff16815260200190815260200160002060007f444149000000000000000000000000000000000000000000000000000000000081526020019081526020016000205461256590919063ffffffff16565b600160008787815481106111e057fe5b906000526020600020906008020160010160009054906101000a900473ffffffffffffffffffffffffffffffffffffffff1673ffffffffffffffffffffffffffffffffffffffff1673ffffffffffffffffffffffffffffffffffffffff16815260200190815260200160002060007f44414900000000000000000000000000000000000000000000000000000000008152602001908152602001600020819055505b6000600181111561128f57fe5b88600181111561129b57fe5b1415611832576112d18585815481106112b057fe5b9060005260206000209060080201600601548261260490919063ffffffff16565b600160003373ffffffffffffffffffffffffffffffffffffffff1673ffffffffffffffffffffffffffffffffffffffff16815260200190815260200160002060007f44414900000000000000000000000000000000000000000000000000000000008152602001908152602001600020541015611383576040517f08c379a000000000000000000000000000000000000000000000000000000000815260040161137a90613195565b60405180910390fd5b6113e681600160003373ffffffffffffffffffffffffffffffffffffffff1673ffffffffffffffffffffffffffffffffffffffff16815260200190815260200160002060008d8152602001908152602001600020546125af90919063ffffffff16565b600160003373ffffffffffffffffffffffffffffffffffffffff1673ffffffffffffffffffffffffffffffffffffffff16815260200190815260200160002060008c8152602001908152602001600020819055506114ec61146d86868154811061144c57fe5b9060005260206000209060080201600601548361260490919063ffffffff16565b600160003373ffffffffffffffffffffffffffffffffffffffff1673ffffffffffffffffffffffffffffffffffffffff16815260200190815260200160002060007f444149000000000000000000000000000000000000000000000000000000000081526020019081526020016000205461256590919063ffffffff16565b600160003373ffffffffffffffffffffffffffffffffffffffff1673ffffffffffffffffffffffffffffffffffffffff16815260200190815260200160002060007f4441490000000000000000000000000000000000000000000000000000000000815260200190815260200160002081905550611600816001600088888154811061157457fe5b906000526020600020906008020160010160009054906101000a900473ffffffffffffffffffffffffffffffffffffffff1673ffffffffffffffffffffffffffffffffffffffff1673ffffffffffffffffffffffffffffffffffffffff16815260200190815260200160002060008d81526020019081526020016000205461256590919063ffffffff16565b6001600087878154811061161057fe5b906000526020600020906008020160010160009054906101000a900473ffffffffffffffffffffffffffffffffffffffff1673ffffffffffffffffffffffffffffffffffffffff1673ffffffffffffffffffffffffffffffffffffffff16815260200190815260200160002060008c8152602001908152602001600020819055506117806116c48686815481106116a357fe5b9060005260206000209060080201600601548361260490919063ffffffff16565b600160008888815481106116d457fe5b906000526020600020906008020160010160009054906101000a900473ffffffffffffffffffffffffffffffffffffffff1673ffffffffffffffffffffffffffffffffffffffff1673ffffffffffffffffffffffffffffffffffffffff16815260200190815260200160002060007f44414900000000000000000000000000000000000000000000000000000000008152602001908152602001600020546125af90919063ffffffff16565b6001600087878154811061179057fe5b906000526020600020906008020160010160009054906101000a900473ffffffffffffffffffffffffffffffffffffffff1673ffffffffffffffffffffffffffffffffffffffff1673ffffffffffffffffffffffffffffffffffffffff16815260200190815260200160002060007f44414900000000000000000000000000000000000000000000000000000000008152602001908152602001600020819055505b60056000815480929190600101919050555083806001019450505050610bfc565b600091505b8280549050821080156118a4575082828154811061187257fe5b90600052602060002090600802016004015483838154811061189057fe5b906000526020600020906008020160050154145b15611a7a5760008290505b60018480549050038110156119de578360018201815481106118cd57fe5b90600052602060002090600802018482815481106118e757fe5b9060005260206000209060080201600082015481600001556001820160009054906101000a900473ffffffffffffffffffffffffffffffffffffffff168160010160006101000a81548173ffffffffffffffffffffffffffffffffffffffff021916908373ffffffffffffffffffffffffffffffffffffffff160217905550600282015481600201556003820160009054906101000a900460ff168160030160006101000a81548160ff021916908360018111156119a157fe5b02179055506004820154816004015560058201548160050155600682015481600601556007820154816007015590505080806001019150506118af565b50828054806119e957fe5b60019003818190600052602060002090600802016000808201600090556001820160006101000a81549073ffffffffffffffffffffffffffffffffffffffff021916905560028201600090556003820160006101000a81549060ff02191690556004820160009055600582016000905560068201600090556007820160009055505090558180600101925050611858565b5050505050505050565b60055481565b60006020528060005260406000206000915090508060000154908060010160009054906101000a900473ffffffffffffffffffffffffffffffffffffffff16905082565b600660009054906101000a900473ffffffffffffffffffffffffffffffffffffffff1673ffffffffffffffffffffffffffffffffffffffff163373ffffffffffffffffffffffffffffffffffffffff1614611b5e576040517f08c379a0000000000000000000000000000000000000000000000000000000008152600401611b55906130b5565b60405180910390fd5b60405180604001604052808381526020018273ffffffffffffffffffffffffffffffffffffffff168152506000808481526020019081526020016000206000820151816000015560208201518160010160006101000a81548173ffffffffffffffffffffffffffffffffffffffff021916908373ffffffffffffffffffffffffffffffffffffffff16021790555090505060028290806001815401808255809150506001900390600052602060002001600090919091909150555050565b60028181548110611c2957fe5b906000526020600020016000915090505481565b606080600280549050604051908082528060200260200182016040528015611c7f57816020015b611c6c6126cf565b815260200190600190039081611c645790505b50905060008090505b600280549050811015611d5c57604051806040016040528060008060028581548110611cb057fe5b9060005260206000200154815260200190815260200160002060000154815260200160008060028581548110611ce257fe5b9060005260206000200154815260200190815260200160002060010160009054906101000a900473ffffffffffffffffffffffffffffffffffffffff1673ffffffffffffffffffffffffffffffffffffffff16815250828281518110611d4457fe5b60200260200101819052508080600101915050611c88565b508091505090565b83600073ffffffffffffffffffffffffffffffffffffffff1660008083815260200190815260200160002060010160009054906101000a900473ffffffffffffffffffffffffffffffffffffffff1673ffffffffffffffffffffffffffffffffffffffff161415611e0a576040517f08c379a0000000000000000000000000000000000000000000000000000000008152600401611e0190613115565b60405180910390fd5b847f4441490000000000000000000000000000000000000000000000000000000000811415611e6e576040517f08c379a0000000000000000000000000000000000000000000000000000000008152600401611e6590613175565b60405180910390fd5b600180811115611e7a57fe5b836001811115611e8657fe5b1415611f245784600160003373ffffffffffffffffffffffffffffffffffffffff1673ffffffffffffffffffffffffffffffffffffffff1681526020019081526020016000206000888152602001908152602001600020541015611f1f576040517f08c379a0000000000000000000000000000000000000000000000000000000008152600401611f16906130d5565b60405180910390fd5b611fda565b838502600160003373ffffffffffffffffffffffffffffffffffffffff1673ffffffffffffffffffffffffffffffffffffffff16815260200190815260200160002060007f44414900000000000000000000000000000000000000000000000000000000008152602001908152602001600020541015611fd9576040517f08c379a0000000000000000000000000000000000000000000000000000000008152600401611fd090613155565b60405180910390fd5b5b6000600360008881526020019081526020016000206000856001811115611ffd57fe5b815260200190815260200160002090508060405180610100016040528060045481526020013373ffffffffffffffffffffffffffffffffffffffff16815260200189815260200186600181111561205057fe5b8152602001888152602001600081526020018781526020014281525090806001815401808255809150506001900390600052602060002090600802016000909190919091506000820151816000015560208201518160010160006101000a81548173ffffffffffffffffffffffffffffffffffffffff021916908373ffffffffffffffffffffffffffffffffffffffff1602179055506040820151816002015560608201518160030160006101000a81548160ff0219169083600181111561211457fe5b02179055506080820151816004015560a0820151816005015560c0820151816006015560e082015181600701555050600080828054905011612157576000612160565b60018280549050035b90505b6000811115612523576000600181111561217957fe5b85600181111561218557fe5b1480156121cf575081818154811061219957fe5b9060005260206000209060080201600601548260018303815481106121ba57fe5b90600052602060002090600802016006015410155b156121d957612523565b6001808111156121e557fe5b8560018111156121f157fe5b14801561223b575081818154811061220557fe5b90600052602060002090600802016006015482600183038154811061222657fe5b90600052602060002090600802016006015411155b1561224557612523565b61224d612702565b82600183038154811061225c57fe5b906000526020600020906008020160405180610100016040529081600082015481526020016001820160009054906101000a900473ffffffffffffffffffffffffffffffffffffffff1673ffffffffffffffffffffffffffffffffffffffff1673ffffffffffffffffffffffffffffffffffffffff168152602001600282015481526020016003820160009054906101000a900460ff1660018111156122fe57fe5b600181111561230957fe5b8152602001600482015481526020016005820154815260200160068201548152602001600782015481525050905082828154811061234357fe5b906000526020600020906008020183600184038154811061236057fe5b9060005260206000209060080201600082015481600001556001820160009054906101000a900473ffffffffffffffffffffffffffffffffffffffff168160010160006101000a81548173ffffffffffffffffffffffffffffffffffffffff021916908373ffffffffffffffffffffffffffffffffffffffff160217905550600282015481600201556003820160009054906101000a900460ff168160030160006101000a81548160ff0219169083600181111561241a57fe5b0217905550600482015481600401556005820154816005015560068201548160060155600782015481600701559050508083838154811061245757fe5b90600052602060002090600802016000820151816000015560208201518160010160006101000a81548173ffffffffffffffffffffffffffffffffffffffff021916908373ffffffffffffffffffffffffffffffffffffffff1602179055506040820151816002015560608201518160030160006101000a81548160ff021916908360018111156124e457fe5b02179055506080820151816004015560a0820151816005015560c0820151816006015560e0820151816007015590505081806001900392505050612163565b6004600081548092919060010191905055505050505050505050565b600660009054906101000a900473ffffffffffffffffffffffffffffffffffffffff1681565b60006125a783836040518060400160405280601e81526020017f536166654d6174683a207375627472616374696f6e206f766572666c6f770000815250612674565b905092915050565b6000808284019050838110156125fa576040517f08c379a00000000000000000000000000000000000000000000000000000000081526004016125f190613095565b60405180910390fd5b8091505092915050565b600080831415612617576000905061266e565b600082840290508284828161262857fe5b0414612669576040517f08c379a000000000000000000000000000000000000000000000000000000000815260040161266090613135565b60405180910390fd5b809150505b92915050565b60008383111582906126bc576040517f08c379a00000000000000000000000000000000000000000000000000000000081526004016126b39190613073565b60405180910390fd5b5060008385039050809150509392505050565b604051806040016040528060008019168152602001600073ffffffffffffffffffffffffffffffffffffffff1681525090565b60405180610100016040528060008152602001600073ffffffffffffffffffffffffffffffffffffffff168152602001600080191681526020016000600181111561274957fe5b8152602001600081526020016000815260200160008152602001600081525090565b60008135905061277a8161342d565b92915050565b60008151905061278f81613444565b92915050565b6000813590506127a48161345b565b92915050565b6000813590506127b981613472565b92915050565b6000813590506127ce81613482565b92915050565b600080604083850312156127e757600080fd5b60006127f58582860161276b565b925050602061280685828601612795565b9150509250929050565b60006020828403121561282257600080fd5b600061283084828501612780565b91505092915050565b60006020828403121561284b57600080fd5b600061285984828501612795565b91505092915050565b6000806040838503121561287557600080fd5b600061288385828601612795565b92505060206128948582860161276b565b9150509250929050565b600080604083850312156128b157600080fd5b60006128bf85828601612795565b92505060206128d0858286016127aa565b9150509250929050565b600080604083850312156128ed57600080fd5b60006128fb85828601612795565b925050602061290c858286016127bf565b9150509250929050565b60008060006060848603121561292b57600080fd5b600061293986828701612795565b935050602061294a868287016127bf565b925050604061295b868287016127aa565b9150509250925092565b60008060006060848603121561297a57600080fd5b600061298886828701612795565b9350506020612999868287016127bf565b92505060406129aa868287016127bf565b9150509250925092565b600080600080608085870312156129ca57600080fd5b60006129d887828801612795565b94505060206129e9878288016127bf565b93505060406129fa878288016127bf565b9250506060612a0b878288016127aa565b91505092959194509250565b600060208284031215612a2957600080fd5b6000612a37848285016127bf565b91505092915050565b6000612a4c8383612e81565b6101008301905092915050565b6000612a658383612f23565b60408301905092915050565b612a7a81613394565b82525050565b612a898161332f565b82525050565b612a988161332f565b82525050565b6000612aa9826132c1565b612ab381856132fc565b9350612abe836132a1565b8060005b83811015612aef578151612ad68882612a40565b9750612ae1836132e2565b925050600181019050612ac2565b5085935050505092915050565b6000612b07826132cc565b612b11818561330d565b9350612b1c836132b1565b8060005b83811015612b4d578151612b348882612a59565b9750612b3f836132ef565b925050600181019050612b20565b5085935050505092915050565b612b638161334d565b82525050565b612b728161334d565b82525050565b612b81816133a6565b82525050565b612b90816133a6565b82525050565b6000612ba1826132d7565b612bab818561331e565b9350612bbb8185602086016133dc565b612bc48161340f565b840191505092915050565b6000612bdc601b8361331e565b91507f536166654d6174683a206164646974696f6e206f766572666c6f7700000000006000830152602082019050919050565b6000612c1c60198361331e565b91507f4f6e6c792061646d696e2063616e2061646420746f6b656e73000000000000006000830152602082019050919050565b6000612c5c60258361331e565b91507f4e6f7420656e6f75676820746f6b656e7320746f20667566696c6c207468652060008301527f6f726465720000000000000000000000000000000000000000000000000000006020830152604082019050919050565b6000612cc2601c8361331e565b91507f4e6f7420656e6f7567682066756e647320746f207769746864726177000000006000830152602082019050919050565b6000612d0260148361331e565b91507f546f6b656e20646f6573206e6f742065786973740000000000000000000000006000830152602082019050919050565b6000612d4260218361331e565b91507f536166654d6174683a206d756c7469706c69636174696f6e206f766572666c6f60008301527f77000000000000000000000000000000000000000000000000000000000000006020830152604082019050919050565b6000612da860268361331e565b91507f4e6f7420656e6f7567682044414920746f6b656e7320746f206275792074686560008301527f206f7264657200000000000000000000000000000000000000000000000000006020830152604082019050919050565b6000612e0e60108361331e565b91507f43616e6e6f7420747261646520444149000000000000000000000000000000006000830152602082019050919050565b6000612e4e601c8361331e565b91507f4e6f7420656e6f7567682044414920746f2062757920746f6b656e73000000006000830152602082019050919050565b61010082016000820151612e986000850182612f52565b506020820151612eab6020850182612a80565b506040820151612ebe6040850182612b5a565b506060820151612ed16060850182612b78565b506080820151612ee46080850182612f52565b5060a0820151612ef760a0850182612f52565b5060c0820151612f0a60c0850182612f52565b5060e0820151612f1d60e0850182612f52565b50505050565b604082016000820151612f396000850182612b5a565b506020820151612f4c6020850182612a80565b50505050565b612f5b8161338a565b82525050565b612f6a8161338a565b82525050565b6000602082019050612f856000830184612a8f565b92915050565b6000606082019050612fa06000830186612a71565b612fad6020830185612a8f565b612fba6040830184612f61565b949350505050565b6000604082019050612fd76000830185612a71565b612fe46020830184612f61565b9392505050565b600060208201905081810360008301526130058184612a9e565b905092915050565b600060208201905081810360008301526130278184612afc565b905092915050565b60006020820190506130446000830184612b69565b92915050565b600060408201905061305f6000830185612b69565b61306c6020830184612a8f565b9392505050565b6000602082019050818103600083015261308d8184612b96565b905092915050565b600060208201905081810360008301526130ae81612bcf565b9050919050565b600060208201905081810360008301526130ce81612c0f565b9050919050565b600060208201905081810360008301526130ee81612c4f565b9050919050565b6000602082019050818103600083015261310e81612cb5565b9050919050565b6000602082019050818103600083015261312e81612cf5565b9050919050565b6000602082019050818103600083015261314e81612d35565b9050919050565b6000602082019050818103600083015261316e81612d9b565b9050919050565b6000602082019050818103600083015261318e81612e01565b9050919050565b600060208201905081810360008301526131ae81612e41565b9050919050565b60006020820190506131ca6000830184612f61565b92915050565b6000610100820190506131e6600083018b612f61565b6131f3602083018a612a8f565b6132006040830189612b69565b61320d6060830188612b87565b61321a6080830187612f61565b61322760a0830186612f61565b61323460c0830185612f61565b61324160e0830184612f61565b9998505050505050505050565b600060a0820190506132636000830188612f61565b6132706020830187612f61565b61327d6040830186612f61565b61328a6060830185612f61565b6132976080830184612f61565b9695505050505050565b6000819050602082019050919050565b6000819050602082019050919050565b600081519050919050565b600081519050919050565b600081519050919050565b6000602082019050919050565b6000602082019050919050565b600082825260208201905092915050565b600082825260208201905092915050565b600082825260208201905092915050565b600061333a8261336a565b9050919050565b60008115159050919050565b6000819050919050565b600081905061336582613420565b919050565b600073ffffffffffffffffffffffffffffffffffffffff82169050919050565b6000819050919050565b600061339f826133b8565b9050919050565b60006133b182613357565b9050919050565b60006133c3826133ca565b9050919050565b60006133d58261336a565b9050919050565b60005b838110156133fa5780820151818401526020810190506133df565b83811115613409576000848401525b50505050565b6000601f19601f8301169050919050565b6002811061342a57fe5b50565b6134368161332f565b811461344157600080fd5b50565b61344d81613341565b811461345857600080fd5b50565b6134648161334d565b811461346f57600080fd5b50565b6002811061347f57600080fd5b50565b61348b8161338a565b811461349657600080fd5b5056fea264697066735822122065c1868e2c1e3c6418ff2761db008ab2714d2021e478474dd951ba40413d6bb864736f6c63430006030033",
  "source": "// SPDX-License-Identifier: MIT\npragma solidity >=0.6.0 <0.7.0;\npragma experimental ABIEncoderV2;\n\n// import \"https://github.com/OpenZeppelin/openzeppelin-contracts/blob/master/contracts/token/ERC20/IERC20.sol\";\n// import \"https://github.com/OpenZeppelin/openzeppelin-contracts/blob/master/contracts/math/SafeMath.sol\";\n\nimport \"../node_modules/@openzeppelin/contracts/token/ERC20/IERC20.sol\";\nimport \"../node_modules/@openzeppelin/contracts/math/SafeMath.sol\";\n\ncontract Dex {\n    // to use a library\n    using SafeMath for uint256;\n\n    // limit order type\n    // enum can be casted into integer, (0 = BUY, 1 = SELL )\n    enum OrderType {BUY, SELL}\n\n    // token detail struct\n    struct Token {\n        bytes32 ticker;\n        address tokenAddress;\n    }\n\n    // struct to represent each limit order\n    struct Order {\n        uint256 id;\n        address trader;\n        bytes32 ticker;\n        OrderType orderType;\n        uint256 amount; // total amount of token\n        uint256 filled; // how much amount is filled\n        uint256 price; // price of one token\n        uint256 date;\n    }\n\n    // token detail mapping\n    mapping(bytes32 => Token) public tokens;\n\n    // address to token token balance mapping\n    mapping(address => mapping(bytes32 => uint256)) public traderBalances;\n\n    // token list\n    bytes32[] public tokenList;\n\n    // order book mapping\n    // enum as a mapping key is not implemented so cast enum into uint\n    // ticker => (orderType = Order array)\n    // BUY lmit order array is sorted in decending order\n    // SELL lmit order array is sorted in assecending order\n    // same price the oldest order is rank first\n    // Reason of sorting in this way :\n    // market order of type buy will get the limit order of type sell which has least price (ascending order)\n    // market order of type sell will sell the limit order of type buy which has highest price (decending order)\n    mapping(bytes32 => mapping(uint256 => Order[])) public orderBook;\n\n    // current order id\n    uint256 public nextOrderId;\n\n    // trade id\n    uint256 public nextTradeId;\n\n    // admin address\n    address public admin;\n\n    // Dai ticker constant\n    // saves gas as it computed during compile time not run time\n    bytes32 constant DAI = bytes32(\"DAI\");\n\n    event NewTrade(\n        uint256 tradeId,\n        uint256 orderId,\n        bytes32 indexed ticker,\n        address indexed trader1,\n        address indexed trader2,\n        uint256 amount,\n        uint256 price,\n        uint256 date\n    );\n\n    constructor() public {\n        admin = msg.sender;\n    }\n\n    // list orders\n    function getOrders(bytes32 _ticker, OrderType _orderType)\n        external\n        view\n        returns (Order[] memory)\n    {\n        return orderBook[_ticker][uint256(_orderType)];\n    }\n\n    // list tokens\n    function getTokens() external view returns (Token[] memory) {\n        // new temporary Token struc array\n        Token[] memory _tokens = new Token[](tokenList.length);\n        for (uint256 i = 0; i < tokenList.length; i++) {\n            _tokens[i] = Token(\n                tokens[tokenList[i]].ticker,\n                tokens[tokenList[i]].tokenAddress\n            );\n        }\n        return _tokens;\n    }\n\n    // add token function\n    function addToken(bytes32 _ticker, address _tokenAddress)\n        external\n        onlyAdmin()\n    {\n        tokens[_ticker] = Token(_ticker, _tokenAddress);\n        tokenList.push(_ticker);\n    }\n\n    // deposit to wallet\n    function deposit(bytes32 _ticker, uint256 _amount)\n        external\n        tokenExist(_ticker)\n    {\n        // IERC20 interface requires token address other wise it will casue error\n        // approve during testing and in frontend\n        IERC20(tokens[_ticker].tokenAddress).transferFrom(\n            msg.sender,\n            address(this),\n            _amount\n        );\n        traderBalances[msg.sender][_ticker] = traderBalances[msg\n            .sender][_ticker]\n            .add(_amount);\n    }\n\n    // withdraw from wallet\n    function withdraw(bytes32 _ticker, uint256 _amount)\n        external\n        tokenExist(_ticker)\n    {\n        require(\n            traderBalances[msg.sender][_ticker] >= _amount,\n            \"Not enough funds to withdraw\"\n        );\n        traderBalances[msg.sender][_ticker] = traderBalances[msg\n            .sender][_ticker]\n            .sub(_amount);\n        IERC20(tokens[_ticker].tokenAddress).transfer(msg.sender, _amount);\n    }\n\n    // create limit order\n    // buy or sell at a specific max or min price\n    function createLimitOrder(\n        bytes32 _ticker,\n        uint256 _amount,\n        uint256 _price,\n        OrderType _orderType\n    ) external tokenExist(_ticker) tokenIsNotDai(_ticker) {\n        if (_orderType == OrderType.SELL) {\n            require(\n                traderBalances[msg.sender][_ticker] >= _amount,\n                \"Not enough tokens to fufill the order\"\n            );\n        } else {\n            require(\n                traderBalances[msg.sender][DAI] >= _amount * _price,\n                \"Not enough DAI tokens to buy the order\"\n            );\n        }\n        // get the order array of particular ticker\n        Order[] storage orders = orderBook[_ticker][uint256(_orderType)];\n\n        //push the new order in the array\n        orders.push(\n            Order(\n                nextOrderId,\n                msg.sender,\n                _ticker,\n                _orderType,\n                _amount,\n                0,\n                _price,\n                now\n            )\n        );\n\n        // sort the array (bubble sort)\n        // condition the previos array is already sorted so just put the last order in correct position\n        uint256 i = orders.length > 0 ? orders.length - 1 : 0;\n        while (i > 0) {\n            if (\n                _orderType == OrderType.BUY &&\n                orders[i - 1].price >= orders[i].price\n            ) {\n                break;\n            }\n            if (\n                _orderType == OrderType.SELL &&\n                orders[i - 1].price <= orders[i].price\n            ) {\n                break;\n            }\n\n            // swap\n            Order memory previousOder = orders[i - 1];\n            orders[i - 1] = orders[i];\n            orders[i] = previousOder;\n            i--;\n        }\n        nextOrderId++;\n    }\n\n    // create market orders\n    // buy or sell at any price\n    // order mataching algo : match this market order with best limit sell order\n    // Matches incoming market orders against existing limit orders\n    function createMarketOrder(\n        bytes32 _ticker,\n        uint256 _amount,\n        OrderType _orderType\n    ) external tokenExist(_ticker) tokenIsNotDai(_ticker) {\n        if (_orderType == OrderType.SELL) {\n            require(\n                traderBalances[msg.sender][_ticker] >= _amount,\n                \"Not enough tokens to fufill the order\"\n            );\n        }\n\n        // for else condition we dont have order price\n        // so we will do it after we get the pice from lmit order\n\n        // matching algo\n        // id this is market buy order we need to have list of sell order\n        Order[] storage orders = orderBook[_ticker][uint256(\n            _orderType == OrderType.BUY ? OrderType.SELL : OrderType.BUY\n        )];\n\n        // variale to iterate\n        uint256 i;\n\n        // remaining portion of order to be filled\n        uint256 remaining = _amount;\n\n        // matching process\n        //iterate till the end of order book or till when order is not fully matched\n        while (i < orders.length && remaining > 0) {\n            // know available liquidity for each of the order of the orderBook\n            uint256 available = orders[i].amount - orders[i].filled;\n\n            // amount that will be matched against our market order\n            // remaining > available : the limit order will be mathched\n            // remaining < available : then market order will be matched\n            uint256 matched = (remaining > available) ? available : remaining;\n\n            // decrement the remaining order\n            remaining = remaining.sub(matched);\n\n            // increment what has been matched\n            orders[i].filled = orders[i].filled.add(matched);\n\n            // emit NewTrade event\n            // trader1 = trader who created lmit orders\n            // trader2 = trader who create the matched orders\n            // price = price of lmit order\n            emit NewTrade(\n                nextTradeId,\n                orders[i].id,\n                _ticker,\n                orders[i].trader,\n                msg.sender,\n                matched,\n                orders[i].price,\n                now\n            );\n\n            // update token balance for two of the trader involved\n            if (_orderType == OrderType.SELL) {\n                // sender will always have something to sender\n\n                traderBalances[msg.sender][_ticker] = traderBalances[msg\n                    .sender][_ticker]\n                    .sub(matched);\n                traderBalances[msg.sender][DAI] = traderBalances[msg\n                    .sender][DAI]\n                    .add(matched.mul(orders[i].price));\n                traderBalances[orders[i]\n                    .trader][_ticker] = traderBalances[orders[i]\n                    .trader][_ticker]\n                    .add(matched);\n                traderBalances[orders[i].trader][DAI] = traderBalances[orders[i]\n                    .trader][DAI]\n                    .sub(matched.mul(orders[i].price));\n            }\n            if (_orderType == OrderType.BUY) {\n                // check if buyer have enought DAI to pay\n                require(\n                    traderBalances[msg.sender][DAI] >=\n                        matched.mul(orders[i].price),\n                    \"Not enough DAI to buy tokens\"\n                );\n\n                traderBalances[msg.sender][_ticker] = traderBalances[msg\n                    .sender][_ticker]\n                    .add(matched);\n                traderBalances[msg.sender][DAI] = traderBalances[msg\n                    .sender][DAI]\n                    .sub(matched.mul(orders[i].price));\n                traderBalances[orders[i]\n                    .trader][_ticker] = traderBalances[orders[i]\n                    .trader][_ticker]\n                    .sub(matched);\n                traderBalances[orders[i].trader][DAI] = traderBalances[orders[i]\n                    .trader][DAI]\n                    .add(matched.mul(orders[i].price));\n            }\n            nextTradeId++;\n            i++;\n        }\n\n        // prune/remove the finished getOrders\n        // way is to check the first orders as it is processed and filled first\n        i = 0;\n        // stop when current order is not filled, if filled then prune\n        while (i < orders.length && orders[i].filled == orders[i].amount) {\n            for (uint256 j = i; j < orders.length - 1; j++) {\n                orders[j] = orders[j + 1];\n            }\n            orders.pop();\n            i++;\n        }\n    }\n\n    modifier onlyAdmin() {\n        require(msg.sender == admin, \"Only admin can add tokens\");\n        _;\n    }\n\n    modifier tokenExist(bytes32 _ticker) {\n        require(\n            tokens[_ticker].tokenAddress != address(0),\n            \"Token does not exist\"\n        );\n        _;\n    }\n\n    modifier tokenIsNotDai(bytes32 _ticker) {\n        require(_ticker != DAI, \"Cannot trade DAI\");\n        _;\n    }\n}\n",
  "sourcePath": "/home/dante/Iris/Study/Projects/Dex/contracts/Dex.sol",
  "compiler": {
    "name": "solc",
    "version": "0.6.3+commit.8dda9521.Emscripten.clang"
  },
  "schemaVersion": "3.2.0",
  "updatedAt": "2020-07-04T19:48:04.575Z",
  "networkType": "ethereum",
  "devdoc": {
    "methods": {}
  },
  "userdoc": {
    "methods": {}
  }
}