{
  "contractName": "MultiSigWallet",
  "abi": [
    {
      "inputs": [
        {
          "internalType": "address[]",
          "name": "_approvers",
          "type": "address[]"
        },
        {
          "internalType": "uint256",
          "name": "_quorum",
          "type": "uint256"
        }
      ],
      "stateMutability": "nonpayable",
      "type": "constructor"
    },
    {
      "inputs": [
        {
          "internalType": "address",
          "name": "",
          "type": "address"
        },
        {
          "internalType": "uint256",
          "name": "",
          "type": "uint256"
        }
      ],
      "name": "approvals",
      "outputs": [
        {
          "internalType": "bool",
          "name": "",
          "type": "bool"
        }
      ],
      "stateMutability": "view",
      "type": "function",
      "constant": true
    },
    {
      "inputs": [
        {
          "internalType": "uint256",
          "name": "",
          "type": "uint256"
        }
      ],
      "name": "approvers",
      "outputs": [
        {
          "internalType": "address",
          "name": "",
          "type": "address"
        }
      ],
      "stateMutability": "view",
      "type": "function",
      "constant": true
    },
    {
      "inputs": [],
      "name": "quorum",
      "outputs": [
        {
          "internalType": "uint256",
          "name": "",
          "type": "uint256"
        }
      ],
      "stateMutability": "view",
      "type": "function",
      "constant": true
    },
    {
      "inputs": [
        {
          "internalType": "uint256",
          "name": "",
          "type": "uint256"
        }
      ],
      "name": "transfers",
      "outputs": [
        {
          "internalType": "uint256",
          "name": "id",
          "type": "uint256"
        },
        {
          "internalType": "uint256",
          "name": "amount",
          "type": "uint256"
        },
        {
          "internalType": "address payable",
          "name": "to",
          "type": "address"
        },
        {
          "internalType": "uint256",
          "name": "approvals",
          "type": "uint256"
        },
        {
          "internalType": "bool",
          "name": "sent",
          "type": "bool"
        }
      ],
      "stateMutability": "view",
      "type": "function",
      "constant": true
    },
    {
      "stateMutability": "payable",
      "type": "receive",
      "payable": true
    },
    {
      "inputs": [],
      "name": "getApprovers",
      "outputs": [
        {
          "internalType": "address[]",
          "name": "",
          "type": "address[]"
        }
      ],
      "stateMutability": "view",
      "type": "function",
      "constant": true
    },
    {
      "inputs": [
        {
          "internalType": "uint256",
          "name": "_amount",
          "type": "uint256"
        },
        {
          "internalType": "address payable",
          "name": "_to",
          "type": "address"
        }
      ],
      "name": "createTransfer",
      "outputs": [],
      "stateMutability": "nonpayable",
      "type": "function"
    },
    {
      "inputs": [],
      "name": "getTransfers",
      "outputs": [
        {
          "components": [
            {
              "internalType": "uint256",
              "name": "id",
              "type": "uint256"
            },
            {
              "internalType": "uint256",
              "name": "amount",
              "type": "uint256"
            },
            {
              "internalType": "address payable",
              "name": "to",
              "type": "address"
            },
            {
              "internalType": "uint256",
              "name": "approvals",
              "type": "uint256"
            },
            {
              "internalType": "bool",
              "name": "sent",
              "type": "bool"
            }
          ],
          "internalType": "struct MultiSigWallet.Transfer[]",
          "name": "",
          "type": "tuple[]"
        }
      ],
      "stateMutability": "view",
      "type": "function",
      "constant": true
    },
    {
      "inputs": [
        {
          "internalType": "uint256",
          "name": "_id",
          "type": "uint256"
        }
      ],
      "name": "approveTransfer",
      "outputs": [],
      "stateMutability": "nonpayable",
      "type": "function"
    }
  ],
  "bytecode": "0x60806040523480156200001157600080fd5b506040516200130e3803806200130e833981810160405262000037919081019062000279565b81600090805190602001906200004f929190620000e9565b508060028190555060008090505b8251811015620000e05760018060008584815181106200007957fe5b602002602001015173ffffffffffffffffffffffffffffffffffffffff1673ffffffffffffffffffffffffffffffffffffffff16815260200190815260200160002060006101000a81548160ff02191690831515021790555080806001019150506200005d565b5050506200039c565b82805482825590600052602060002090810192821562000165579160200282015b82811115620001645782518260006101000a81548173ffffffffffffffffffffffffffffffffffffffff021916908373ffffffffffffffffffffffffffffffffffffffff160217905550916020019190600101906200010a565b5b50905062000174919062000178565b5090565b620001bb91905b80821115620001b757600081816101000a81549073ffffffffffffffffffffffffffffffffffffffff0219169055506001016200017f565b5090565b90565b600081519050620001cf8162000368565b92915050565b600082601f830112620001e757600080fd5b8151620001fe620001f88262000301565b620002d3565b915081818352602084019350602081019050838560208402820111156200022457600080fd5b60005b838110156200025857816200023d8882620001be565b84526020840193506020830192505060018101905062000227565b5050505092915050565b600081519050620002738162000382565b92915050565b600080604083850312156200028d57600080fd5b600083015167ffffffffffffffff811115620002a857600080fd5b620002b685828601620001d5565b9250506020620002c98582860162000262565b9150509250929050565b6000604051905081810181811067ffffffffffffffff82111715620002f757600080fd5b8060405250919050565b600067ffffffffffffffff8211156200031957600080fd5b602082029050602081019050919050565b600062000337826200033e565b9050919050565b600073ffffffffffffffffffffffffffffffffffffffff82169050919050565b6000819050919050565b62000373816200032a565b81146200037f57600080fd5b50565b6200038d816200035e565b81146200039957600080fd5b50565b610f6280620003ac6000396000f3fe60806040526004361061007f5760003560e01c80639377d7111161004e5780639377d71114610135578063cacca4a014610176578063d3650fb81461019f578063ffabc673146101dc57610086565b80631703a0181461008b5780632f65142c146100b65780634c12fa47146100e15780636cb3e8ef1461010a57610086565b3661008657005b600080fd5b34801561009757600080fd5b506100a0610219565b6040516100ad9190610d9c565b60405180910390f35b3480156100c257600080fd5b506100cb61021f565b6040516100d89190610cff565b60405180910390f35b3480156100ed57600080fd5b50610108600480360361010391908101906109fa565b61030d565b005b34801561011657600080fd5b5061011f61049c565b60405161012c9190610cdd565b60405180910390f35b34801561014157600080fd5b5061015c600480360361015791908101906109d1565b61052a565b60405161016d959493929190610db7565b60405180910390f35b34801561018257600080fd5b5061019d600480360361019891908101906109d1565b61059a565b005b3480156101ab57600080fd5b506101c660048036036101c191908101906109d1565b6108eb565b6040516101d39190610cc2565b60405180910390f35b3480156101e857600080fd5b5061020360048036036101fe9190810190610995565b610927565b6040516102109190610d21565b60405180910390f35b60025481565b60606003805480602002602001604051908101604052809291908181526020016000905b8282101561030457838290600052602060002090600502016040518060a001604052908160008201548152602001600182015481526020016002820160009054906101000a900473ffffffffffffffffffffffffffffffffffffffff1673ffffffffffffffffffffffffffffffffffffffff1673ffffffffffffffffffffffffffffffffffffffff168152602001600382015481526020016004820160009054906101000a900460ff16151515158152505081526020019060010190610243565b50505050905090565b60011515600160003373ffffffffffffffffffffffffffffffffffffffff1673ffffffffffffffffffffffffffffffffffffffff16815260200190815260200160002060009054906101000a900460ff161515146103a0576040517f08c379a000000000000000000000000000000000000000000000000000000000815260040161039790610d3c565b60405180910390fd5b60036040518060a0016040528060038054905081526020018481526020018373ffffffffffffffffffffffffffffffffffffffff16815260200160008152602001600015158152509080600181540180825580915050600190039060005260206000209060050201600090919091909150600082015181600001556020820151816001015560408201518160020160006101000a81548173ffffffffffffffffffffffffffffffffffffffff021916908373ffffffffffffffffffffffffffffffffffffffff1602179055506060820151816003015560808201518160040160006101000a81548160ff02191690831515021790555050505050565b6060600080548060200260200160405190810160405280929190818152602001828054801561052057602002820191906000526020600020905b8160009054906101000a900473ffffffffffffffffffffffffffffffffffffffff1673ffffffffffffffffffffffffffffffffffffffff16815260200190600101908083116104d6575b5050505050905090565b6003818154811061053757fe5b90600052602060002090600502016000915090508060000154908060010154908060020160009054906101000a900473ffffffffffffffffffffffffffffffffffffffff16908060030154908060040160009054906101000a900460ff16905085565b60011515600160003373ffffffffffffffffffffffffffffffffffffffff1673ffffffffffffffffffffffffffffffffffffffff16815260200190815260200160002060009054906101000a900460ff1615151461062d576040517f08c379a000000000000000000000000000000000000000000000000000000000815260040161062490610d3c565b60405180910390fd5b600015156003828154811061063e57fe5b906000526020600020906005020160040160009054906101000a900460ff1615151461069f576040517f08c379a000000000000000000000000000000000000000000000000000000000815260040161069690610d5c565b60405180910390fd5b60001515600460003373ffffffffffffffffffffffffffffffffffffffff1673ffffffffffffffffffffffffffffffffffffffff168152602001908152602001600020600083815260200190815260200160002060009054906101000a900460ff16151514610743576040517f08c379a000000000000000000000000000000000000000000000000000000000815260040161073a90610d7c565b60405180910390fd5b6001600460003373ffffffffffffffffffffffffffffffffffffffff1673ffffffffffffffffffffffffffffffffffffffff168152602001908152602001600020600083815260200190815260200160002060006101000a81548160ff021916908315150217905550600381815481106107b957fe5b906000526020600020906005020160030160008154809291906001019190505550600254600382815481106107ea57fe5b906000526020600020906005020160030154106108e85760016003828154811061081057fe5b906000526020600020906005020160040160006101000a81548160ff02191690831515021790555060006003828154811061084757fe5b906000526020600020906005020160020160009054906101000a900473ffffffffffffffffffffffffffffffffffffffff16905060006003838154811061088a57fe5b90600052602060002090600502016001015490508173ffffffffffffffffffffffffffffffffffffffff166108fc829081150290604051600060405180830381858888f193505050501580156108e4573d6000803e3d6000fd5b5050505b50565b600081815481106108f857fe5b906000526020600020016000915054906101000a900473ffffffffffffffffffffffffffffffffffffffff1681565b60046020528160005260406000206020528060005260406000206000915091509054906101000a900460ff1681565b60008135905061096581610ee7565b92915050565b60008135905061097a81610efe565b92915050565b60008135905061098f81610f15565b92915050565b600080604083850312156109a857600080fd5b60006109b685828601610956565b92505060206109c785828601610980565b9150509250929050565b6000602082840312156109e357600080fd5b60006109f184828501610980565b91505092915050565b60008060408385031215610a0d57600080fd5b6000610a1b85828601610980565b9250506020610a2c8582860161096b565b9150509250929050565b6000610a428383610a84565b60208301905092915050565b6000610a5a8383610c3c565b60a08301905092915050565b610a6f81610e9f565b82525050565b610a7e81610e9f565b82525050565b610a8d81610e8d565b82525050565b610a9c81610e8d565b82525050565b6000610aad82610e2a565b610ab78185610e5a565b9350610ac283610e0a565b8060005b83811015610af3578151610ada8882610a36565b9750610ae583610e40565b925050600181019050610ac6565b5085935050505092915050565b6000610b0b82610e35565b610b158185610e6b565b9350610b2083610e1a565b8060005b83811015610b51578151610b388882610a4e565b9750610b4383610e4d565b925050600181019050610b24565b5085935050505092915050565b610b6781610eb1565b82525050565b610b7681610eb1565b82525050565b6000610b89601983610e7c565b91507f6f6e6c7920617070726f7665722061726520616c6c6f776564000000000000006000830152602082019050919050565b6000610bc9601e83610e7c565b91507f7472616e736665722068617320616c7265616479206265656e2073656e7400006000830152602082019050919050565b6000610c09601d83610e7c565b91507f63616e6e6f7420617070726f7665207472616e736665722074776963650000006000830152602082019050919050565b60a082016000820151610c526000850182610ca4565b506020820151610c656020850182610ca4565b506040820151610c786040850182610a66565b506060820151610c8b6060850182610ca4565b506080820151610c9e6080850182610b5e565b50505050565b610cad81610edd565b82525050565b610cbc81610edd565b82525050565b6000602082019050610cd76000830184610a93565b92915050565b60006020820190508181036000830152610cf78184610aa2565b905092915050565b60006020820190508181036000830152610d198184610b00565b905092915050565b6000602082019050610d366000830184610b6d565b92915050565b60006020820190508181036000830152610d5581610b7c565b9050919050565b60006020820190508181036000830152610d7581610bbc565b9050919050565b60006020820190508181036000830152610d9581610bfc565b9050919050565b6000602082019050610db16000830184610cb3565b92915050565b600060a082019050610dcc6000830188610cb3565b610dd96020830187610cb3565b610de66040830186610a75565b610df36060830185610cb3565b610e006080830184610b6d565b9695505050505050565b6000819050602082019050919050565b6000819050602082019050919050565b600081519050919050565b600081519050919050565b6000602082019050919050565b6000602082019050919050565b600082825260208201905092915050565b600082825260208201905092915050565b600082825260208201905092915050565b6000610e9882610ebd565b9050919050565b6000610eaa82610ebd565b9050919050565b60008115159050919050565b600073ffffffffffffffffffffffffffffffffffffffff82169050919050565b6000819050919050565b610ef081610e8d565b8114610efb57600080fd5b50565b610f0781610e9f565b8114610f1257600080fd5b50565b610f1e81610edd565b8114610f2957600080fd5b5056fea264697066735822122017b4fd3ab0db8562d5cb847e0ab7c4a1f5290c21074e9ce920ade269b9b0302864736f6c63430006000033",
  "source": "pragma solidity ^0.6.0;\npragma experimental ABIEncoderV2;\n\ncontract MultiSigWallet {\n    address[] public approvers;\n    mapping(address => bool) approversMap;\n    uint256 public quorum;\n\n    struct Transfer {\n        uint256 id;\n        uint256 amount;\n        address payable to;\n        uint256 approvals;\n        bool sent;\n    }\n\n    Transfer[] public transfers;\n    mapping(address => mapping(uint256 => bool)) public approvals;\n\n    constructor(address[] memory _approvers, uint256 _quorum) public {\n        approvers = _approvers;\n        quorum = _quorum;\n\n        for (uint256 i = 0; i < _approvers.length; i++) {\n            approversMap[_approvers[i]] = true;\n        }\n    }\n\n    modifier onlyApprover() {\n        require(approversMap[msg.sender] == true, \"only approver are allowed\");\n        _;\n    }\n\n    function getApprovers() external view returns (address[] memory) {\n        return approvers;\n    }\n\n    function createTransfer(uint256 _amount, address payable _to)\n        external\n        onlyApprover()\n    {\n        transfers.push(Transfer(transfers.length, _amount, _to, 0, false));\n    }\n\n    function getTransfers() external view returns (Transfer[] memory) {\n        return transfers;\n    }\n\n    function approveTransfer(uint256 _id) external onlyApprover() {\n        require(transfers[_id].sent == false, \"transfer has already been sent\");\n        require(\n            approvals[msg.sender][_id] == false,\n            \"cannot approve transfer twice\"\n        );\n\n        approvals[msg.sender][_id] = true;\n        transfers[_id].approvals++;\n\n        if (transfers[_id].approvals >= quorum) {\n            transfers[_id].sent = true;\n            address payable to = transfers[_id].to;\n            uint256 amount = transfers[_id].amount;\n\n            to.transfer(amount);\n        }\n    }\n\n    receive() external payable {}\n}\n",
  "sourcePath": "/home/dante/Iris/Study/Projects/multiSigWallet/contracts/MultiSigWallet.sol",
  "compiler": {
    "name": "solc",
    "version": "0.6.0+commit.26b70077.Emscripten.clang"
  },
  "schemaVersion": "3.2.0",
  "updatedAt": "2020-06-15T16:37:21.759Z",
  "networkType": "ethereum",
  "devdoc": {
    "methods": {}
  },
  "userdoc": {
    "methods": {}
  }
}