{
  "contractName": "Escrow",
  "abi": [
    {
      "inputs": [
        {
          "internalType": "address payable",
          "name": "_sender",
          "type": "address"
        },
        {
          "internalType": "address payable",
          "name": "_buyer",
          "type": "address"
        }
      ],
      "stateMutability": "nonpayable",
      "type": "constructor"
    },
    {
      "inputs": [],
      "name": "amount",
      "outputs": [
        {
          "internalType": "uint256",
          "name": "",
          "type": "uint256"
        }
      ],
      "stateMutability": "view",
      "type": "function"
    },
    {
      "inputs": [],
      "name": "assetSent",
      "outputs": [
        {
          "internalType": "bool",
          "name": "",
          "type": "bool"
        }
      ],
      "stateMutability": "view",
      "type": "function"
    },
    {
      "inputs": [],
      "name": "buyer",
      "outputs": [
        {
          "internalType": "address payable",
          "name": "",
          "type": "address"
        }
      ],
      "stateMutability": "view",
      "type": "function"
    },
    {
      "inputs": [],
      "name": "confirmTransfer",
      "outputs": [
        {
          "internalType": "bool",
          "name": "",
          "type": "bool"
        }
      ],
      "stateMutability": "view",
      "type": "function"
    },
    {
      "inputs": [],
      "name": "currentStateBuyer",
      "outputs": [
        {
          "internalType": "enum Escrow.StateBuyer",
          "name": "",
          "type": "uint8"
        }
      ],
      "stateMutability": "view",
      "type": "function"
    },
    {
      "inputs": [],
      "name": "currentStateSender",
      "outputs": [
        {
          "internalType": "enum Escrow.StateSender",
          "name": "",
          "type": "uint8"
        }
      ],
      "stateMutability": "view",
      "type": "function"
    },
    {
      "inputs": [],
      "name": "escrowAgent",
      "outputs": [
        {
          "internalType": "address",
          "name": "",
          "type": "address"
        }
      ],
      "stateMutability": "view",
      "type": "function"
    },
    {
      "inputs": [],
      "name": "sender",
      "outputs": [
        {
          "internalType": "address payable",
          "name": "",
          "type": "address"
        }
      ],
      "stateMutability": "view",
      "type": "function"
    },
    {
      "inputs": [],
      "name": "balanceOf",
      "outputs": [
        {
          "internalType": "uint256",
          "name": "",
          "type": "uint256"
        }
      ],
      "stateMutability": "view",
      "type": "function"
    },
    {
      "inputs": [
        {
          "internalType": "uint256",
          "name": "_amount",
          "type": "uint256"
        }
      ],
      "name": "senderLockEth",
      "outputs": [],
      "stateMutability": "payable",
      "type": "function"
    },
    {
      "inputs": [],
      "name": "senderUnlockEth",
      "outputs": [],
      "stateMutability": "nonpayable",
      "type": "function"
    },
    {
      "inputs": [],
      "name": "buyerLockEth",
      "outputs": [],
      "stateMutability": "payable",
      "type": "function"
    },
    {
      "inputs": [],
      "name": "buyerUnlockEth",
      "outputs": [],
      "stateMutability": "nonpayable",
      "type": "function"
    },
    {
      "inputs": [],
      "name": "senderSendAsset",
      "outputs": [],
      "stateMutability": "nonpayable",
      "type": "function"
    },
    {
      "inputs": [],
      "name": "buyerConfirmTranfer",
      "outputs": [],
      "stateMutability": "nonpayable",
      "type": "function"
    }
  ],
  "bytecode": "0x608060405234801561001057600080fd5b5060405161156a38038061156a8339818101604052604081101561003357600080fd5b81019080805190602001909291908051906020019092919050505033600060026101000a81548173ffffffffffffffffffffffffffffffffffffffff021916908373ffffffffffffffffffffffffffffffffffffffff16021790555081600160006101000a81548173ffffffffffffffffffffffffffffffffffffffff021916908373ffffffffffffffffffffffffffffffffffffffff16021790555080600260006101000a81548173ffffffffffffffffffffffffffffffffffffffff021916908373ffffffffffffffffffffffffffffffffffffffff1602179055505050611448806101226000396000f3fe6080604052600436106100e85760003560e01c80637150d8ae1161008a578063aec465b211610059578063aec465b2146102f8578063baa493011461030f578063d62c28781461033e578063e1f6c09814610355576100e8565b80637150d8ae14610212578063722713f714610269578063a8565eb914610294578063aa8c217c146102cd576100e8565b80631e7fd8da116100c65780631e7fd8da1461013c57806325b95919146101535780632df0e8aa1461018257806367e404ce146101bb576100e8565b80631579bca6146100ed5780631a007f73146100f75780631d16062914610125575b600080fd5b6100f56103ac565b005b6101236004803603602081101561010d57600080fd5b8101908080359060200190929190505050610627565b005b34801561013157600080fd5b5061013a6108a7565b005b34801561014857600080fd5b50610151610a7a565b005b34801561015f57600080fd5b50610168610cd7565b604051808215151515815260200191505060405180910390f35b34801561018e57600080fd5b50610197610cea565b604051808260028111156101a757fe5b60ff16815260200191505060405180910390f35b3480156101c757600080fd5b506101d0610cfd565b604051808273ffffffffffffffffffffffffffffffffffffffff1673ffffffffffffffffffffffffffffffffffffffff16815260200191505060405180910390f35b34801561021e57600080fd5b50610227610d23565b604051808273ffffffffffffffffffffffffffffffffffffffff1673ffffffffffffffffffffffffffffffffffffffff16815260200191505060405180910390f35b34801561027557600080fd5b5061027e610d49565b6040518082815260200191505060405180910390f35b3480156102a057600080fd5b506102a9610d51565b604051808260028111156102b957fe5b60ff16815260200191505060405180910390f35b3480156102d957600080fd5b506102e2610d63565b6040518082815260200191505060405180910390f35b34801561030457600080fd5b5061030d610d69565b005b34801561031b57600080fd5b50610324611007565b604051808215151515815260200191505060405180910390f35b34801561034a57600080fd5b5061035361101a565b005b34801561036157600080fd5b5061036a61132f565b604051808273ffffffffffffffffffffffffffffffffffffffff1673ffffffffffffffffffffffffffffffffffffffff16815260200191505060405180910390f35b600260009054906101000a900473ffffffffffffffffffffffffffffffffffffffff1673ffffffffffffffffffffffffffffffffffffffff163373ffffffffffffffffffffffffffffffffffffffff161461046f576040517f08c379a00000000000000000000000000000000000000000000000000000000081526004018080602001828103825260138152602001807f63616c6c6572206973206e6f742062757965720000000000000000000000000081525060200191505060405180910390fd5b6001600281111561047c57fe5b6000809054906101000a900460ff16600281111561049657fe5b14610509576040517f08c379a000000000000000000000000000000000000000000000000000000000815260040180806020018281038252601b8152602001807f73656e64657220686173206e6f74206c6f636b2065746820796574000000000081525060200191505060405180910390fd5b6000600281111561051657fe5b600060019054906101000a900460ff16600281111561053157fe5b146105a4576040517f08c379a00000000000000000000000000000000000000000000000000000000081526004018080602001828103825260108152602001807f616c7265616c79206c6f636b206574680000000000000000000000000000000081525060200191505060405180910390fd5b6003546004023414610601576040517f08c379a00000000000000000000000000000000000000000000000000000000081526004018080602001828103825260248152602001806113906024913960400191505060405180910390fd5b6001600060016101000a81548160ff0219169083600281111561062057fe5b0217905550565b600160009054906101000a900473ffffffffffffffffffffffffffffffffffffffff1673ffffffffffffffffffffffffffffffffffffffff163373ffffffffffffffffffffffffffffffffffffffff16146106ea576040517f08c379a00000000000000000000000000000000000000000000000000000000081526004018080602001828103825260188152602001807f63616c6c6572206973206e6f74207468652073656e646572000000000000000081525060200191505060405180910390fd5b600060028111156106f757fe5b600060019054906101000a900460ff16600281111561071257fe5b14610785576040517f08c379a000000000000000000000000000000000000000000000000000000000815260040180806020018281038252601a8152602001807f62757965722068617320616c7265616c79206c6f636b2065746800000000000081525060200191505060405180910390fd5b6000600281111561079257fe5b6000809054906101000a900460ff1660028111156107ac57fe5b1461081f576040517f08c379a000000000000000000000000000000000000000000000000000000000815260040180806020018281038252601b8152602001807f73656e6465722068617320616c7265616c79206c6f636b20657468000000000081525060200191505060405180910390fd5b80600202341461087a576040517f08c379a00000000000000000000000000000000000000000000000000000000081526004018080602001828103825260218152602001806113f26021913960400191505060405180910390fd5b8060038190555060016000806101000a81548160ff0219169083600281111561089f57fe5b021790555050565b600160009054906101000a900473ffffffffffffffffffffffffffffffffffffffff1673ffffffffffffffffffffffffffffffffffffffff163373ffffffffffffffffffffffffffffffffffffffff161461096a576040517f08c379a00000000000000000000000000000000000000000000000000000000081526004018080602001828103825260188152602001807f63616c6c6572206973206e6f74207468652073656e646572000000000000000081525060200191505060405180910390fd5b6001600281111561097757fe5b6000809054906101000a900460ff16600281111561099157fe5b146109e7576040517f08c379a000000000000000000000000000000000000000000000000000000000815260040180806020018281038252603a815260200180611356603a913960400191505060405180910390fd5b60008060006101000a81548160ff02191690836002811115610a0557fe5b0217905550600160009054906101000a900473ffffffffffffffffffffffffffffffffffffffff1673ffffffffffffffffffffffffffffffffffffffff166108fc6003546002029081150290604051600060405180830381858888f19350505050158015610a77573d6000803e3d6000fd5b50565b600260009054906101000a900473ffffffffffffffffffffffffffffffffffffffff1673ffffffffffffffffffffffffffffffffffffffff163373ffffffffffffffffffffffffffffffffffffffff1614610b3d576040517f08c379a00000000000000000000000000000000000000000000000000000000081526004018080602001828103825260138152602001807f63616c6c6572206973206e6f742062757965720000000000000000000000000081525060200191505060405180910390fd5b60016002811115610b4a57fe5b600060019054906101000a900460ff166002811115610b6557fe5b14610bbb576040517f08c379a000000000000000000000000000000000000000000000000000000000815260040180806020018281038252603e8152602001806113b4603e913960400191505060405180910390fd5b60001515600460009054906101000a900460ff16151514610c44576040517f08c379a000000000000000000000000000000000000000000000000000000000815260040180806020018281038252601b8152602001807f61737365742068617320616c7265616479206265656e2073656e74000000000081525060200191505060405180910390fd5b60008060016101000a81548160ff02191690836002811115610c6257fe5b0217905550600260009054906101000a900473ffffffffffffffffffffffffffffffffffffffff1673ffffffffffffffffffffffffffffffffffffffff166108fc6003546004029081150290604051600060405180830381858888f19350505050158015610cd4573d6000803e3d6000fd5b50565b600460009054906101000a900460ff1681565b600060019054906101000a900460ff1681565b600160009054906101000a900473ffffffffffffffffffffffffffffffffffffffff1681565b600260009054906101000a900473ffffffffffffffffffffffffffffffffffffffff1681565b600047905090565b6000809054906101000a900460ff1681565b60035481565b600160009054906101000a900473ffffffffffffffffffffffffffffffffffffffff1673ffffffffffffffffffffffffffffffffffffffff163373ffffffffffffffffffffffffffffffffffffffff1614610e2c576040517f08c379a00000000000000000000000000000000000000000000000000000000081526004018080602001828103825260188152602001807f63616c6c6572206973206e6f74207468652073656e646572000000000000000081525060200191505060405180910390fd5b60016002811115610e3957fe5b6000809054906101000a900460ff166002811115610e5357fe5b14610ec6576040517f08c379a000000000000000000000000000000000000000000000000000000000815260040180806020018281038252601f8152602001807f73656e64657220686173206e6f7420796574206c6f636b20746865206574680081525060200191505060405180910390fd5b60016002811115610ed357fe5b600060019054906101000a900460ff166002811115610eee57fe5b14610f61576040517f08c379a000000000000000000000000000000000000000000000000000000000815260040180806020018281038252601e8152602001807f627579657220686173206e6f7420796574206c6f636b2074686520657468000081525060200191505060405180910390fd5b60001515600460009054906101000a900460ff16151514610fea576040517f08c379a00000000000000000000000000000000000000000000000000000000081526004018080602001828103825260128152602001807f617373657420616c72656164792073656e74000000000000000000000000000081525060200191505060405180910390fd5b6001600460006101000a81548160ff021916908315150217905550565b600460019054906101000a900460ff1681565b600260009054906101000a900473ffffffffffffffffffffffffffffffffffffffff1673ffffffffffffffffffffffffffffffffffffffff163373ffffffffffffffffffffffffffffffffffffffff16146110dd576040517f08c379a00000000000000000000000000000000000000000000000000000000081526004018080602001828103825260138152602001807f63616c6c6572206973206e6f742062757965720000000000000000000000000081525060200191505060405180910390fd5b60011515600460009054906101000a900460ff16151514611166576040517f08c379a00000000000000000000000000000000000000000000000000000000081526004018080602001828103825260178152602001807f617373657420686173206e6f74206265656e2073656e7400000000000000000081525060200191505060405180910390fd5b60001515600460019054906101000a900460ff161515146111ef576040517f08c379a000000000000000000000000000000000000000000000000000000000815260040180806020018281038252601c8152602001807f7472616e736665722068617320616c726561647920636f6e6669726d0000000081525060200191505060405180910390fd5b6001600460016101000a81548160ff02191690831515021790555060026000806101000a81548160ff0219169083600281111561122857fe5b02179055506002600060016101000a81548160ff0219169083600281111561124c57fe5b0217905550600160009054906101000a900473ffffffffffffffffffffffffffffffffffffffff1673ffffffffffffffffffffffffffffffffffffffff166108fc6003546003029081150290604051600060405180830381858888f193505050501580156112be573d6000803e3d6000fd5b50600260009054906101000a900473ffffffffffffffffffffffffffffffffffffffff1673ffffffffffffffffffffffffffffffffffffffff166108fc6003546003029081150290604051600060405180830381858888f1935050505015801561132c573d6000803e3d6000fd5b50565b600060029054906101000a900473ffffffffffffffffffffffffffffffffffffffff168156fe65697468657220796f752068617665206e6f74206c6f636b20657468206f7220796f75206861766520616c726561647920756e6c6f636b20697465746820746f206265206c6f636b2069732034782074696d652074686520616d6f756e746569746865722065746820686173206e6f74206265656e206c6f636b6564206f7220697420686173206265656e20616c726561647920756e6c6f636b656465746820746f206c6f636b2069732032782074696d652074686520616d6f756e74a2646970667358221220e509662e8e59721582d49e60732509d944a6cea21f99082ccc9497c407a4139a64736f6c63430006060033",
  "immutableReferences": {},
  "source": "// sender will lock 2x eth > buyer will lock 4x eth > sender will send the the asset > buyer will confirm\n// 3x : amount is 2 / 4 - 6 / sender sent asset > now sender 4 eth  + assest (worth 2 eth is locked) = 6 eth / and buyer 6 eth - asset(2eth) = 4th > so sender is at more disadvantage if buyer dont confim the transction\n// 4x : amount is 2 / 4 - 8 / sender sent asset > sender 4 eth + asset = 6th / buyer 8 eth - asset = 6 eth / now both have equal asset to loose\n\n// SPDX-License-Identifier: MIT\npragma solidity >=0.6.0 <0.7.0;\n\ncontract Escrow {\n    enum StateSender {HAVE_NOT_LOCK_ETH, ALREADY_LOCK_ETH, GOT_PAYMENT}\n    enum StateBuyer {HAVE_NOT_LOCK_ETH, ALREADY_LOCK_ETH, GOT_ASSET}\n\n    StateSender public currentStateSender;\n    StateBuyer public currentStateBuyer;\n\n    address public escrowAgent;\n    address payable public sender;\n    address payable public buyer;\n    uint256 public amount;\n\n    bool public assetSent;\n    bool public confirmTransfer;\n\n    constructor(address payable _sender, address payable _buyer) public {\n        escrowAgent = msg.sender;\n        sender = _sender;\n        buyer = _buyer;\n    }\n\n    function balanceOf() external view returns (uint256) {\n        return address(this).balance;\n    }\n\n    function senderLockEth(uint256 _amount) external payable {\n        require(msg.sender == sender, \"caller is not the sender\");\n        require(\n            currentStateBuyer == StateBuyer.HAVE_NOT_LOCK_ETH,\n            \"buyer has alrealy lock eth\"\n        );\n        require(\n            currentStateSender == StateSender.HAVE_NOT_LOCK_ETH,\n            \"sender has alrealy lock eth\"\n        );\n        require(msg.value == 2 * _amount, \"eth to lock is 2x time the amount\");\n\n        amount = _amount;\n        currentStateSender = StateSender.ALREADY_LOCK_ETH;\n    }\n\n    function senderUnlockEth() external {\n        require(msg.sender == sender, \"caller is not the sender\");\n        require(\n            currentStateSender == StateSender.ALREADY_LOCK_ETH,\n            \"either you have not lock eth or you have already unlock it\"\n        );\n\n        currentStateSender = StateSender.HAVE_NOT_LOCK_ETH;\n        sender.transfer(2 * amount);\n    }\n\n    function buyerLockEth() external payable {\n        require(msg.sender == buyer, \"caller is not buyer\");\n        require(\n            currentStateSender == StateSender.ALREADY_LOCK_ETH,\n            \"sender has not lock eth yet\"\n        );\n        require(\n            currentStateBuyer == StateBuyer.HAVE_NOT_LOCK_ETH,\n            \"alrealy lock eth\"\n        );\n        require(\n            msg.value == 4 * amount,\n            \"eth to be lock is 4x time the amount\"\n        );\n\n        currentStateBuyer = StateBuyer.ALREADY_LOCK_ETH;\n    }\n\n    function buyerUnlockEth() external {\n        require(msg.sender == buyer, \"caller is not buyer\");\n        require(\n            currentStateBuyer == StateBuyer.ALREADY_LOCK_ETH,\n            \"either eth has not been locked or it has been already unlocked\"\n        );\n        require(assetSent == false, \"asset has already been sent\");\n\n        currentStateBuyer = StateBuyer.HAVE_NOT_LOCK_ETH;\n        buyer.transfer(4 * amount);\n    }\n\n    function senderSendAsset() external {\n        require(msg.sender == sender, \"caller is not the sender\");\n        require(\n            currentStateSender == StateSender.ALREADY_LOCK_ETH,\n            \"sender has not yet lock the eth\"\n        );\n        require(\n            currentStateBuyer == StateBuyer.ALREADY_LOCK_ETH,\n            \"buyer has not yet lock the eth\"\n        );\n        require(assetSent == false, \"asset already sent\");\n\n        assetSent = true;\n    }\n\n    function buyerConfirmTranfer() external {\n        require(msg.sender == buyer, \"caller is not buyer\");\n        require(assetSent == true, \"asset has not been sent\");\n        require(confirmTransfer == false, \"transfer has already confirm\");\n\n        confirmTransfer = true;\n\n        currentStateSender = StateSender.GOT_PAYMENT;\n        currentStateBuyer = StateBuyer.GOT_ASSET;\n\n        sender.transfer(3 * amount);\n        buyer.transfer(3 * amount);\n\n        // we can cut some amount from both sender and buyer and  to escrow agent here as fees\n    }\n}\n",
  "sourcePath": "/home/dante/Iris/Study/Projects/Dapp30/day10_escrow/contracts/Escrow.sol",
  "compiler": {
    "name": "solc",
    "version": "0.6.6+commit.6c089d02.Emscripten.clang"
  },
  "schemaVersion": "3.2.0",
  "updatedAt": "2020-07-29T04:03:58.808Z",
  "devdoc": {
    "methods": {}
  },
  "userdoc": {
    "methods": {}
  }
}