{
    "contractName": "Factory2",
    "abi": [
        {
            "inputs": [],
            "stateMutability": "nonpayable",
            "type": "constructor"
        },
        {
            "inputs": [
                {
                    "internalType": "address[]",
                    "name": "_approvers",
                    "type": "address[]"
                },
                {
                    "internalType": "uint256",
                    "name": "_quorum",
                    "type": "uint256"
                }
            ],
            "name": "createMultiSigWallet",
            "outputs": [],
            "stateMutability": "nonpayable",
            "type": "function"
        },
        {
            "inputs": [],
            "name": "factoryOwner",
            "outputs": [
                {
                    "internalType": "address",
                    "name": "",
                    "type": "address"
                }
            ],
            "stateMutability": "view",
            "type": "function"
        },
        {
            "inputs": [],
            "name": "getAllWalletAddress",
            "outputs": [
                {
                    "internalType": "address[]",
                    "name": "",
                    "type": "address[]"
                }
            ],
            "stateMutability": "view",
            "type": "function"
        }
    ],
    "bytecode": "608060405234801561001057600080fd5b50600080546001600160a01b031916331790556113c5806100326000396000f3fe608060405234801561001057600080fd5b50600436106100415760003560e01c80634273601c14610046578063989c59c814610064578063f78038b614610079575b600080fd5b61004e61008e565b60405161005b919061023b565b60405180910390f35b6100776100723660046101c6565b61009d565b005b610081610157565b60405161005b91906102b9565b6000546001600160a01b031681565b818111156100c65760405162461bcd60e51b81526004016100bd90610306565b60405180910390fd5b6000838383336040516100d8906101b9565b6100e5949392919061024f565b604051809103906000f080158015610101573d6000803e3d6000fd5b506001805480820182556000919091527fb10e2d527612073b26eecdfd717e6a320cf44b4afac2b0732d9fcbe2b7fa0cf60180546001600160a01b0319166001600160a01b039290921691909117905550505050565b606060018054806020026020016040519081016040528092919081815260200182805480156101af57602002820191906000526020600020905b81546001600160a01b03168152600190910190602001808311610191575b5050505050905090565b61102c8061036483390190565b6000806000604084860312156101da578283fd5b833567ffffffffffffffff808211156101f1578485fd5b81860187601f820112610202578586fd5b8035925081831115610212578586fd5b8760208085028301011115610225578586fd5b6020908101989297509590950135945092505050565b6001600160a01b0391909116815260200190565b6060808252810184905260008560808301825b8781101561029657602083356001600160a01b038116808214610283578687fd5b8452509283019290910190600101610262565b50602084019590955250506001600160a01b039190911660409091015292915050565b6020808252825182820181905260009190848201906040850190845b818110156102fa5783516001600160a01b0316835292840192918401916001016102d5565b50909695505050505050565b6020808252603a908201527f71756f72756d2073686f756c64206265206c657373207468616e206f7220657160408201527f75616c20746f20746865206e6f206f6620617070726f7665727300000000000060608201526080019056fe60806040523480156200001157600080fd5b506040516200102c3803806200102c833981016040819052620000349162000222565b600080546001600160a01b0319166001600160a01b03831617905582516200006490600190602086019062000170565b50600282905560005b83518110156200012657600460008583815181106200008857fe5b6020908102919091018101516001600160a01b031682528101919091526040016000205460ff1615620000d85760405162461bcd60e51b8152600401620000cf90620002ed565b60405180910390fd5b600160046000868481518110620000eb57fe5b6020908102919091018101516001600160a01b03168252810191909152604001600020805460ff19169115159190911790556001016200006d565b506001600160a01b03811660009081526004602052604090205460ff161515600114620001675760405162461bcd60e51b8152600401620000cf906200033e565b505050620003e2565b828054828255906000526020600020908101928215620001c8579160200282015b82811115620001c857825182546001600160a01b0319166001600160a01b0390911617825560209092019160019091019062000191565b50620001d6929150620001da565b5090565b6200020191905b80821115620001d65780546001600160a01b0319168155600101620001e1565b90565b80516001600160a01b03811681146200021c57600080fd5b92915050565b60008060006060848603121562000237578283fd5b83516001600160401b038111156200024d578384fd5b80850186601f8201126200025f578485fd5b80519150620002786200027283620003c2565b6200039b565b80838252602080830192508084018a82838802870101111562000299578889fd5b8894505b85851015620002c757620002b28b8262000204565b8452600194909401939281019281016200029d565b508801519096509450620002e49250879150506040860162000204565b90509250925092565b60208082526031908201527f53616d6520616464726573732063616e74206265636f6d6520617070726f766560408201527072206d756c7469706c652074696d65732160781b606082015260800190565b60208082526036908201527f596f7520666f72676f7420746f2061646420796f7572206f776e20616464726560408201527f737320746f20617070726f766572732061727261792100000000000000000000606082015260800190565b6040518181016001600160401b0381118282101715620003ba57600080fd5b604052919050565b60006001600160401b03821115620003d8578081fd5b5060209081020190565b610c3a80620003f26000396000f3fe6080604052600436106100a05760003560e01c806365d8bf801161006457806365d8bf80146101e8578063722713f71461020a5780639377d7111461021f578063c290341d14610251578063cacca4a014610271578063d3650fb81461029157610125565b80631703a0181461012a5780631ae879e8146101555780633ac172dd1461017757806354b4aa4a146101995780635c2b441e146101bb57610125565b36610125573360009081526004602052604090205460ff1615156001146100e25760405162461bcd60e51b81526004016100d990610aac565b60405180910390fd5b336001600160a01b03167f7d5457e74922781ea8fe6b09f7e70e0788ed0f929f96a30e0fd54e070c57d3753460405161011b9190610baf565b60405180910390a2005b600080fd5b34801561013657600080fd5b5061013f6102b1565b60405161014c9190610baf565b60405180910390f35b34801561016157600080fd5b5061016a6102b7565b60405161014c91906109a9565b34801561018357600080fd5b50610197610192366004610941565b6102c6565b005b3480156101a557600080fd5b506101ae610485565b60405161014c9190610a0a565b3480156101c757600080fd5b506101db6101d636600461091e565b61052d565b60405161014c9190610aa1565b3480156101f457600080fd5b506101fd610542565b60405161014c91906109bd565b34801561021657600080fd5b5061013f6105a4565b34801561022b57600080fd5b5061023f61023a36600461097e565b6105a8565b60405161014c96959493929190610bb8565b34801561025d57600080fd5b506101db61026c36600461096c565b6105fd565b34801561027d57600080fd5b5061019761028c36600461097e565b61061d565b34801561029d57600080fd5b5061016a6102ac36600461097e565b6108f7565b60025481565b6000546001600160a01b031681565b3360009081526004602052604090205460ff1615156001146102fa5760405162461bcd60e51b81526004016100d990610aac565b808047101561031b5760405162461bcd60e51b81526004016100d990610ae3565b506040805160c0810182526003805480835260208301948552339383019384526001600160a01b039586166060840190815260006080850181815260a086018281526001850186559490915293517fc2575a0e9e593c00f959f8c92f12db2869c3395a3b0502d05e2516446f71f85b60069093029283015594517fc2575a0e9e593c00f959f8c92f12db2869c3395a3b0502d05e2516446f71f85c82015592517fc2575a0e9e593c00f959f8c92f12db2869c3395a3b0502d05e2516446f71f85d840180546001600160a01b031990811692881692909217905593517fc2575a0e9e593c00f959f8c92f12db2869c3395a3b0502d05e2516446f71f85e8401805490951695169490941790925590517fc2575a0e9e593c00f959f8c92f12db2869c3395a3b0502d05e2516446f71f85f82015590517fc2575a0e9e593c00f959f8c92f12db2869c3395a3b0502d05e2516446f71f860909101805460ff1916911515919091179055565b60606003805480602002602001604051908101604052809291908181526020016000905b828210156105245760008481526020908190206040805160c08101825260068602909201805483526001808201548486015260028201546001600160a01b039081169385019390935260038201549092166060840152600481015460808401526005015460ff16151560a083015290835290920191016104a9565b50505050905090565b60046020526000908152604090205460ff1681565b6060600180548060200260200160405190810160405280929190818152602001828054801561059a57602002820191906000526020600020905b81546001600160a01b0316815260019091019060200180831161057c575b5050505050905090565b4790565b600381815481106105b557fe5b600091825260209091206006909102018054600182015460028301546003840154600485015460059095015493955091936001600160a01b0391821693929091169160ff1686565b600560209081526000928352604080842090915290825290205460ff1681565b3360009081526004602052604090205460ff1615156001146106515760405162461bcd60e51b81526004016100d990610aac565b6003818154811061065e57fe5b906000526020600020906006020160010154804710156106905760405162461bcd60e51b81526004016100d990610ae3565b6003828154811061069d57fe5b600091825260209091206005600690920201015460ff16156106d15760405162461bcd60e51b81526004016100d990610b78565b33600090815260056020908152604080832085845290915290205460ff161561070c5760405162461bcd60e51b81526004016100d990610b30565b6003828154811061071957fe5b60009182526020808320600460069093020191909101805460019081019091553383526005825260408084208685529092529120805460ff19169091179055600254600380548490811061076957fe5b906000526020600020906006020160040154106108f35760016003838154811061078f57fe5b906000526020600020906006020160050160006101000a81548160ff021916908315150217905550600382815481106107c457fe5b60009182526020909120600360069092020181015481546001600160a01b03909116916108fc91859081106107f557fe5b9060005260206000209060060201600101549081150290604051600060405180830381858888f19350505050158015610832573d6000803e3d6000fd5b506003828154811061084057fe5b60009182526020909120600360069092020181015481546001600160a01b0390911691908490811061086e57fe5b906000526020600020906006020160020160009054906101000a90046001600160a01b03166001600160a01b0316837f0c42533a821580a4793536ce97ea52a70f7ffcc66a675e9f9a47e4f63914586c600386815481106108cb57fe5b9060005260206000209060060201600101546040516108ea9190610baf565b60405180910390a45b5050565b6001818154811061090457fe5b6000918252602090912001546001600160a01b0316905081565b60006020828403121561092f578081fd5b813561093a81610bec565b9392505050565b60008060408385031215610953578081fd5b823561095e81610bec565b946020939093013593505050565b60008060408385031215610953578182fd5b60006020828403121561098f578081fd5b5035919050565b6001600160a01b03169052565b15159052565b6001600160a01b0391909116815260200190565b6020808252825182820181905260009190848201906040850190845b818110156109fe5783516001600160a01b0316835292840192918401916001016109d9565b50909695505050505050565b602080825282518282018190526000919060409081850190868401855b82811015610a9457815180518552868101518786015285810151610a4d87870182610996565b50606080820151610a6082880182610996565b50506080818101519086015260a080820151610a7e828801826109a3565b50505060c0939093019290850190600101610a27565b5091979650505050505050565b901515815260200190565b60208082526017908201527f43616c6c6572206973206e6f7420617070726f76657221000000000000000000604082015260600190565b6020808252602d908201527f54686520636f6e747261637420686173206e6f742073756666656369656e742060408201526c62616c616e6365206c6566742160981b606082015260800190565b60208082526028908201527f596f75206861766520616c726561647920617070726f7665642074686973207460408201526772616e736665722160c01b606082015260800190565b6020808252601f908201527f5472616e736665722068617320616c7265616479206265656e2073656e742100604082015260600190565b90815260200190565b95865260208601949094526001600160a01b039283166040860152911660608401526080830152151560a082015260c00190565b6001600160a01b0381168114610c0157600080fd5b5056fea26469706673582212201417f63c444ac8368351e2be85297fd43cb43a6a45f58fab1ef5b7836387c12464736f6c63430006060033a2646970667358221220397581ae0e698a75d5f5babac27b03735bab4672b15a3034668aae8ea184950264736f6c63430006060033",
    "sourcePath": "/home/dante/Iris/Study/Projects/Dapp30/day12_miltiSigWallet/contracts/MultiSigWallet2.sol",
    "compiler": {
        "name": "solc",
        "version": "0.6.6+commit.6c089d02"
    },
    "functionHashes": {
        "createMultiSigWallet(address[],uint256)": "989c59c8",
        "factoryOwner()": "4273601c",
        "getAllWalletAddress()": "f78038b6"
    },
    "gasEstimates": {
        "creation": {
            "codeDepositCost": "1012200",
            "executionCost": "21889",
            "totalCost": "1034089"
        },
        "external": {
            "createMultiSigWallet(address[],uint256)": "infinite",
            "factoryOwner()": "1048",
            "getAllWalletAddress()": "infinite"
        }
    }
}