{
  "contractName": "DAO",
  "abi": [
    {
      "inputs": [
        {
          "internalType": "uint256",
          "name": "_contributeTime",
          "type": "uint256"
        },
        {
          "internalType": "uint256",
          "name": "_voteTimeLimit",
          "type": "uint256"
        },
        {
          "internalType": "uint256",
          "name": "_quorum",
          "type": "uint256"
        }
      ],
      "stateMutability": "nonpayable",
      "type": "constructor"
    },
    {
      "anonymous": false,
      "inputs": [
        {
          "indexed": true,
          "internalType": "address",
          "name": "_from",
          "type": "address"
        },
        {
          "indexed": false,
          "internalType": "uint256",
          "name": "_amount",
          "type": "uint256"
        }
      ],
      "name": "Deposite",
      "type": "event"
    },
    {
      "anonymous": false,
      "inputs": [
        {
          "indexed": true,
          "internalType": "address",
          "name": "_from",
          "type": "address"
        },
        {
          "indexed": true,
          "internalType": "address",
          "name": "_to",
          "type": "address"
        },
        {
          "indexed": false,
          "internalType": "uint256",
          "name": "_amount",
          "type": "uint256"
        }
      ],
      "name": "Transfer",
      "type": "event"
    },
    {
      "inputs": [],
      "name": "admin",
      "outputs": [
        {
          "internalType": "address",
          "name": "",
          "type": "address"
        }
      ],
      "stateMutability": "view",
      "type": "function",
      "constant": true
    },
    {
      "inputs": [],
      "name": "availabeAmout",
      "outputs": [
        {
          "internalType": "uint256",
          "name": "",
          "type": "uint256"
        }
      ],
      "stateMutability": "view",
      "type": "function",
      "constant": true
    },
    {
      "inputs": [],
      "name": "contributeEndTime",
      "outputs": [
        {
          "internalType": "uint256",
          "name": "",
          "type": "uint256"
        }
      ],
      "stateMutability": "view",
      "type": "function",
      "constant": true
    },
    {
      "inputs": [
        {
          "internalType": "address",
          "name": "",
          "type": "address"
        }
      ],
      "name": "investors",
      "outputs": [
        {
          "internalType": "bool",
          "name": "isInvestor",
          "type": "bool"
        },
        {
          "internalType": "uint256",
          "name": "shares",
          "type": "uint256"
        }
      ],
      "stateMutability": "view",
      "type": "function",
      "constant": true
    },
    {
      "inputs": [
        {
          "internalType": "uint256",
          "name": "",
          "type": "uint256"
        }
      ],
      "name": "investorsArr",
      "outputs": [
        {
          "internalType": "address",
          "name": "",
          "type": "address"
        }
      ],
      "stateMutability": "view",
      "type": "function",
      "constant": true
    },
    {
      "inputs": [],
      "name": "nextProposalIds",
      "outputs": [
        {
          "internalType": "uint256",
          "name": "",
          "type": "uint256"
        }
      ],
      "stateMutability": "view",
      "type": "function",
      "constant": true
    },
    {
      "inputs": [
        {
          "internalType": "uint256",
          "name": "",
          "type": "uint256"
        }
      ],
      "name": "proposals",
      "outputs": [
        {
          "internalType": "bool",
          "name": "proposalExist",
          "type": "bool"
        },
        {
          "internalType": "uint256",
          "name": "propsalId",
          "type": "uint256"
        },
        {
          "internalType": "string",
          "name": "proposalName",
          "type": "string"
        },
        {
          "internalType": "uint256",
          "name": "amount",
          "type": "uint256"
        },
        {
          "internalType": "address payable",
          "name": "recipient",
          "type": "address"
        },
        {
          "internalType": "uint256",
          "name": "votesRecievedPerShare",
          "type": "uint256"
        },
        {
          "internalType": "uint256",
          "name": "votingEndTime",
          "type": "uint256"
        },
        {
          "internalType": "bool",
          "name": "executed",
          "type": "bool"
        },
        {
          "internalType": "bool",
          "name": "proposalPassed",
          "type": "bool"
        }
      ],
      "stateMutability": "view",
      "type": "function",
      "constant": true
    },
    {
      "inputs": [],
      "name": "quorum",
      "outputs": [
        {
          "internalType": "uint256",
          "name": "",
          "type": "uint256"
        }
      ],
      "stateMutability": "view",
      "type": "function",
      "constant": true
    },
    {
      "inputs": [],
      "name": "totalShares",
      "outputs": [
        {
          "internalType": "uint256",
          "name": "",
          "type": "uint256"
        }
      ],
      "stateMutability": "view",
      "type": "function",
      "constant": true
    },
    {
      "inputs": [],
      "name": "voteTimeLimit",
      "outputs": [
        {
          "internalType": "uint256",
          "name": "",
          "type": "uint256"
        }
      ],
      "stateMutability": "view",
      "type": "function",
      "constant": true
    },
    {
      "inputs": [
        {
          "internalType": "address",
          "name": "",
          "type": "address"
        },
        {
          "internalType": "uint256",
          "name": "",
          "type": "uint256"
        }
      ],
      "name": "votes",
      "outputs": [
        {
          "internalType": "bool",
          "name": "",
          "type": "bool"
        }
      ],
      "stateMutability": "view",
      "type": "function",
      "constant": true
    },
    {
      "stateMutability": "payable",
      "type": "receive",
      "payable": true
    },
    {
      "inputs": [],
      "name": "contribute",
      "outputs": [],
      "stateMutability": "payable",
      "type": "function",
      "payable": true
    },
    {
      "inputs": [
        {
          "internalType": "string",
          "name": "_name",
          "type": "string"
        },
        {
          "internalType": "uint256",
          "name": "_amount",
          "type": "uint256"
        },
        {
          "internalType": "address payable",
          "name": "_recipient",
          "type": "address"
        }
      ],
      "name": "createProposal",
      "outputs": [],
      "stateMutability": "nonpayable",
      "type": "function"
    },
    {
      "inputs": [
        {
          "internalType": "uint256",
          "name": "_proposalId",
          "type": "uint256"
        }
      ],
      "name": "vote",
      "outputs": [],
      "stateMutability": "nonpayable",
      "type": "function"
    },
    {
      "inputs": [
        {
          "internalType": "uint256",
          "name": "_proposalId",
          "type": "uint256"
        }
      ],
      "name": "executeTransfer",
      "outputs": [],
      "stateMutability": "nonpayable",
      "type": "function"
    },
    {
      "inputs": [],
      "name": "getTimeStamp",
      "outputs": [
        {
          "internalType": "uint256",
          "name": "",
          "type": "uint256"
        }
      ],
      "stateMutability": "view",
      "type": "function",
      "constant": true
    },
    {
      "inputs": [],
      "name": "balanceOf",
      "outputs": [
        {
          "internalType": "uint256",
          "name": "",
          "type": "uint256"
        }
      ],
      "stateMutability": "view",
      "type": "function",
      "constant": true
    }
  ],
  "bytecode": "0x608060405234801561001057600080fd5b506040516116c03803806116c08339818101604052606081101561003357600080fd5b81019080805190602001909291908051906020019092919080519060200190929190505050336000806101000a81548173ffffffffffffffffffffffffffffffffffffffff021916908373ffffffffffffffffffffffffffffffffffffffff16021790555082420160018190555081600281905550806003819055505050506115ff806100c16000396000f3fe6080604052600436106101025760003560e01c80637110399b11610095578063d7bb99ba11610064578063d7bb99ba146105d7578063da235b22146105e1578063eba46c1d1461060c578063f05d575214610637578063f851a4401461067257610157565b80637110399b146104e5578063722713f7146105105780638cdc7e3a1461053b5780639f2524ee1461056657610157565b80633a98ef39116100d15780633a98ef39146102f55780636ac1e01f146103205780636b85a433146104125780636f7bc9be1461047757610157565b80630121b93f1461015c578063013cf08b146101975780631703a0181461029f578063196d6a96146102ca57610157565b36610157573373ffffffffffffffffffffffffffffffffffffffff167f67d0e209d76ed24370106b1fd0fc1c82de411f7b72ba3d92736b75fe4add443a346040518082815260200191505060405180910390a2005b600080fd5b34801561016857600080fd5b506101956004803603602081101561017f57600080fd5b81019080803590602001909291905050506106b3565b005b3480156101a357600080fd5b506101d0600480360360208110156101ba57600080fd5b8101908080359060200190929190505050610a33565b604051808a15158152602001898152602001806020018881526020018773ffffffffffffffffffffffffffffffffffffffff16815260200186815260200185815260200184151581526020018315158152602001828103825289818151815260200191508051906020019080838360005b8381101561025c578082015181840152602081019050610241565b50505050905090810190601f1680156102895780820380516001836020036101000a031916815260200191505b509a505050505050505050505060405180910390f35b3480156102ab57600080fd5b506102b4610b60565b6040518082815260200191505060405180910390f35b3480156102d657600080fd5b506102df610b66565b6040518082815260200191505060405180910390f35b34801561030157600080fd5b5061030a610b6c565b6040518082815260200191505060405180910390f35b34801561032c57600080fd5b506104106004803603606081101561034357600080fd5b810190808035906020019064010000000081111561036057600080fd5b82018360208201111561037257600080fd5b8035906020019184600183028401116401000000008311171561039457600080fd5b91908080601f016020809104026020016040519081016040528093929190818152602001838380828437600081840152601f19601f82011690508083019250505050505050919291929080359060200190929190803573ffffffffffffffffffffffffffffffffffffffff169060200190929190505050610b72565b005b34801561041e57600080fd5b5061044b6004803603602081101561043557600080fd5b8101908080359060200190929190505050610d71565b604051808273ffffffffffffffffffffffffffffffffffffffff16815260200191505060405180910390f35b34801561048357600080fd5b506104c66004803603602081101561049a57600080fd5b81019080803573ffffffffffffffffffffffffffffffffffffffff169060200190929190505050610dad565b6040518083151581526020018281526020019250505060405180910390f35b3480156104f157600080fd5b506104fa610dde565b6040518082815260200191505060405180910390f35b34801561051c57600080fd5b50610525610de4565b6040518082815260200191505060405180910390f35b34801561054757600080fd5b50610550610dec565b6040518082815260200191505060405180910390f35b34801561057257600080fd5b506105bf6004803603604081101561058957600080fd5b81019080803573ffffffffffffffffffffffffffffffffffffffff16906020019092919080359060200190929190505050610df2565b60405180821515815260200191505060405180910390f35b6105df610e21565b005b3480156105ed57600080fd5b506105f6610ffa565b6040518082815260200191505060405180910390f35b34801561061857600080fd5b50610621611002565b6040518082815260200191505060405180910390f35b34801561064357600080fd5b506106706004803603602081101561065a57600080fd5b8101908080359060200190929190505050611008565b005b34801561067e57600080fd5b50610687611311565b604051808273ffffffffffffffffffffffffffffffffffffffff16815260200191505060405180910390f35b80600115156009600083815260200190815260200160002060000160009054906101000a900460ff16151514610751576040517f08c379a00000000000000000000000000000000000000000000000000000000081526004018080602001828103825260188152602001807f50726f706f73616c20646f6573206e6f7420657869737421000000000000000081525060200191505060405180910390fd5b60011515600760003373ffffffffffffffffffffffffffffffffffffffff1673ffffffffffffffffffffffffffffffffffffffff16815260200190815260200160002060000160009054906101000a900460ff1615151461081a576040517f08c379a00000000000000000000000000000000000000000000000000000000081526004018080602001828103825260198152602001807f43616c6c6572206973206e6f74206120696e766573746f72210000000000000081525060200191505060405180910390fd5b60096000838152602001908152602001600020600601544211156108a6576040517f08c379a000000000000000000000000000000000000000000000000000000000815260040180806020018281038252601f8152602001807f566f74696e6720706572696f642068617320616c7265647920656e646564210081525060200191505060405180910390fd5b60001515600a60003373ffffffffffffffffffffffffffffffffffffffff1673ffffffffffffffffffffffffffffffffffffffff168152602001908152602001600020600084815260200190815260200160002060009054906101000a900460ff16151514610960576040517f08c379a00000000000000000000000000000000000000000000000000000000081526004018080602001828103825260298152602001806115a16029913960400191505060405180910390fd5b6001600a60003373ffffffffffffffffffffffffffffffffffffffff1673ffffffffffffffffffffffffffffffffffffffff168152602001908152602001600020600084815260200190815260200160002060006101000a81548160ff021916908315150217905550600760003373ffffffffffffffffffffffffffffffffffffffff1673ffffffffffffffffffffffffffffffffffffffff1681526020019081526020016000206001015460096000848152602001908152602001600020600501600082825401925050819055505050565b60096020528060005260406000206000915090508060000160009054906101000a900460ff1690806001015490806002018054600181600116156101000203166002900480601f016020809104026020016040519081016040528092919081815260200182805460018160011615610100020316600290048015610af85780601f10610acd57610100808354040283529160200191610af8565b820191906000526020600020905b815481529060010190602001808311610adb57829003601f168201915b5050505050908060030154908060040160009054906101000a900473ffffffffffffffffffffffffffffffffffffffff16908060050154908060060154908060070160009054906101000a900460ff16908060070160019054906101000a900460ff16905089565b60035481565b60085481565b60045481565b60011515600760003373ffffffffffffffffffffffffffffffffffffffff1673ffffffffffffffffffffffffffffffffffffffff16815260200190815260200160002060000160009054906101000a900460ff16151514610c3b576040517f08c379a00000000000000000000000000000000000000000000000000000000081526004018080602001828103825260198152602001807f43616c6c6572206973206e6f74206120696e766573746f72210000000000000081525060200191505060405180910390fd5b600554821115610c96576040517f08c379a000000000000000000000000000000000000000000000000000000000815260040180806020018281038252602f815260200180611523602f913960400191505060405180910390fd5b6000600960006008548152602001908152602001600020905060018160000160006101000a81548160ff021916908315150217905550600854816001018190555083816002019080519060200190610cef92919061145b565b50828160030181905550818160040160006101000a81548173ffffffffffffffffffffffffffffffffffffffff021916908373ffffffffffffffffffffffffffffffffffffffff160217905550600254420181600601819055508260056000828254039250508190555060086000815480929190600101919050555050505050565b60068181548110610d7e57fe5b906000526020600020016000915054906101000a900473ffffffffffffffffffffffffffffffffffffffff1681565b60076020528060005260406000206000915090508060000160009054906101000a900460ff16908060010154905082565b60025481565b600047905090565b60015481565b600a6020528160005260406000206020528060005260406000206000915091509054906101000a900460ff1681565b600154421115610e7c576040517f08c379a00000000000000000000000000000000000000000000000000000000081526004018080602001828103825260288152602001806115796028913960400191505060405180910390fd5b6001600760003373ffffffffffffffffffffffffffffffffffffffff1673ffffffffffffffffffffffffffffffffffffffff16815260200190815260200160002060000160006101000a81548160ff02191690831515021790555034600760003373ffffffffffffffffffffffffffffffffffffffff1673ffffffffffffffffffffffffffffffffffffffff168152602001908152602001600020600101600082825401925050819055506006339080600181540180825580915050600190039060005260206000200160009091909190916101000a81548173ffffffffffffffffffffffffffffffffffffffff021916908373ffffffffffffffffffffffffffffffffffffffff16021790555034600460008282540192505081905550346005600082825401925050819055503373ffffffffffffffffffffffffffffffffffffffff167f67d0e209d76ed24370106b1fd0fc1c82de411f7b72ba3d92736b75fe4add443a346040518082815260200191505060405180910390a2565b600042905090565b60055481565b80600115156009600083815260200190815260200160002060000160009054906101000a900460ff161515146110a6576040517f08c379a00000000000000000000000000000000000000000000000000000000081526004018080602001828103825260188152602001807f50726f706f73616c20646f6573206e6f7420657869737421000000000000000081525060200191505060405180910390fd5b60008054906101000a900473ffffffffffffffffffffffffffffffffffffffff1673ffffffffffffffffffffffffffffffffffffffff163373ffffffffffffffffffffffffffffffffffffffff1614611167576040517f08c379a00000000000000000000000000000000000000000000000000000000081526004018080602001828103825260158152602001807f43616c6c6572206973206e6f74202061646d696e21000000000000000000000081525060200191505060405180910390fd5b6000600960008481526020019081526020016000209050600015158160070160009054906101000a900460ff161515146111ec576040517f08c379a00000000000000000000000000000000000000000000000000000000081526004018080602001828103825260278152602001806115526027913960400191505060405180910390fd5b80600601544211611248576040517f08c379a000000000000000000000000000000000000000000000000000000000815260040180806020018281038252602a8152602001806114f9602a913960400191505060405180910390fd5b60018160070160006101000a81548160ff021916908315150217905550600060045460648360050154028161127957fe5b04905060035481106112d95760018260070160016101000a81548160ff0219169083151502179055506112d482600301548360040160009054906101000a900473ffffffffffffffffffffffffffffffffffffffff16611335565b61130b565b60008260070160016101000a81548160ff02191690831515021790555081600301546005600082825401925050819055505b50505050565b60008054906101000a900473ffffffffffffffffffffffffffffffffffffffff1681565b478211156113ab576040517f08c379a000000000000000000000000000000000000000000000000000000000815260040180806020018281038252601f8152602001807f5468652044616f2068617320696e73756666696369656e742066756e6473210081525060200191505060405180910390fd5b8073ffffffffffffffffffffffffffffffffffffffff166108fc839081150290604051600060405180830381858888f193505050501580156113f1573d6000803e3d6000fd5b508073ffffffffffffffffffffffffffffffffffffffff163373ffffffffffffffffffffffffffffffffffffffff167fddf252ad1be2c89b69c2b068fc378daa952ba7f163c4a11628f55a4df523b3ef846040518082815260200191505060405180910390a35050565b828054600181600116156101000203166002900490600052602060002090601f016020900481019282601f1061149c57805160ff19168380011785556114ca565b828001600101855582156114ca579182015b828111156114c95782518255916020019190600101906114ae565b5b5090506114d791906114db565b5090565b5b808211156114f45760008160009055506001016114dc565b509056fe54686520766f74696e6720666f7220746869732070726f706f73616c206861736e277420656e6465642144616f2068617320696e73756666696369656e742066756e6473206174207468652063757272656e742074696d65215468652070726f706f73616c2068617320616c7265616479206265656e2065786563757465642154686520696e766573746d656e7420706572696f642068617320616c726561647920656e64656421596f75206861766520616c726561647920766f74656420666f7220746869732070726f706f73616c21a26469706673582212209872ffba80f1c97d6e55a6aabc569cb9b60478de3525e6fb4d10915d5a1306a764736f6c63430007000033",
  "immutableReferences": {},
  "source": "// SPDX-License-Identifier:MIT\npragma solidity ^0.7.0;\n\n// Functionaly to be added \n// create an erc20 token to be given as incentive to investors and how to utilize it like when benifits gains from burning it\n// redeemShares(uint _amount)                   :  according to the market value of dao using oracal\n// transferShare(uint _amount, address _to)     :  buying and selling of shares in other exchange platforms\n// create an emergeny exit path in such a way that u can distibute amount per share\n\ncontract DAO {\n    address public admin;\n    uint public contributeEndTime;\n    uint public voteTimeLimit;\n    uint public quorum;      // total percentage of votes required\n    uint public totalShares; // 1 wei = 1 share\n    uint public availabeAmout;  \n    \n    struct Innvestor {\n        bool isInvestor;\n        uint shares;\n    }\n    address[] public investorsArr;\n    mapping(address => Innvestor) public investors;\n    // mapping(address => bool) public investors;\n    // mapping(address => uint) public shares;\n    // mapping(address => mapping(bool => uint) public investors;\n    \n    struct Proposal {\n        bool proposalExist;\n        uint propsalId;\n        string proposalName;\n        uint amount;\n        address payable recipient;\n        uint votesRecievedPerShare;\n        uint votingEndTime;\n        bool executed;\n        bool proposalPassed;\n    }\n    uint public nextProposalIds;\n    mapping(uint => Proposal) public proposals;\n    \n    mapping(address => mapping(uint => bool)) public votes;\n    \n    event Deposite(address indexed _from, uint _amount);\n    event Transfer(address indexed _from, address indexed _to, uint _amount);\n    \n    constructor(uint _contributeTime, uint _voteTimeLimit, uint _quorum) {\n        admin = msg.sender;\n        contributeEndTime = block.timestamp + _contributeTime;\n        voteTimeLimit = _voteTimeLimit;\n        quorum = _quorum;\n    }\n    \n    function contribute() external payable {\n        require(block.timestamp <= contributeEndTime, \"The investment period has already ended!\");\n        investors[msg.sender].isInvestor = true;\n        investors[msg.sender].shares += msg.value;\n        investorsArr.push(msg.sender);\n        \n        totalShares += msg.value;\n        availabeAmout += msg.value;\n        emit Deposite(msg.sender, msg.value);\n    }\n    \n    function createProposal(string memory _name, uint _amount, address payable _recipient) external onlyInvestors() {\n        require(_amount <= availabeAmout, \"Dao has insufficient funds at the current time!\");\n        Proposal storage _proposal = proposals[nextProposalIds];\n        _proposal.proposalExist = true;\n        _proposal.propsalId = nextProposalIds;\n        _proposal.proposalName = _name;\n        _proposal.amount = _amount;\n        _proposal.recipient = _recipient;\n        _proposal.votingEndTime = block.timestamp + voteTimeLimit;\n        \n        availabeAmout -= _amount;\n        nextProposalIds++;\n    }\n    \n    function vote(uint _proposalId) external proposalExist(_proposalId) onlyInvestors() {\n        require(block.timestamp <= proposals[_proposalId].votingEndTime, \"Voting period has alredy ended!\");\n        require(votes[msg.sender][_proposalId] == false, \"You have already voted for this proposal!\");\n        \n        votes[msg.sender][_proposalId] = true;\n        proposals[_proposalId].votesRecievedPerShare += investors[msg.sender].shares; \n    }\n    \n    function executeTransfer(uint _proposalId) external proposalExist(_proposalId) onlyAdmin() {\n        Proposal storage _proposal = proposals[_proposalId];\n        require(_proposal.executed == false, \"The proposal has already been executed!\");\n        require(block.timestamp > _proposal.votingEndTime, \"The voting for this proposal hasn't ended!\");\n        \n        _proposal.executed = true;\n        // uint votingPercent = _proposal.votesRecievedPerShare / totalShares * 100;\n        uint _votingPercent = (_proposal.votesRecievedPerShare * 100) / totalShares ;\n    \n        if(_votingPercent >= quorum) {\n            _proposal.proposalPassed = true;\n            _transferAmount(_proposal.amount, _proposal.recipient);\n        } else {\n            _proposal.proposalPassed = false;\n            availabeAmout += _proposal.amount;\n        }\n    }\n    \n    function _transferAmount(uint _amount, address payable _to) internal {\n        require(_amount <= address(this).balance, \"The Dao has insufficient funds!\");\n        _to.transfer(_amount);\n        emit Transfer(msg.sender, _to, _amount);\n    }\n    \n    // function emergencyExit(uint _amount, address payable _to) external onlyAdmin() {\n    //     _to.transfer(_amount);\n    //     emit Transfer(msg.sender, _to, _amount);\n    // }\n    \n    //  propblem : 100(_totalAvailabeBalance) / 200(totalShares)  = 0\n    // function emergencyExit() external onlyAdmin() {\n    //     uint _totalAvailabeBalance = address(this).balance;\n    //     require(_totalAvailabeBalance > 0, \"The Dao contract does not have any funds\");\n        \n    //     uint _amount;\n    //     uint _perShareAmount = _totalAvailabeBalance / totalShares;    \n            \n    //     for(uint i = 0; i < investorsArr.length; i++) {\n    //         if(investors[investorsArr[i]].shares > 0) {\n    //             _amount = investors[investorsArr[i]].shares * _perShareAmount;\n    //             payable(investorsArr[i]).transfer(_amount);\n    //             emit Transfer(msg.sender, investorsArr[i], _amount);\n    //         }\n    //     }\n    //     _totalAvailabeBalance = address(this).balance;\n    //     if(_totalAvailabeBalance > 0) {\n    //         msg.sender.transfer(_totalAvailabeBalance);\n    //         emit Transfer(msg.sender, msg.sender, _totalAvailabeBalance)    ;\n    //     }\n    // }\n\n    function getTimeStamp() external view returns(uint) {\n        return block.timestamp;\n    } \n    \n    function balanceOf() external view returns(uint) {\n        return address(this).balance;\n    }\n    \n    //For ether returns of proposal investments\n    receive() external payable {\n        emit Deposite(msg.sender, msg.value);\n    }\n    \n    modifier onlyInvestors() {\n        require(investors[msg.sender].isInvestor == true, \"Caller is not a investor!\");\n        _;\n    }\n    \n    modifier onlyAdmin() {\n        require(msg.sender == admin, \"Caller is not  admin!\");\n        _;\n    }\n    \n    modifier proposalExist(uint _proposalId) {\n        require(proposals[_proposalId].proposalExist == true, \"Proposal does not exist!\");\n        _;\n    }\n}",
  "sourcePath": "/home/dante/Iris/Study/Projects/Dapp30/day15_dao/contracts/DAO.sol",
  "compiler": {
    "name": "solc",
    "version": "0.7.0+commit.9e61f92b.Emscripten.clang"
  },
  "schemaVersion": "3.2.3",
  "updatedAt": "2020-08-24T22:20:08.233Z",
  "networkType": "ethereum",
  "devdoc": {
    "kind": "dev",
    "methods": {},
    "version": 1
  },
  "userdoc": {
    "kind": "user",
    "methods": {},
    "version": 1
  }
}