{
  "contractName": "AssetSellingAuction",
  "abi": [
    {
      "inputs": [
        {
          "internalType": "address",
          "name": "_assetTokenAddress",
          "type": "address"
        }
      ],
      "stateMutability": "nonpayable",
      "type": "constructor"
    },
    {
      "inputs": [
        {
          "internalType": "uint256",
          "name": "",
          "type": "uint256"
        }
      ],
      "name": "auctionDetails",
      "outputs": [
        {
          "internalType": "uint256",
          "name": "_startingPrice",
          "type": "uint256"
        },
        {
          "internalType": "uint256",
          "name": "_auctionStartTime",
          "type": "uint256"
        },
        {
          "internalType": "uint256",
          "name": "_auctionEndTime",
          "type": "uint256"
        },
        {
          "internalType": "uint256",
          "name": "_currentPrice",
          "type": "uint256"
        },
        {
          "internalType": "address",
          "name": "_currentLeader",
          "type": "address"
        }
      ],
      "stateMutability": "view",
      "type": "function"
    },
    {
      "inputs": [
        {
          "internalType": "uint256",
          "name": "",
          "type": "uint256"
        }
      ],
      "name": "tokenSellingDetails",
      "outputs": [
        {
          "internalType": "uint256",
          "name": "_price",
          "type": "uint256"
        },
        {
          "internalType": "bool",
          "name": "_sold",
          "type": "bool"
        }
      ],
      "stateMutability": "view",
      "type": "function"
    },
    {
      "inputs": [
        {
          "internalType": "uint256",
          "name": "_tokenId",
          "type": "uint256"
        },
        {
          "internalType": "uint256",
          "name": "_price",
          "type": "uint256"
        }
      ],
      "name": "sellToken",
      "outputs": [],
      "stateMutability": "nonpayable",
      "type": "function"
    },
    {
      "inputs": [
        {
          "internalType": "uint256",
          "name": "_tokenId",
          "type": "uint256"
        }
      ],
      "name": "buyToken",
      "outputs": [],
      "stateMutability": "payable",
      "type": "function"
    },
    {
      "inputs": [
        {
          "internalType": "uint256",
          "name": "_tokenId",
          "type": "uint256"
        },
        {
          "internalType": "uint256",
          "name": "_startingPrice",
          "type": "uint256"
        },
        {
          "internalType": "uint256",
          "name": "_auctionStartTime",
          "type": "uint256"
        },
        {
          "internalType": "uint256",
          "name": "_auctionEndTime",
          "type": "uint256"
        }
      ],
      "name": "setAuctionDetails",
      "outputs": [],
      "stateMutability": "nonpayable",
      "type": "function"
    },
    {
      "inputs": [
        {
          "internalType": "uint256",
          "name": "_tokenId",
          "type": "uint256"
        }
      ],
      "name": "makeBid",
      "outputs": [],
      "stateMutability": "payable",
      "type": "function"
    },
    {
      "inputs": [
        {
          "internalType": "uint256",
          "name": "_tokenId",
          "type": "uint256"
        }
      ],
      "name": "claimBack",
      "outputs": [],
      "stateMutability": "nonpayable",
      "type": "function"
    }
  ],
  "bytecode": "0x608060405234801561001057600080fd5b5060405161114e38038061114e8339818101604052602081101561003357600080fd5b810190808051906020019092919050505080600260006101000a81548173ffffffffffffffffffffffffffffffffffffffff021916908373ffffffffffffffffffffffffffffffffffffffff160217905550506110b9806100956000396000f3fe6080604052600436106100705760003560e01c80634bdece781161004e5780634bdece7814610116578063733682091461016f5780637d529d72146101c75780638603d31a1461020257610070565b8063175b2304146100755780631897bcf3146100a35780632d296bf1146100e8575b600080fd5b6100a16004803603602081101561008b57600080fd5b8101908080359060200190929190505050610283565b005b3480156100af57600080fd5b506100e6600480360360408110156100c657600080fd5b810190808035906020019092919080359060200190929190505050610464565b005b610114600480360360208110156100fe57600080fd5b81019080803590602001909291905050506106c7565b005b34801561012257600080fd5b5061016d6004803603608081101561013957600080fd5b81019080803590602001909291908035906020019092919080359060200190929190803590602001909291905050506109d3565b005b34801561017b57600080fd5b506101a86004803603602081101561019257600080fd5b8101908080359060200190929190505050610c73565b6040518083815260200182151581526020019250505060405180910390f35b3480156101d357600080fd5b50610200600480360360208110156101ea57600080fd5b8101908080359060200190929190505050610ca4565b005b34801561020e57600080fd5b5061023b6004803603602081101561022557600080fd5b810190808035906020019092919050505061102d565b604051808681526020018581526020018481526020018381526020018273ffffffffffffffffffffffffffffffffffffffff1681526020019550505050505060405180910390f35b806000600260009054906101000a900473ffffffffffffffffffffffffffffffffffffffff1673ffffffffffffffffffffffffffffffffffffffff16636352211e836040518263ffffffff1660e01b81526004018082815260200191505060206040518083038186803b1580156102f957600080fd5b505afa15801561030d573d6000803e3d6000fd5b505050506040513d602081101561032357600080fd5b8101908080519060200190929190505050905060006001600085815260200190815260200160002090504281600101541080156103635750428160020154115b61036c57600080fd5b60008160050160003373ffffffffffffffffffffffffffffffffffffffff1673ffffffffffffffffffffffffffffffffffffffff1681526020019081526020016000205434019050816000015481101580156103cb5750816003015481115b6103d457600080fd5b338260040160006101000a81548173ffffffffffffffffffffffffffffffffffffffff021916908373ffffffffffffffffffffffffffffffffffffffff160217905550808260050160003373ffffffffffffffffffffffffffffffffffffffff1673ffffffffffffffffffffffffffffffffffffffff168152602001908152602001600020819055505050505050565b816000600260009054906101000a900473ffffffffffffffffffffffffffffffffffffffff1673ffffffffffffffffffffffffffffffffffffffff16636352211e836040518263ffffffff1660e01b81526004018082815260200191505060206040518083038186803b1580156104da57600080fd5b505afa1580156104ee573d6000803e3d6000fd5b505050506040513d602081101561050457600080fd5b810190808051906020019092919050505090503373ffffffffffffffffffffffffffffffffffffffff16600260009054906101000a900473ffffffffffffffffffffffffffffffffffffffff1673ffffffffffffffffffffffffffffffffffffffff16636352211e866040518263ffffffff1660e01b81526004018082815260200191505060206040518083038186803b1580156105a157600080fd5b505afa1580156105b5573d6000803e3d6000fd5b505050506040513d60208110156105cb57600080fd5b810190808051906020019092919050505073ffffffffffffffffffffffffffffffffffffffff16146105fc57600080fd5b8260008086815260200190815260200160002060000181905550600260009054906101000a900473ffffffffffffffffffffffffffffffffffffffff1673ffffffffffffffffffffffffffffffffffffffff1663095ea7b330866040518363ffffffff1660e01b8152600401808373ffffffffffffffffffffffffffffffffffffffff16815260200182815260200192505050600060405180830381600087803b1580156106a957600080fd5b505af11580156106bd573d6000803e3d6000fd5b5050505050505050565b806000600260009054906101000a900473ffffffffffffffffffffffffffffffffffffffff1673ffffffffffffffffffffffffffffffffffffffff16636352211e836040518263ffffffff1660e01b81526004018082815260200191505060206040518083038186803b15801561073d57600080fd5b505afa158015610751573d6000803e3d6000fd5b505050506040513d602081101561076757600080fd5b8101908080519060200190929190505050905060008084815260200190815260200160002060010160009054906101000a900460ff16156107a757600080fd5b6000808481526020019081526020016000206000015434146107c857600080fd5b600160008085815260200190815260200160002060010160006101000a81548160ff0219169083151502179055506000600260009054906101000a900473ffffffffffffffffffffffffffffffffffffffff1673ffffffffffffffffffffffffffffffffffffffff16636352211e856040518263ffffffff1660e01b81526004018082815260200191505060206040518083038186803b15801561086b57600080fd5b505afa15801561087f573d6000803e3d6000fd5b505050506040513d602081101561089557600080fd5b810190808051906020019092919050505090508073ffffffffffffffffffffffffffffffffffffffff166108fc600080878152602001908152602001600020600001549081150290604051600060405180830381858888f19350505050158015610903573d6000803e3d6000fd5b50600260009054906101000a900473ffffffffffffffffffffffffffffffffffffffff1673ffffffffffffffffffffffffffffffffffffffff166323b872dd8233876040518463ffffffff1660e01b8152600401808473ffffffffffffffffffffffffffffffffffffffff1681526020018373ffffffffffffffffffffffffffffffffffffffff1681526020018281526020019350505050600060405180830381600087803b1580156109b557600080fd5b505af11580156109c9573d6000803e3d6000fd5b5050505050505050565b836000600260009054906101000a900473ffffffffffffffffffffffffffffffffffffffff1673ffffffffffffffffffffffffffffffffffffffff16636352211e836040518263ffffffff1660e01b81526004018082815260200191505060206040518083038186803b158015610a4957600080fd5b505afa158015610a5d573d6000803e3d6000fd5b505050506040513d6020811015610a7357600080fd5b810190808051906020019092919050505090503373ffffffffffffffffffffffffffffffffffffffff16600260009054906101000a900473ffffffffffffffffffffffffffffffffffffffff1673ffffffffffffffffffffffffffffffffffffffff16636352211e886040518263ffffffff1660e01b81526004018082815260200191505060206040518083038186803b158015610b1057600080fd5b505afa158015610b24573d6000803e3d6000fd5b505050506040513d6020811015610b3a57600080fd5b810190808051906020019092919050505073ffffffffffffffffffffffffffffffffffffffff1614610b6b57600080fd5b84600160008881526020019081526020016000206000018190555083420160016000888152602001908152602001600020600101819055508242016001600088815260200190815260200160002060020181905550600260009054906101000a900473ffffffffffffffffffffffffffffffffffffffff1673ffffffffffffffffffffffffffffffffffffffff1663095ea7b330886040518363ffffffff1660e01b8152600401808373ffffffffffffffffffffffffffffffffffffffff16815260200182815260200192505050600060405180830381600087803b158015610c5357600080fd5b505af1158015610c67573d6000803e3d6000fd5b50505050505050505050565b60006020528060005260406000206000915090508060000154908060010160009054906101000a900460ff16905082565b806000600260009054906101000a900473ffffffffffffffffffffffffffffffffffffffff1673ffffffffffffffffffffffffffffffffffffffff16636352211e836040518263ffffffff1660e01b81526004018082815260200191505060206040518083038186803b158015610d1a57600080fd5b505afa158015610d2e573d6000803e3d6000fd5b505050506040513d6020811015610d4457600080fd5b81019080805190602001909291905050509050600060016000858152602001908152602001600020905042816002015410610d7e57600080fd5b8060040160009054906101000a900473ffffffffffffffffffffffffffffffffffffffff1673ffffffffffffffffffffffffffffffffffffffff163373ffffffffffffffffffffffffffffffffffffffff161415610f5157600260009054906101000a900473ffffffffffffffffffffffffffffffffffffffff1673ffffffffffffffffffffffffffffffffffffffff166323b872dd600260009054906101000a900473ffffffffffffffffffffffffffffffffffffffff1673ffffffffffffffffffffffffffffffffffffffff16636352211e876040518263ffffffff1660e01b81526004018082815260200191505060206040518083038186803b158015610e8757600080fd5b505afa158015610e9b573d6000803e3d6000fd5b505050506040513d6020811015610eb157600080fd5b810190808051906020019092919050505033876040518463ffffffff1660e01b8152600401808473ffffffffffffffffffffffffffffffffffffffff1681526020018373ffffffffffffffffffffffffffffffffffffffff1681526020018281526020019350505050600060405180830381600087803b158015610f3457600080fd5b505af1158015610f48573d6000803e3d6000fd5b50505050611027565b60008160050160003373ffffffffffffffffffffffffffffffffffffffff1673ffffffffffffffffffffffffffffffffffffffff16815260200190815260200160002054905060008260050160003373ffffffffffffffffffffffffffffffffffffffff1673ffffffffffffffffffffffffffffffffffffffff168152602001908152602001600020819055503373ffffffffffffffffffffffffffffffffffffffff166108fc829081150290604051600060405180830381858888f19350505050158015611024573d6000803e3d6000fd5b50505b50505050565b60016020528060005260406000206000915090508060000154908060010154908060020154908060030154908060040160009054906101000a900473ffffffffffffffffffffffffffffffffffffffff1690508556fea264697066735822122085a5a2d24f02bfc7667ea1d8f280481fa492a1d36ca00953f965a34b842ebcf564736f6c63430007010033",
  "immutableReferences": {},
  "source": "// SPDX-License-Identifier: MIT\npragma solidity >=0.7.0 <0.8.0;\n\nimport \".././node_modules/@openzeppelin/contracts/token/ERC721/IERC721.sol\";\n\ncontract AssetSellingAuction {\n    struct TokenSelling {\n        uint256 _price;\n        bool _sold;\n    }\n    mapping(uint256 => TokenSelling) public tokenSellingDetails;\n\n    struct Auction {\n        uint256 _startingPrice;\n        uint256 _auctionStartTime;\n        uint256 _auctionEndTime;\n        uint256 _currentPrice;\n        address _currentLeader;\n        mapping(address => uint256) _bids;\n    }\n    mapping(uint256 => Auction) public auctionDetails;\n\n    address assetTokenAddress;\n\n    constructor(address _assetTokenAddress) {\n        assetTokenAddress = _assetTokenAddress;\n    }\n\n    // we can add the requient that before selling or auction u have to take approval og majarity investors\n    function sellToken(uint256 _tokenId, uint256 _price) external tokenExist(_tokenId){\n        require(IERC721(assetTokenAddress).ownerOf(_tokenId) == msg.sender);\n\n        tokenSellingDetails[_tokenId]._price = _price;\n        IERC721(assetTokenAddress).approve(address(this), _tokenId);\n    }\n\n    function buyToken(uint256 _tokenId) external payable tokenExist(_tokenId){\n        require(!tokenSellingDetails[_tokenId]._sold);\n        require(msg.value == tokenSellingDetails[_tokenId]._price);\n\n        tokenSellingDetails[_tokenId]._sold = true;\n\n        address _tokenOwner = IERC721(assetTokenAddress).ownerOf(_tokenId);\n\n        // send the money to the owner\n        payable(_tokenOwner).transfer(tokenSellingDetails[_tokenId]._price);\n\n        // tranfer the token\n        IERC721(assetTokenAddress).transferFrom(_tokenOwner, msg.sender, _tokenId);\n    }\n\n    // can also add kyc logic\n    function setAuctionDetails(\n        uint256 _tokenId,\n        uint256 _startingPrice,\n        uint256 _auctionStartTime,\n        uint256 _auctionEndTime\n    ) external tokenExist(_tokenId) {\n        require(IERC721(assetTokenAddress).ownerOf(_tokenId) == msg.sender);\n\n        auctionDetails[_tokenId]._startingPrice = _startingPrice;\n        auctionDetails[_tokenId]._auctionStartTime =\n            block.timestamp +\n            _auctionStartTime;\n        auctionDetails[_tokenId]._auctionEndTime =\n            block.timestamp +\n            _auctionEndTime;\n\n        IERC721(assetTokenAddress).approve(address(this), _tokenId);\n    }\n\n    // currently we are kepping the stakes in this conctract, but  can seprate int selling/auctioning token logic\n    function makeBid(uint256 _tokenId) external payable tokenExist(_tokenId) {\n        Auction storage auctionToken = auctionDetails[_tokenId];\n\n        require(\n            auctionToken._auctionStartTime < block.timestamp &&\n                auctionToken._auctionEndTime > block.timestamp\n        );\n\n        uint256 _bid = msg.value + auctionToken._bids[msg.sender];\n        require(\n            _bid >= auctionToken._startingPrice &&\n                _bid > auctionToken._currentPrice\n        );\n\n        auctionToken._currentLeader = msg.sender;\n        auctionToken._bids[msg.sender] = _bid;\n    }\n\n    // later check the optimization in case we create seprate function without if\n    // for auction\n    function claimBack(uint256 _tokenId) external tokenExist(_tokenId) {\n        Auction storage auctionToken = auctionDetails[_tokenId];\n\n        require(auctionToken._auctionEndTime < block.timestamp);\n\n        if (msg.sender == auctionToken._currentLeader) {\n            IERC721(assetTokenAddress).transferFrom(IERC721(assetTokenAddress).ownerOf(_tokenId), msg.sender, _tokenId);\n        } else {\n            uint256 _bid = auctionToken._bids[msg.sender];\n            auctionToken._bids[msg.sender] = 0;\n            msg.sender.transfer(_bid);\n        }\n    }\n\n    // if the token does not exit it will trow a erroe\n    modifier tokenExist(uint _tokenId) {\n        address _dummy = IERC721(assetTokenAddress).ownerOf(_tokenId);\n        _;\n    }\n}\n",
  "sourcePath": "/home/dante/Iris/Study/Git/ethereum/Smart Contracts/refungible_token/contracts/AssetSellingAuction.sol",
  "compiler": {
    "name": "solc",
    "version": "0.7.1+commit.f4a555be.Emscripten.clang"
  },
  "schemaVersion": "3.2.3",
  "updatedAt": "2020-11-22T15:26:43.799Z",
  "devdoc": {
    "kind": "dev",
    "methods": {},
    "version": 1
  },
  "userdoc": {
    "kind": "user",
    "methods": {},
    "version": 1
  }
}