{
  "contractName": "Asset",
  "abi": [
    {
      "inputs": [
        {
          "internalType": "string",
          "name": "_name",
          "type": "string"
        },
        {
          "internalType": "string",
          "name": "_symbol",
          "type": "string"
        }
      ],
      "stateMutability": "nonpayable",
      "type": "constructor"
    },
    {
      "anonymous": false,
      "inputs": [
        {
          "indexed": true,
          "internalType": "address",
          "name": "owner",
          "type": "address"
        },
        {
          "indexed": true,
          "internalType": "address",
          "name": "approved",
          "type": "address"
        },
        {
          "indexed": true,
          "internalType": "uint256",
          "name": "tokenId",
          "type": "uint256"
        }
      ],
      "name": "Approval",
      "type": "event"
    },
    {
      "anonymous": false,
      "inputs": [
        {
          "indexed": true,
          "internalType": "address",
          "name": "owner",
          "type": "address"
        },
        {
          "indexed": true,
          "internalType": "address",
          "name": "operator",
          "type": "address"
        },
        {
          "indexed": false,
          "internalType": "bool",
          "name": "approved",
          "type": "bool"
        }
      ],
      "name": "ApprovalForAll",
      "type": "event"
    },
    {
      "anonymous": false,
      "inputs": [
        {
          "indexed": true,
          "internalType": "address",
          "name": "from",
          "type": "address"
        },
        {
          "indexed": true,
          "internalType": "address",
          "name": "to",
          "type": "address"
        },
        {
          "indexed": true,
          "internalType": "uint256",
          "name": "tokenId",
          "type": "uint256"
        }
      ],
      "name": "Transfer",
      "type": "event"
    },
    {
      "inputs": [
        {
          "internalType": "address",
          "name": "to",
          "type": "address"
        },
        {
          "internalType": "uint256",
          "name": "tokenId",
          "type": "uint256"
        }
      ],
      "name": "approve",
      "outputs": [],
      "stateMutability": "nonpayable",
      "type": "function"
    },
    {
      "inputs": [],
      "name": "assetManger",
      "outputs": [
        {
          "internalType": "address",
          "name": "",
          "type": "address"
        }
      ],
      "stateMutability": "view",
      "type": "function"
    },
    {
      "inputs": [
        {
          "internalType": "address",
          "name": "owner",
          "type": "address"
        }
      ],
      "name": "balanceOf",
      "outputs": [
        {
          "internalType": "uint256",
          "name": "",
          "type": "uint256"
        }
      ],
      "stateMutability": "view",
      "type": "function"
    },
    {
      "inputs": [],
      "name": "baseURI",
      "outputs": [
        {
          "internalType": "string",
          "name": "",
          "type": "string"
        }
      ],
      "stateMutability": "view",
      "type": "function"
    },
    {
      "inputs": [
        {
          "internalType": "uint256",
          "name": "tokenId",
          "type": "uint256"
        }
      ],
      "name": "getApproved",
      "outputs": [
        {
          "internalType": "address",
          "name": "",
          "type": "address"
        }
      ],
      "stateMutability": "view",
      "type": "function"
    },
    {
      "inputs": [
        {
          "internalType": "uint256",
          "name": "",
          "type": "uint256"
        }
      ],
      "name": "investmentContractAddressMapping",
      "outputs": [
        {
          "internalType": "address",
          "name": "",
          "type": "address"
        }
      ],
      "stateMutability": "view",
      "type": "function"
    },
    {
      "inputs": [
        {
          "internalType": "address",
          "name": "owner",
          "type": "address"
        },
        {
          "internalType": "address",
          "name": "operator",
          "type": "address"
        }
      ],
      "name": "isApprovedForAll",
      "outputs": [
        {
          "internalType": "bool",
          "name": "",
          "type": "bool"
        }
      ],
      "stateMutability": "view",
      "type": "function"
    },
    {
      "inputs": [],
      "name": "name",
      "outputs": [
        {
          "internalType": "string",
          "name": "",
          "type": "string"
        }
      ],
      "stateMutability": "view",
      "type": "function"
    },
    {
      "inputs": [
        {
          "internalType": "uint256",
          "name": "tokenId",
          "type": "uint256"
        }
      ],
      "name": "ownerOf",
      "outputs": [
        {
          "internalType": "address",
          "name": "",
          "type": "address"
        }
      ],
      "stateMutability": "view",
      "type": "function"
    },
    {
      "inputs": [
        {
          "internalType": "address",
          "name": "from",
          "type": "address"
        },
        {
          "internalType": "address",
          "name": "to",
          "type": "address"
        },
        {
          "internalType": "uint256",
          "name": "tokenId",
          "type": "uint256"
        }
      ],
      "name": "safeTransferFrom",
      "outputs": [],
      "stateMutability": "nonpayable",
      "type": "function"
    },
    {
      "inputs": [
        {
          "internalType": "address",
          "name": "from",
          "type": "address"
        },
        {
          "internalType": "address",
          "name": "to",
          "type": "address"
        },
        {
          "internalType": "uint256",
          "name": "tokenId",
          "type": "uint256"
        },
        {
          "internalType": "bytes",
          "name": "_data",
          "type": "bytes"
        }
      ],
      "name": "safeTransferFrom",
      "outputs": [],
      "stateMutability": "nonpayable",
      "type": "function"
    },
    {
      "inputs": [
        {
          "internalType": "address",
          "name": "operator",
          "type": "address"
        },
        {
          "internalType": "bool",
          "name": "approved",
          "type": "bool"
        }
      ],
      "name": "setApprovalForAll",
      "outputs": [],
      "stateMutability": "nonpayable",
      "type": "function"
    },
    {
      "inputs": [
        {
          "internalType": "bytes4",
          "name": "interfaceId",
          "type": "bytes4"
        }
      ],
      "name": "supportsInterface",
      "outputs": [
        {
          "internalType": "bool",
          "name": "",
          "type": "bool"
        }
      ],
      "stateMutability": "view",
      "type": "function"
    },
    {
      "inputs": [],
      "name": "symbol",
      "outputs": [
        {
          "internalType": "string",
          "name": "",
          "type": "string"
        }
      ],
      "stateMutability": "view",
      "type": "function"
    },
    {
      "inputs": [
        {
          "internalType": "uint256",
          "name": "index",
          "type": "uint256"
        }
      ],
      "name": "tokenByIndex",
      "outputs": [
        {
          "internalType": "uint256",
          "name": "",
          "type": "uint256"
        }
      ],
      "stateMutability": "view",
      "type": "function"
    },
    {
      "inputs": [
        {
          "internalType": "address",
          "name": "owner",
          "type": "address"
        },
        {
          "internalType": "uint256",
          "name": "index",
          "type": "uint256"
        }
      ],
      "name": "tokenOfOwnerByIndex",
      "outputs": [
        {
          "internalType": "uint256",
          "name": "",
          "type": "uint256"
        }
      ],
      "stateMutability": "view",
      "type": "function"
    },
    {
      "inputs": [
        {
          "internalType": "uint256",
          "name": "tokenId",
          "type": "uint256"
        }
      ],
      "name": "tokenURI",
      "outputs": [
        {
          "internalType": "string",
          "name": "",
          "type": "string"
        }
      ],
      "stateMutability": "view",
      "type": "function"
    },
    {
      "inputs": [],
      "name": "totalSupply",
      "outputs": [
        {
          "internalType": "uint256",
          "name": "",
          "type": "uint256"
        }
      ],
      "stateMutability": "view",
      "type": "function"
    },
    {
      "inputs": [
        {
          "internalType": "address",
          "name": "from",
          "type": "address"
        },
        {
          "internalType": "address",
          "name": "to",
          "type": "address"
        },
        {
          "internalType": "uint256",
          "name": "tokenId",
          "type": "uint256"
        }
      ],
      "name": "transferFrom",
      "outputs": [],
      "stateMutability": "nonpayable",
      "type": "function"
    },
    {
      "inputs": [
        {
          "internalType": "address",
          "name": "_to",
          "type": "address"
        },
        {
          "internalType": "uint256",
          "name": "_tokenId",
          "type": "uint256"
        },
        {
          "internalType": "string",
          "name": "_rftName",
          "type": "string"
        },
        {
          "internalType": "string",
          "name": "_rftSymbol",
          "type": "string"
        },
        {
          "internalType": "uint256",
          "name": "_shareSupply",
          "type": "uint256"
        },
        {
          "internalType": "uint256",
          "name": "_sharePrice",
          "type": "uint256"
        }
      ],
      "name": "mint",
      "outputs": [],
      "stateMutability": "nonpayable",
      "type": "function"
    },
    {
      "inputs": [],
      "name": "listTokenIds",
      "outputs": [
        {
          "internalType": "uint256[]",
          "name": "",
          "type": "uint256[]"
        }
      ],
      "stateMutability": "view",
      "type": "function"
    }
  ],
  "bytecode": "0x60806040523480156200001157600080fd5b506040516200552938038062005529833981810160405260408110156200003757600080fd5b81019080805160405193929190846401000000008211156200005857600080fd5b838201915060208201858111156200006f57600080fd5b82518660018202830111640100000000821117156200008d57600080fd5b8083526020830192505050908051906020019080838360005b83811015620000c3578082015181840152602081019050620000a6565b50505050905090810190601f168015620000f15780820380516001836020036101000a031916815260200191505b50604052602001805160405193929190846401000000008211156200011557600080fd5b838201915060208201858111156200012c57600080fd5b82518660018202830111640100000000821117156200014a57600080fd5b8083526020830192505050908051906020019080838360005b838110156200018057808201518184015260208101905062000163565b50505050905090810190601f168015620001ae5780820380516001836020036101000a031916815260200191505b506040525050508181620001cf6301ffc9a760e01b6200029460201b60201c565b8160069080519060200190620001e79291906200039d565b508060079080519060200190620002009291906200039d565b50620002196380ac58cd60e01b6200029460201b60201c565b62000231635b5e139f60e01b6200029460201b60201c565b6200024963780e9d6360e01b6200029460201b60201c565b505033600a60006101000a81548173ffffffffffffffffffffffffffffffffffffffff021916908373ffffffffffffffffffffffffffffffffffffffff160217905550505062000443565b63ffffffff60e01b817bffffffffffffffffffffffffffffffffffffffffffffffffffffffff1916141562000331576040517f08c379a000000000000000000000000000000000000000000000000000000000815260040180806020018281038252601c8152602001807f4552433136353a20696e76616c696420696e746572666163652069640000000081525060200191505060405180910390fd5b6001600080837bffffffffffffffffffffffffffffffffffffffffffffffffffffffff19167bffffffffffffffffffffffffffffffffffffffffffffffffffffffff1916815260200190815260200160002060006101000a81548160ff02191690831515021790555050565b828054600181600116156101000203166002900490600052602060002090601f016020900481019282601f10620003e057805160ff191683800117855562000411565b8280016001018555821562000411579182015b8281111562000410578251825591602001919060010190620003f3565b5b50905062000420919062000424565b5090565b5b808211156200043f57600081600090555060010162000425565b5090565b6150d680620004536000396000f3fe60806040523480156200001157600080fd5b5060043610620001545760003560e01c80636352211e11620000c9578063a22cb4651162000087578063a22cb4651462000723578063b268245e1462000776578063b88d4fde146200088b578063c87b56dd1462000996578063dc87f8621462000a43578063e985e9c51462000a795762000154565b80636352211e14620004fa5780636c0360eb146200055557806370a0823114620005dd57806395d89b4114620006385780639a49806a14620006c05762000154565b8063184cff351162000117578063184cff35146200031357806323b872dd146200036e5780632f745c5914620003df57806342842e0e14620004445780634f6ccce714620004b55762000154565b806301ffc9a7146200015957806306fdde0314620001bf578063081812fc1462000247578063095ea7b314620002a257806318160ddd14620002f3575b600080fd5b620001a7600480360360208110156200017157600080fd5b8101908080357bffffffffffffffffffffffffffffffffffffffffffffffffffffffff1916906020019092919050505062000af6565b60405180821515815260200191505060405180910390f35b620001c962000b5d565b6040518080602001828103825283818151815260200191508051906020019080838360005b838110156200020b578082015181840152602081019050620001ee565b50505050905090810190601f168015620002395780820380516001836020036101000a031916815260200191505b509250505060405180910390f35b62000276600480360360208110156200025f57600080fd5b810190808035906020019092919050505062000c03565b604051808273ffffffffffffffffffffffffffffffffffffffff16815260200191505060405180910390f35b620002f160048036036040811015620002ba57600080fd5b81019080803573ffffffffffffffffffffffffffffffffffffffff1690602001909291908035906020019092919050505062000ca2565b005b620002fd62000df5565b6040518082815260200191505060405180910390f35b62000342600480360360208110156200032b57600080fd5b810190808035906020019092919050505062000e08565b604051808273ffffffffffffffffffffffffffffffffffffffff16815260200191505060405180910390f35b620003dd600480360360608110156200038657600080fd5b81019080803573ffffffffffffffffffffffffffffffffffffffff169060200190929190803573ffffffffffffffffffffffffffffffffffffffff1690602001909291908035906020019092919050505062000e3b565b005b6200042e60048036036040811015620003f757600080fd5b81019080803573ffffffffffffffffffffffffffffffffffffffff1690602001909291908035906020019092919050505062000eb9565b6040518082815260200191505060405180910390f35b620004b3600480360360608110156200045c57600080fd5b81019080803573ffffffffffffffffffffffffffffffffffffffff169060200190929190803573ffffffffffffffffffffffffffffffffffffffff1690602001909291908035906020019092919050505062000f16565b005b620004e460048036036020811015620004cd57600080fd5b810190808035906020019092919050505062000f38565b6040518082815260200191505060405180910390f35b62000529600480360360208110156200051257600080fd5b810190808035906020019092919050505062000f5d565b604051808273ffffffffffffffffffffffffffffffffffffffff16815260200191505060405180910390f35b6200055f62000f97565b6040518080602001828103825283818151815260200191508051906020019080838360005b83811015620005a157808201518184015260208101905062000584565b50505050905090810190601f168015620005cf5780820380516001836020036101000a031916815260200191505b509250505060405180910390f35b6200062260048036036020811015620005f557600080fd5b81019080803573ffffffffffffffffffffffffffffffffffffffff1690602001909291905050506200103d565b6040518082815260200191505060405180910390f35b6200064262001116565b6040518080602001828103825283818151815260200191508051906020019080838360005b838110156200068457808201518184015260208101905062000667565b50505050905090810190601f168015620006b25780820380516001836020036101000a031916815260200191505b509250505060405180910390f35b620006ca620011bc565b6040518080602001828103825283818151815260200191508051906020019060200280838360005b838110156200070f578082015181840152602081019050620006f2565b505050509050019250505060405180910390f35b62000774600480360360408110156200073b57600080fd5b81019080803573ffffffffffffffffffffffffffffffffffffffff16906020019092919080351515906020019092919050505062001216565b005b62000889600480360360c08110156200078e57600080fd5b81019080803573ffffffffffffffffffffffffffffffffffffffff1690602001909291908035906020019092919080359060200190640100000000811115620007d657600080fd5b820183602082011115620007e957600080fd5b803590602001918460018302840111640100000000831117156200080c57600080fd5b9091929391929390803590602001906401000000008111156200082e57600080fd5b8201836020820111156200084157600080fd5b803590602001918460018302840111640100000000831117156200086457600080fd5b90919293919293908035906020019092919080359060200190929190505050620013d3565b005b6200099460048036036080811015620008a357600080fd5b81019080803573ffffffffffffffffffffffffffffffffffffffff169060200190929190803573ffffffffffffffffffffffffffffffffffffffff16906020019092919080359060200190929190803590602001906401000000008111156200090b57600080fd5b8201836020820111156200091e57600080fd5b803590602001918460018302840111640100000000831117156200094157600080fd5b91908080601f016020809104026020016040519081016040528093929190818152602001838380828437600081840152601f19601f82011690508083019250505050505050919291929050505062001591565b005b620009c560048036036020811015620009ae57600080fd5b810190808035906020019092919050505062001611565b6040518080602001828103825283818151815260200191508051906020019080838360005b8381101562000a07578082015181840152602081019050620009ea565b50505050905090810190601f16801562000a355780820380516001836020036101000a031916815260200191505b509250505060405180910390f35b62000a4d62001914565b604051808273ffffffffffffffffffffffffffffffffffffffff16815260200191505060405180910390f35b62000ade6004803603604081101562000a9157600080fd5b81019080803573ffffffffffffffffffffffffffffffffffffffff169060200190929190803573ffffffffffffffffffffffffffffffffffffffff1690602001909291905050506200193a565b60405180821515815260200191505060405180910390f35b6000806000837bffffffffffffffffffffffffffffffffffffffffffffffffffffffff19167bffffffffffffffffffffffffffffffffffffffffffffffffffffffff1916815260200190815260200160002060009054906101000a900460ff169050919050565b606060068054600181600116156101000203166002900480601f01602080910402602001604051908101604052809291908181526020018280546001816001161561010002031660029004801562000bf95780601f1062000bcd5761010080835404028352916020019162000bf9565b820191906000526020600020905b81548152906001019060200180831162000bdb57829003601f168201915b5050505050905090565b600062000c1082620019ce565b62000c67576040517f08c379a000000000000000000000000000000000000000000000000000000000815260040180806020018281038252602c81526020018062004fcb602c913960400191505060405180910390fd5b6004600083815260200190815260200160002060009054906101000a900473ffffffffffffffffffffffffffffffffffffffff169050919050565b600062000caf8262000f5d565b90508073ffffffffffffffffffffffffffffffffffffffff168373ffffffffffffffffffffffffffffffffffffffff16141562000d38576040517f08c379a00000000000000000000000000000000000000000000000000000000081526004018080602001828103825260218152602001806200504f6021913960400191505060405180910390fd5b8073ffffffffffffffffffffffffffffffffffffffff1662000d59620019ed565b73ffffffffffffffffffffffffffffffffffffffff16148062000d8d575062000d8c8162000d86620019ed565b6200193a565b5b62000de4576040517f08c379a000000000000000000000000000000000000000000000000000000000815260040180806020018281038252603881526020018062004f1e6038913960400191505060405180910390fd5b62000df08383620019f5565b505050565b600062000e03600262001ab0565b905090565b600c6020528060005260406000206000915054906101000a900473ffffffffffffffffffffffffffffffffffffffff1681565b62000e5062000e49620019ed565b8262001ac7565b62000ea7576040517f08c379a0000000000000000000000000000000000000000000000000000000008152600401808060200182810382526031815260200180620050706031913960400191505060405180910390fd5b62000eb483838362001bc7565b505050565b600062000f0e82600160008673ffffffffffffffffffffffffffffffffffffffff1673ffffffffffffffffffffffffffffffffffffffff16815260200190815260200160002062001e1a90919063ffffffff16565b905092915050565b62000f338383836040518060200160405280600081525062001591565b505050565b60008062000f5183600262001e3690919063ffffffff16565b50905080915050919050565b600062000f908260405180606001604052806029815260200162004f8060299139600262001e649092919063ffffffff16565b9050919050565b606060098054600181600116156101000203166002900480601f016020809104026020016040519081016040528092919081815260200182805460018160011615610100020316600290048015620010335780601f10620010075761010080835404028352916020019162001033565b820191906000526020600020905b8154815290600101906020018083116200101557829003601f168201915b5050505050905090565b60008073ffffffffffffffffffffffffffffffffffffffff168273ffffffffffffffffffffffffffffffffffffffff161415620010c6576040517f08c379a000000000000000000000000000000000000000000000000000000000815260040180806020018281038252602a81526020018062004f56602a913960400191505060405180910390fd5b6200110f600160008473ffffffffffffffffffffffffffffffffffffffff1673ffffffffffffffffffffffffffffffffffffffff16815260200190815260200160002062001e85565b9050919050565b606060078054600181600116156101000203166002900480601f016020809104026020016040519081016040528092919081815260200182805460018160011615610100020316600290048015620011b25780601f106200118657610100808354040283529160200191620011b2565b820191906000526020600020905b8154815290600101906020018083116200119457829003601f168201915b5050505050905090565b6060600b8054806020026020016040519081016040528092919081815260200182805480156200120c57602002820191906000526020600020905b815481526020019060010190808311620011f7575b5050505050905090565b62001220620019ed565b73ffffffffffffffffffffffffffffffffffffffff168273ffffffffffffffffffffffffffffffffffffffff161415620012c2576040517f08c379a00000000000000000000000000000000000000000000000000000000081526004018080602001828103825260198152602001807f4552433732313a20617070726f766520746f2063616c6c65720000000000000081525060200191505060405180910390fd5b8060056000620012d1620019ed565b73ffffffffffffffffffffffffffffffffffffffff1673ffffffffffffffffffffffffffffffffffffffff16815260200190815260200160002060008473ffffffffffffffffffffffffffffffffffffffff1673ffffffffffffffffffffffffffffffffffffffff16815260200190815260200160002060006101000a81548160ff0219169083151502179055508173ffffffffffffffffffffffffffffffffffffffff1662001380620019ed565b73ffffffffffffffffffffffffffffffffffffffff167f17307eab39ab6107e8899845ad3d59bd9653f200f220920489ca2b5937696c318360405180821515815260200191505060405180910390a35050565b600a60009054906101000a900473ffffffffffffffffffffffffffffffffffffffff1673ffffffffffffffffffffffffffffffffffffffff163373ffffffffffffffffffffffffffffffffffffffff16146200142e57600080fd5b6200143a888862001e9c565b6000868686868b878730604051620014529062002c59565b8080602001806020018781526020018681526020018581526020018473ffffffffffffffffffffffffffffffffffffffff16815260200183810383528b8b82818152602001925080828437600081840152601f19601f8201169050808301925050508381038252898982818152602001925080828437600081840152601f19601f8201169050808301925050509a5050505050505050505050604051809103906000f08015801562001508573d6000803e3d6000fd5b50905080600c60008a815260200190815260200160002060006101000a81548173ffffffffffffffffffffffffffffffffffffffff021916908373ffffffffffffffffffffffffffffffffffffffff160217905550600b889080600181540180825580915050600190039060005260206000200160009091909190915055505050505050505050565b620015a66200159f620019ed565b8362001ac7565b620015fd576040517f08c379a0000000000000000000000000000000000000000000000000000000008152600401808060200182810382526031815260200180620050706031913960400191505060405180910390fd5b6200160b848484846200209a565b50505050565b60606200161e82620019ce565b62001675576040517f08c379a000000000000000000000000000000000000000000000000000000000815260040180806020018281038252602f81526020018062005020602f913960400191505060405180910390fd5b6060600860008481526020019081526020016000208054600181600116156101000203166002900480601f016020809104026020016040519081016040528092919081815260200182805460018160011615610100020316600290048015620017225780601f10620016f65761010080835404028352916020019162001722565b820191906000526020600020905b8154815290600101906020018083116200170457829003601f168201915b505050505090506000600980546001816001161561010002031660029004905014156200175357809150506200190f565b60008151111562001834576009816040516020018083805460018160011615610100020316600290048015620017c35780601f10620017a0576101008083540402835291820191620017c3565b820191906000526020600020905b815481529060010190602001808311620017ae575b505082805190602001908083835b60208310620017f65780518252602082019150602081019050602083039250620017d1565b6001836020036101000a038019825116818451168082178552505050505050905001925050506040516020818303038152906040529150506200190f565b6009620018418462002112565b6040516020018083805460018160011615610100020316600290048015620018a35780601f1062001880576101008083540402835291820191620018a3565b820191906000526020600020905b8154815290600101906020018083116200188e575b505082805190602001908083835b60208310620018d65780518252602082019150602081019050602083039250620018b1565b6001836020036101000a038019825116818451168082178552505050505050905001925050506040516020818303038152906040529150505b919050565b600a60009054906101000a900473ffffffffffffffffffffffffffffffffffffffff1681565b6000600560008473ffffffffffffffffffffffffffffffffffffffff1673ffffffffffffffffffffffffffffffffffffffff16815260200190815260200160002060008373ffffffffffffffffffffffffffffffffffffffff1673ffffffffffffffffffffffffffffffffffffffff16815260200190815260200160002060009054906101000a900460ff16905092915050565b6000620019e68260026200226590919063ffffffff16565b9050919050565b600033905090565b816004600083815260200190815260200160002060006101000a81548173ffffffffffffffffffffffffffffffffffffffff021916908373ffffffffffffffffffffffffffffffffffffffff160217905550808273ffffffffffffffffffffffffffffffffffffffff1662001a6a8362000f5d565b73ffffffffffffffffffffffffffffffffffffffff167f8c5be1e5ebec7d5bd14f71427d1e84f3dd0314c0f7b2291e5b200ac8c7c3b92560405160405180910390a45050565b600062001ac08260000162002281565b9050919050565b600062001ad482620019ce565b62001b2b576040517f08c379a000000000000000000000000000000000000000000000000000000000815260040180806020018281038252602c81526020018062004ef2602c913960400191505060405180910390fd5b600062001b388362000f5d565b90508073ffffffffffffffffffffffffffffffffffffffff168473ffffffffffffffffffffffffffffffffffffffff16148062001baa57508373ffffffffffffffffffffffffffffffffffffffff1662001b928462000c03565b73ffffffffffffffffffffffffffffffffffffffff16145b8062001bbe575062001bbd81856200193a565b5b91505092915050565b8273ffffffffffffffffffffffffffffffffffffffff1662001be98262000f5d565b73ffffffffffffffffffffffffffffffffffffffff161462001c57576040517f08c379a000000000000000000000000000000000000000000000000000000000815260040180806020018281038252602981526020018062004ff76029913960400191505060405180910390fd5b600073ffffffffffffffffffffffffffffffffffffffff168273ffffffffffffffffffffffffffffffffffffffff16141562001cdf576040517f08c379a000000000000000000000000000000000000000000000000000000000815260040180806020018281038252602481526020018062004ece6024913960400191505060405180910390fd5b62001cec83838362002292565b62001cf9600082620019f5565b62001d4c81600160008673ffffffffffffffffffffffffffffffffffffffff1673ffffffffffffffffffffffffffffffffffffffff1681526020019081526020016000206200229790919063ffffffff16565b5062001da081600160008573ffffffffffffffffffffffffffffffffffffffff1673ffffffffffffffffffffffffffffffffffffffff168152602001908152602001600020620022b390919063ffffffff16565b5062001db981836002620022cf9092919063ffffffff16565b50808273ffffffffffffffffffffffffffffffffffffffff168473ffffffffffffffffffffffffffffffffffffffff167fddf252ad1be2c89b69c2b068fc378daa952ba7f163c4a11628f55a4df523b3ef60405160405180910390a4505050565b600062001e2b836000018362002306565b60001c905092915050565b60008060008062001e4b86600001866200238c565b915091508160001c8160001c9350935050509250929050565b600062001e79846000018460001b8462002428565b60001c90509392505050565b600062001e958260000162002523565b9050919050565b600073ffffffffffffffffffffffffffffffffffffffff168273ffffffffffffffffffffffffffffffffffffffff16141562001f40576040517f08c379a00000000000000000000000000000000000000000000000000000000081526004018080602001828103825260208152602001807f4552433732313a206d696e7420746f20746865207a65726f206164647265737381525060200191505060405180910390fd5b62001f4b81620019ce565b1562001fbf576040517f08c379a000000000000000000000000000000000000000000000000000000000815260040180806020018281038252601c8152602001807f4552433732313a20746f6b656e20616c7265616479206d696e7465640000000081525060200191505060405180910390fd5b62001fcd6000838362002292565b6200202081600160008573ffffffffffffffffffffffffffffffffffffffff1673ffffffffffffffffffffffffffffffffffffffff168152602001908152602001600020620022b390919063ffffffff16565b506200203981836002620022cf9092919063ffffffff16565b50808273ffffffffffffffffffffffffffffffffffffffff16600073ffffffffffffffffffffffffffffffffffffffff167fddf252ad1be2c89b69c2b068fc378daa952ba7f163c4a11628f55a4df523b3ef60405160405180910390a45050565b620020a784848462001bc7565b620020b58484848462002534565b6200210c576040517f08c379a000000000000000000000000000000000000000000000000000000000815260040180806020018281038252603281526020018062004e9c6032913960400191505060405180910390fd5b50505050565b606060008214156200215c576040518060400160405280600181526020017f3000000000000000000000000000000000000000000000000000000000000000815250905062002260565b600082905060005b6000821462002189578080600101915050600a82816200218057fe5b04915062002164565b60608167ffffffffffffffff81118015620021a357600080fd5b506040519080825280601f01601f191660200182016040528015620021d75781602001600182028036833780820191505090505b50905060006001830390508593505b600084146200225857600a8481620021fa57fe5b0660300160f81b828280600190039350815181106200221557fe5b60200101907effffffffffffffffffffffffffffffffffffffffffffffffffffffffffffff1916908160001a905350600a84816200224f57fe5b049350620021e6565b819450505050505b919050565b600062002279836000018360001b6200275a565b905092915050565b600081600001805490509050919050565b505050565b6000620022ab836000018360001b6200277d565b905092915050565b6000620022c7836000018360001b6200286a565b905092915050565b6000620022fd846000018460001b8473ffffffffffffffffffffffffffffffffffffffff1660001b620028de565b90509392505050565b60008183600001805490501162002369576040517f08c379a000000000000000000000000000000000000000000000000000000000815260040180806020018281038252602281526020018062004e7a6022913960400191505060405180910390fd5b8260000182815481106200237957fe5b9060005260206000200154905092915050565b60008082846000018054905011620023f0576040517f08c379a000000000000000000000000000000000000000000000000000000000815260040180806020018281038252602281526020018062004fa96022913960400191505060405180910390fd5b60008460000184815481106200240257fe5b906000526020600020906002020190508060000154816001015492509250509250929050565b60008084600101600085815260200190815260200160002054905060008114158390620024f3576040517f08c379a00000000000000000000000000000000000000000000000000000000081526004018080602001828103825283818151815260200191508051906020019080838360005b83811015620024b75780820151818401526020810190506200249a565b50505050905090810190601f168015620024e55780820380516001836020036101000a031916815260200191505b509250505060405180910390fd5b508460000160018203815481106200250757fe5b9060005260206000209060020201600101549150509392505050565b600081600001805490509050919050565b6000620025578473ffffffffffffffffffffffffffffffffffffffff16620029bd565b62002566576001905062002752565b6060620026d863150b7a0260e01b6200257e620019ed565b888787604051602401808573ffffffffffffffffffffffffffffffffffffffff1681526020018473ffffffffffffffffffffffffffffffffffffffff16815260200183815260200180602001828103825283818151815260200191508051906020019080838360005b8381101562002604578082015181840152602081019050620025e7565b50505050905090810190601f168015620026325780820380516001836020036101000a031916815260200191505b5095505050505050604051602081830303815290604052907bffffffffffffffffffffffffffffffffffffffffffffffffffffffff19166020820180517bffffffffffffffffffffffffffffffffffffffffffffffffffffffff838183161783525050505060405180606001604052806032815260200162004e9c603291398773ffffffffffffffffffffffffffffffffffffffff1662002a099092919063ffffffff16565b90506000818060200190516020811015620026f257600080fd5b8101908080519060200190929190505050905063150b7a0260e01b7bffffffffffffffffffffffffffffffffffffffffffffffffffffffff1916817bffffffffffffffffffffffffffffffffffffffffffffffffffffffff191614925050505b949350505050565b600080836001016000848152602001908152602001600020541415905092915050565b600080836001016000848152602001908152602001600020549050600081146200285e5760006001820390506000600186600001805490500390506000866000018281548110620027ca57fe5b9060005260206000200154905080876000018481548110620027e857fe5b90600052602060002001819055506001830187600101600083815260200190815260200160002081905550866000018054806200282157fe5b6001900381819060005260206000200160009055905586600101600087815260200190815260200160002060009055600194505050505062002864565b60009150505b92915050565b600062002878838362002a23565b620028d3578260000182908060018154018082558091505060019003906000526020600020016000909190919091505582600001805490508360010160008481526020019081526020016000208190555060019050620028d8565b600090505b92915050565b60008084600101600085815260200190815260200160002054905060008114156200298757846000016040518060400160405280868152602001858152509080600181540180825580915050600190039060005260206000209060020201600090919091909150600082015181600001556020820151816001015550508460000180549050856001016000868152602001908152602001600020819055506001915050620029b6565b828560000160018303815481106200299b57fe5b90600052602060002090600202016001018190555060009150505b9392505050565b60008060007fc5d2460186f7233c927e7db2dcc703c0e500b653ca82273b7bfad8045d85a47060001b9050833f915080821415801562002a0057506000801b8214155b92505050919050565b606062002a1a848460008562002a46565b90509392505050565b600080836001016000848152602001908152602001600020541415905092915050565b606062002a5385620029bd565b62002ac6576040517f08c379a000000000000000000000000000000000000000000000000000000000815260040180806020018281038252601d8152602001807f416464726573733a2063616c6c20746f206e6f6e2d636f6e747261637400000081525060200191505060405180910390fd5b600060608673ffffffffffffffffffffffffffffffffffffffff1685876040518082805190602001908083835b6020831062002b18578051825260208201915060208101905060208303925062002af3565b6001836020036101000a03801982511681845116808217855250505050505090500191505060006040518083038185875af1925050503d806000811462002b7c576040519150601f19603f3d011682016040523d82523d6000602084013e62002b81565b606091505b5091509150811562002b9857809250505062002c51565b60008151111562002bac5780518082602001fd5b836040517f08c379a00000000000000000000000000000000000000000000000000000000081526004018080602001828103825283818151815260200191508051906020019080838360005b8381101562002c1557808201518184015260208101905062002bf8565b50505050905090810190601f16801562002c435780820380516001836020036101000a031916815260200191505b509250505060405180910390fd5b949350505050565b6122128062002c688339019056fe6080604052600e60009054906101000a900473ffffffffffffffffffffffffffffffffffffffff16600f60006101000a81548173ffffffffffffffffffffffffffffffffffffffff021916908373ffffffffffffffffffffffffffffffffffffffff1602179055503480156200007457600080fd5b506040516200221238038062002212833981810160405260c08110156200009a57600080fd5b8101908080516040519392919084640100000000821115620000bb57600080fd5b83820191506020820185811115620000d257600080fd5b8251866001820283011164010000000082111715620000f057600080fd5b8083526020830192505050908051906020019080838360005b838110156200012657808201518184015260208101905062000109565b50505050905090810190601f168015620001545780820380516001836020036101000a031916815260200191505b50604052602001805160405193929190846401000000008211156200017857600080fd5b838201915060208201858111156200018f57600080fd5b8251866001820283011164010000000082111715620001ad57600080fd5b8083526020830192505050908051906020019080838360005b83811015620001e3578082015181840152602081019050620001c6565b50505050905090810190601f168015620002115780820380516001836020036101000a031916815260200191505b5060405260200180519060200190929190805190602001909291908051906020019092919080519060200190929190505050858581600390805190602001906200025d929190620002fd565b50806004908051906020019062000276929190620002fd565b506012600560006101000a81548160ff021916908360ff160217905550505083600c81905550826006600001819055508160066001018190555080600d60006101000a81548173ffffffffffffffffffffffffffffffffffffffff021916908373ffffffffffffffffffffffffffffffffffffffff160217905550505050505050620003a3565b828054600181600116156101000203166002900490600052602060002090601f016020900481019282601f106200034057805160ff191683800117855562000371565b8280016001018555821562000371579182015b828111156200037057825182559160200191906001019062000353565b5b50905062000380919062000384565b5090565b5b808211156200039f57600081600090555060010162000385565b5090565b611e5f80620003b36000396000f3fe608060405234801561001057600080fd5b506004361061012c5760003560e01c806386757e46116100ad578063a9059cbb11610071578063a9059cbb146105a1578063a9ed6e9a14610605578063c6bc518214610633578063dd62ed3e14610651578063f4b9fa75146106c95761012c565b806386757e4614610403578063893d20e8146104455780638c4050711461047957806395d89b41146104ba578063a457c2d71461053d5761012c565b806339509351116100f457806339509351146102db57806339913e091461033f5780634a9482b11461034957806366617f4b1461037757806370a08231146103ab5761012c565b806306fdde0314610131578063095ea7b3146101b457806318160ddd1461021857806323b872dd14610236578063313ce567146102ba575b600080fd5b6101396106fd565b6040518080602001828103825283818151815260200191508051906020019080838360005b8381101561017957808201518184015260208101905061015e565b50505050905090810190601f1680156101a65780820380516001836020036101000a031916815260200191505b509250505060405180910390f35b610200600480360360408110156101ca57600080fd5b81019080803573ffffffffffffffffffffffffffffffffffffffff1690602001909291908035906020019092919050505061079f565b60405180821515815260200191505060405180910390f35b6102206107bd565b6040518082815260200191505060405180910390f35b6102a26004803603606081101561024c57600080fd5b81019080803573ffffffffffffffffffffffffffffffffffffffff169060200190929190803573ffffffffffffffffffffffffffffffffffffffff169060200190929190803590602001909291905050506107c7565b60405180821515815260200191505060405180910390f35b6102c26108a0565b604051808260ff16815260200191505060405180910390f35b610327600480360360408110156102f157600080fd5b81019080803573ffffffffffffffffffffffffffffffffffffffff169060200190929190803590602001909291905050506108b7565b60405180821515815260200191505060405180910390f35b61034761096a565b005b6103756004803603602081101561035f57600080fd5b8101908080359060200190929190505050610c06565b005b61037f610dc1565b604051808273ffffffffffffffffffffffffffffffffffffffff16815260200191505060405180910390f35b6103ed600480360360208110156103c157600080fd5b81019080803573ffffffffffffffffffffffffffffffffffffffff169060200190929190505050610de7565b6040518082815260200191505060405180910390f35b6104436004803603606081101561041957600080fd5b81019080803590602001909291908035906020019092919080359060200190929190505050610e2f565b005b61044d61100f565b604051808273ffffffffffffffffffffffffffffffffffffffff16815260200191505060405180910390f35b6104816110c6565b60405180878152602001868152602001858152602001848152602001838152602001828152602001965050505050505060405180910390f35b6104c26110f0565b6040518080602001828103825283818151815260200191508051906020019080838360005b838110156105025780820151818401526020810190506104e7565b50505050905090810190601f16801561052f5780820380516001836020036101000a031916815260200191505b509250505060405180910390f35b6105896004803603604081101561055357600080fd5b81019080803573ffffffffffffffffffffffffffffffffffffffff16906020019092919080359060200190929190505050611192565b60405180821515815260200191505060405180910390f35b6105ed600480360360408110156105b757600080fd5b81019080803573ffffffffffffffffffffffffffffffffffffffff1690602001909291908035906020019092919050505061125f565b60405180821515815260200191505060405180910390f35b6106316004803603602081101561061b57600080fd5b810190808035906020019092919050505061127d565b005b61063b6114a1565b6040518082815260200191505060405180910390f35b6106b36004803603604081101561066757600080fd5b81019080803573ffffffffffffffffffffffffffffffffffffffff169060200190929190803573ffffffffffffffffffffffffffffffffffffffff1690602001909291905050506114a7565b6040518082815260200191505060405180910390f35b6106d161152e565b604051808273ffffffffffffffffffffffffffffffffffffffff16815260200191505060405180910390f35b606060038054600181600116156101000203166002900480601f0160208091040260200160405190810160405280929190818152602001828054600181600116156101000203166002900480156107955780601f1061076a57610100808354040283529160200191610795565b820191906000526020600020905b81548152906001019060200180831161077857829003601f168201915b5050505050905090565b60006107b36107ac611554565b848461155c565b6001905092915050565b6000600254905090565b60006107d4848484611753565b610895846107e0611554565b61089085604051806060016040528060288152602001611d9460289139600160008b73ffffffffffffffffffffffffffffffffffffffff1673ffffffffffffffffffffffffffffffffffffffff1681526020019081526020016000206000610846611554565b73ffffffffffffffffffffffffffffffffffffffff1673ffffffffffffffffffffffffffffffffffffffff16815260200190815260200160002054611a149092919063ffffffff16565b61155c565b600190509392505050565b6000600560009054906101000a900460ff16905090565b60006109606108c4611554565b8461095b85600160006108d5611554565b73ffffffffffffffffffffffffffffffffffffffff1673ffffffffffffffffffffffffffffffffffffffff16815260200190815260200160002060008973ffffffffffffffffffffffffffffffffffffffff1673ffffffffffffffffffffffffffffffffffffffff16815260200190815260200160002054611ad490919063ffffffff16565b61155c565b6001905092915050565b600d60009054906101000a900473ffffffffffffffffffffffffffffffffffffffff1673ffffffffffffffffffffffffffffffffffffffff16636352211e600c546040518263ffffffff1660e01b81526004018082815260200191505060206040518083038186803b1580156109df57600080fd5b505afa1580156109f3573d6000803e3d6000fd5b505050506040513d6020811015610a0957600080fd5b810190808051906020019092919050505073ffffffffffffffffffffffffffffffffffffffff163373ffffffffffffffffffffffffffffffffffffffff1614610a5157600080fd5b6006600501544211610a6257600080fd5b6000600f60009054906101000a900473ffffffffffffffffffffffffffffffffffffffff1673ffffffffffffffffffffffffffffffffffffffff166370a08231306040518263ffffffff1660e01b8152600401808273ffffffffffffffffffffffffffffffffffffffff16815260200191505060206040518083038186803b158015610aed57600080fd5b505afa158015610b01573d6000803e3d6000fd5b505050506040513d6020811015610b1757600080fd5b810190808051906020019092919050505090506000811115610c0357600f60009054906101000a900473ffffffffffffffffffffffffffffffffffffffff1673ffffffffffffffffffffffffffffffffffffffff1663a9059cbb33836040518363ffffffff1660e01b8152600401808373ffffffffffffffffffffffffffffffffffffffff16815260200182815260200192505050602060405180830381600087803b158015610bc657600080fd5b505af1158015610bda573d6000803e3d6000fd5b505050506040513d6020811015610bf057600080fd5b8101908080519060200190929190505050505b50565b600d60009054906101000a900473ffffffffffffffffffffffffffffffffffffffff1673ffffffffffffffffffffffffffffffffffffffff16636352211e600c546040518263ffffffff1660e01b81526004018082815260200191505060206040518083038186803b158015610c7b57600080fd5b505afa158015610c8f573d6000803e3d6000fd5b505050506040513d6020811015610ca557600080fd5b810190808051906020019092919050505073ffffffffffffffffffffffffffffffffffffffff163373ffffffffffffffffffffffffffffffffffffffff1614610ced57600080fd5b6006600501544211610cfe57600080fd5b80600f60009054906101000a900473ffffffffffffffffffffffffffffffffffffffff1673ffffffffffffffffffffffffffffffffffffffff166318160ddd6040518163ffffffff1660e01b815260040160206040518083038186803b158015610d6757600080fd5b505afa158015610d7b573d6000803e3d6000fd5b505050506040513d6020811015610d9157600080fd5b8101908080519060200190929190505050600660000154031015610db457600080fd5b610dbe3382611b5c565b50565b600d60009054906101000a900473ffffffffffffffffffffffffffffffffffffffff1681565b60008060008373ffffffffffffffffffffffffffffffffffffffff1673ffffffffffffffffffffffffffffffffffffffff168152602001908152602001600020549050919050565b600d60009054906101000a900473ffffffffffffffffffffffffffffffffffffffff1673ffffffffffffffffffffffffffffffffffffffff16636352211e600c546040518263ffffffff1660e01b81526004018082815260200191505060206040518083038186803b158015610ea457600080fd5b505afa158015610eb8573d6000803e3d6000fd5b505050506040513d6020811015610ece57600080fd5b810190808051906020019092919050505073ffffffffffffffffffffffffffffffffffffffff163373ffffffffffffffffffffffffffffffffffffffff1614610f1657600080fd5b6006600501544211610f2757600080fd5b600f60009054906101000a900473ffffffffffffffffffffffffffffffffffffffff1673ffffffffffffffffffffffffffffffffffffffff166318160ddd6040518163ffffffff1660e01b815260040160206040518083038186803b158015610f8f57600080fd5b505afa158015610fa3573d6000803e3d6000fd5b505050506040513d6020811015610fb957600080fd5b810190808051906020019092919050505060066000015403811115610fdd57600080fd5b824201600660040181905550814201600660050181905550806006600201819055506000600660030181905550505050565b6000600d60009054906101000a900473ffffffffffffffffffffffffffffffffffffffff1673ffffffffffffffffffffffffffffffffffffffff16636352211e600c546040518263ffffffff1660e01b81526004018082815260200191505060206040518083038186803b15801561108657600080fd5b505afa15801561109a573d6000803e3d6000fd5b505050506040513d60208110156110b057600080fd5b8101908080519060200190929190505050905090565b60068060000154908060010154908060020154908060030154908060040154908060050154905086565b606060048054600181600116156101000203166002900480601f0160208091040260200160405190810160405280929190818152602001828054600181600116156101000203166002900480156111885780601f1061115d57610100808354040283529160200191611188565b820191906000526020600020905b81548152906001019060200180831161116b57829003601f168201915b5050505050905090565b600061125561119f611554565b8461125085604051806060016040528060258152602001611e0560259139600160006111c9611554565b73ffffffffffffffffffffffffffffffffffffffff1673ffffffffffffffffffffffffffffffffffffffff16815260200190815260200160002060008a73ffffffffffffffffffffffffffffffffffffffff1673ffffffffffffffffffffffffffffffffffffffff16815260200190815260200160002054611a149092919063ffffffff16565b61155c565b6001905092915050565b600061127361126c611554565b8484611753565b6001905092915050565b42600660040154118015611295575042600660050154105b61129e57600080fd5b806006600301546006600201540310156112b757600080fd5b60006006600101548202905080600f60009054906101000a900473ffffffffffffffffffffffffffffffffffffffff1673ffffffffffffffffffffffffffffffffffffffff166370a08231336040518263ffffffff1660e01b8152600401808273ffffffffffffffffffffffffffffffffffffffff16815260200191505060206040518083038186803b15801561134d57600080fd5b505afa158015611361573d6000803e3d6000fd5b505050506040513d602081101561137757600080fd5b8101908080519060200190929190505050101561139357600080fd5b81600660030160008282540192505081905550600f60009054906101000a900473ffffffffffffffffffffffffffffffffffffffff1673ffffffffffffffffffffffffffffffffffffffff166323b872dd3330846040518463ffffffff1660e01b8152600401808473ffffffffffffffffffffffffffffffffffffffff1681526020018373ffffffffffffffffffffffffffffffffffffffff1681526020018281526020019350505050602060405180830381600087803b15801561145757600080fd5b505af115801561146b573d6000803e3d6000fd5b505050506040513d602081101561148157600080fd5b81019080805190602001909291905050505061149d3383611b5c565b5050565b600c5481565b6000600160008473ffffffffffffffffffffffffffffffffffffffff1673ffffffffffffffffffffffffffffffffffffffff16815260200190815260200160002060008373ffffffffffffffffffffffffffffffffffffffff1673ffffffffffffffffffffffffffffffffffffffff16815260200190815260200160002054905092915050565b600f60009054906101000a900473ffffffffffffffffffffffffffffffffffffffff1681565b600033905090565b600073ffffffffffffffffffffffffffffffffffffffff168373ffffffffffffffffffffffffffffffffffffffff1614156115e2576040517f08c379a0000000000000000000000000000000000000000000000000000000008152600401808060200182810382526024815260200180611de16024913960400191505060405180910390fd5b600073ffffffffffffffffffffffffffffffffffffffff168273ffffffffffffffffffffffffffffffffffffffff161415611668576040517f08c379a0000000000000000000000000000000000000000000000000000000008152600401808060200182810382526022815260200180611d4c6022913960400191505060405180910390fd5b80600160008573ffffffffffffffffffffffffffffffffffffffff1673ffffffffffffffffffffffffffffffffffffffff16815260200190815260200160002060008473ffffffffffffffffffffffffffffffffffffffff1673ffffffffffffffffffffffffffffffffffffffff168152602001908152602001600020819055508173ffffffffffffffffffffffffffffffffffffffff168373ffffffffffffffffffffffffffffffffffffffff167f8c5be1e5ebec7d5bd14f71427d1e84f3dd0314c0f7b2291e5b200ac8c7c3b925836040518082815260200191505060405180910390a3505050565b600073ffffffffffffffffffffffffffffffffffffffff168373ffffffffffffffffffffffffffffffffffffffff1614156117d9576040517f08c379a0000000000000000000000000000000000000000000000000000000008152600401808060200182810382526025815260200180611dbc6025913960400191505060405180910390fd5b600073ffffffffffffffffffffffffffffffffffffffff168273ffffffffffffffffffffffffffffffffffffffff16141561185f576040517f08c379a0000000000000000000000000000000000000000000000000000000008152600401808060200182810382526023815260200180611d296023913960400191505060405180910390fd5b61186a838383611d23565b6118d581604051806060016040528060268152602001611d6e602691396000808773ffffffffffffffffffffffffffffffffffffffff1673ffffffffffffffffffffffffffffffffffffffff16815260200190815260200160002054611a149092919063ffffffff16565b6000808573ffffffffffffffffffffffffffffffffffffffff1673ffffffffffffffffffffffffffffffffffffffff16815260200190815260200160002081905550611968816000808573ffffffffffffffffffffffffffffffffffffffff1673ffffffffffffffffffffffffffffffffffffffff16815260200190815260200160002054611ad490919063ffffffff16565b6000808473ffffffffffffffffffffffffffffffffffffffff1673ffffffffffffffffffffffffffffffffffffffff168152602001908152602001600020819055508173ffffffffffffffffffffffffffffffffffffffff168373ffffffffffffffffffffffffffffffffffffffff167fddf252ad1be2c89b69c2b068fc378daa952ba7f163c4a11628f55a4df523b3ef836040518082815260200191505060405180910390a3505050565b6000838311158290611ac1576040517f08c379a00000000000000000000000000000000000000000000000000000000081526004018080602001828103825283818151815260200191508051906020019080838360005b83811015611a86578082015181840152602081019050611a6b565b50505050905090810190601f168015611ab35780820380516001836020036101000a031916815260200191505b509250505060405180910390fd5b5060008385039050809150509392505050565b600080828401905083811015611b52576040517f08c379a000000000000000000000000000000000000000000000000000000000815260040180806020018281038252601b8152602001807f536166654d6174683a206164646974696f6e206f766572666c6f77000000000081525060200191505060405180910390fd5b8091505092915050565b600073ffffffffffffffffffffffffffffffffffffffff168273ffffffffffffffffffffffffffffffffffffffff161415611bff576040517f08c379a000000000000000000000000000000000000000000000000000000000815260040180806020018281038252601f8152602001807f45524332303a206d696e7420746f20746865207a65726f20616464726573730081525060200191505060405180910390fd5b611c0b60008383611d23565b611c2081600254611ad490919063ffffffff16565b600281905550611c77816000808573ffffffffffffffffffffffffffffffffffffffff1673ffffffffffffffffffffffffffffffffffffffff16815260200190815260200160002054611ad490919063ffffffff16565b6000808473ffffffffffffffffffffffffffffffffffffffff1673ffffffffffffffffffffffffffffffffffffffff168152602001908152602001600020819055508173ffffffffffffffffffffffffffffffffffffffff16600073ffffffffffffffffffffffffffffffffffffffff167fddf252ad1be2c89b69c2b068fc378daa952ba7f163c4a11628f55a4df523b3ef836040518082815260200191505060405180910390a35050565b50505056fe45524332303a207472616e7366657220746f20746865207a65726f206164647265737345524332303a20617070726f766520746f20746865207a65726f206164647265737345524332303a207472616e7366657220616d6f756e7420657863656564732062616c616e636545524332303a207472616e7366657220616d6f756e74206578636565647320616c6c6f77616e636545524332303a207472616e736665722066726f6d20746865207a65726f206164647265737345524332303a20617070726f76652066726f6d20746865207a65726f206164647265737345524332303a2064656372656173656420616c6c6f77616e63652062656c6f77207a65726fa2646970667358221220468cdb7592bcf55c0564e468eb924c06e38591df9914845f0920cf4b70ba25bc64736f6c63430007010033456e756d657261626c655365743a20696e646578206f7574206f6620626f756e64734552433732313a207472616e7366657220746f206e6f6e20455243373231526563656976657220696d706c656d656e7465724552433732313a207472616e7366657220746f20746865207a65726f20616464726573734552433732313a206f70657261746f7220717565727920666f72206e6f6e6578697374656e7420746f6b656e4552433732313a20617070726f76652063616c6c6572206973206e6f74206f776e6572206e6f7220617070726f76656420666f7220616c6c4552433732313a2062616c616e636520717565727920666f7220746865207a65726f20616464726573734552433732313a206f776e657220717565727920666f72206e6f6e6578697374656e7420746f6b656e456e756d657261626c654d61703a20696e646578206f7574206f6620626f756e64734552433732313a20617070726f76656420717565727920666f72206e6f6e6578697374656e7420746f6b656e4552433732313a207472616e73666572206f6620746f6b656e2074686174206973206e6f74206f776e4552433732314d657461646174613a2055524920717565727920666f72206e6f6e6578697374656e7420746f6b656e4552433732313a20617070726f76616c20746f2063757272656e74206f776e65724552433732313a207472616e736665722063616c6c6572206973206e6f74206f776e6572206e6f7220617070726f766564a26469706673582212208c810694b569c31b6f42644a77faf7722503688f2fc7f68b10c7fbdc40e7794d64736f6c63430007010033",
  "immutableReferences": {},
  "source": "// SPDX-License-Identifier: MIT\npragma solidity >=0.7.0 <0.8.0;\n\nimport '.././node_modules/@openzeppelin/contracts/token/ERC721/ERC721.sol';\nimport './InvestmentContract.sol';\n\ncontract Asset is ERC721{\n    address public assetManger;        // push in token id arr\n\n    uint[] tokenIdsArr;\n    mapping(uint => address) public investmentContractAddressMapping;\n\n    constructor (string memory _name, string memory _symbol) ERC721(_name, _symbol) {\n        assetManger = msg.sender;\n    }\n\n    // for minting u have to give some king of proof tha u onw the asset and that the shareSupply and price is correct\n    // you also have to see how u will chante the share supply and share price\n    // we can create logic to dynamiacally create rft name and symbol\n    function mint(\n        address _to, \n        uint _tokenId, \n        string calldata _rftName, \n        string calldata _rftSymbol, \n        uint _shareSupply, \n        uint _sharePrice\n    ) \n        external \n        onlyAssetManager \n    {   \n        // mint\n        _mint(_to, _tokenId);\n\n        // create investment contract\n        InvestmentContract _investmentContract = new InvestmentContract(\n            _rftName,\n            _rftSymbol,\n            _tokenId,\n            _shareSupply,\n            _sharePrice,\n            address(this)\n        );\n        investmentContractAddressMapping[_tokenId] = address(_investmentContract);\n\n        // push in token id arr\n        tokenIdsArr.push(_tokenId);\n\n    }\n\n    function listTokenIds() external view returns(uint[] memory) {\n        return tokenIdsArr;\n    }\n\n    modifier onlyAssetManager() {\n        require(msg.sender == assetManger);\n        _;\n    }\n\n}\n\n",
  "sourcePath": "/home/dante/Iris/Study/Git/ethereum/Smart Contracts/refungible_token/contracts/AssetErc721.sol",
  "compiler": {
    "name": "solc",
    "version": "0.7.1+commit.f4a555be.Emscripten.clang"
  },
  "schemaVersion": "3.2.3",
  "updatedAt": "2020-11-22T15:30:16.012Z",
  "devdoc": {
    "kind": "dev",
    "methods": {
      "approve(address,uint256)": {
        "details": "See {IERC721-approve}."
      },
      "balanceOf(address)": {
        "details": "See {IERC721-balanceOf}."
      },
      "baseURI()": {
        "details": "Returns the base URI set via {_setBaseURI}. This will be automatically added as a prefix in {tokenURI} to each token's URI, or to the token ID if no specific URI is set for that token ID."
      },
      "getApproved(uint256)": {
        "details": "See {IERC721-getApproved}."
      },
      "isApprovedForAll(address,address)": {
        "details": "See {IERC721-isApprovedForAll}."
      },
      "name()": {
        "details": "See {IERC721Metadata-name}."
      },
      "ownerOf(uint256)": {
        "details": "See {IERC721-ownerOf}."
      },
      "safeTransferFrom(address,address,uint256)": {
        "details": "See {IERC721-safeTransferFrom}."
      },
      "safeTransferFrom(address,address,uint256,bytes)": {
        "details": "See {IERC721-safeTransferFrom}."
      },
      "setApprovalForAll(address,bool)": {
        "details": "See {IERC721-setApprovalForAll}."
      },
      "supportsInterface(bytes4)": {
        "details": "See {IERC165-supportsInterface}. Time complexity O(1), guaranteed to always use less than 30 000 gas."
      },
      "symbol()": {
        "details": "See {IERC721Metadata-symbol}."
      },
      "tokenByIndex(uint256)": {
        "details": "See {IERC721Enumerable-tokenByIndex}."
      },
      "tokenOfOwnerByIndex(address,uint256)": {
        "details": "See {IERC721Enumerable-tokenOfOwnerByIndex}."
      },
      "tokenURI(uint256)": {
        "details": "See {IERC721Metadata-tokenURI}."
      },
      "totalSupply()": {
        "details": "See {IERC721Enumerable-totalSupply}."
      },
      "transferFrom(address,address,uint256)": {
        "details": "See {IERC721-transferFrom}."
      }
    },
    "version": 1
  },
  "userdoc": {
    "kind": "user",
    "methods": {},
    "version": 1
  }
}