{
  "contractName": "ToDoList",
  "abi": [
    {
      "anonymous": false,
      "inputs": [
        {
          "indexed": true,
          "internalType": "uint256",
          "name": "id",
          "type": "uint256"
        },
        {
          "indexed": false,
          "internalType": "uint256",
          "name": "date",
          "type": "uint256"
        },
        {
          "indexed": false,
          "internalType": "string",
          "name": "content",
          "type": "string"
        },
        {
          "indexed": false,
          "internalType": "string",
          "name": "author",
          "type": "string"
        },
        {
          "indexed": true,
          "internalType": "string",
          "name": "authorFilter",
          "type": "string"
        }
      ],
      "name": "TaskInfo",
      "type": "event"
    },
    {
      "anonymous": false,
      "inputs": [
        {
          "indexed": false,
          "internalType": "uint256",
          "name": "id",
          "type": "uint256"
        },
        {
          "indexed": false,
          "internalType": "bool",
          "name": "done",
          "type": "bool"
        },
        {
          "indexed": false,
          "internalType": "uint256",
          "name": "date",
          "type": "uint256"
        }
      ],
      "name": "TaskStatusToggled",
      "type": "event"
    },
    {
      "inputs": [],
      "name": "deletedTasks",
      "outputs": [
        {
          "internalType": "uint256",
          "name": "",
          "type": "uint256"
        }
      ],
      "stateMutability": "view",
      "type": "function",
      "constant": true
    },
    {
      "inputs": [
        {
          "internalType": "uint256",
          "name": "",
          "type": "uint256"
        }
      ],
      "name": "taskDetails",
      "outputs": [
        {
          "internalType": "bool",
          "name": "taskExist",
          "type": "bool"
        },
        {
          "internalType": "bool",
          "name": "done",
          "type": "bool"
        },
        {
          "internalType": "uint256",
          "name": "completedDate",
          "type": "uint256"
        }
      ],
      "stateMutability": "view",
      "type": "function",
      "constant": true
    },
    {
      "inputs": [],
      "name": "totalTasks",
      "outputs": [
        {
          "internalType": "uint256",
          "name": "",
          "type": "uint256"
        }
      ],
      "stateMutability": "view",
      "type": "function",
      "constant": true
    },
    {
      "inputs": [
        {
          "internalType": "string",
          "name": "_content",
          "type": "string"
        },
        {
          "internalType": "string",
          "name": "_author",
          "type": "string"
        }
      ],
      "name": "createTask",
      "outputs": [],
      "stateMutability": "nonpayable",
      "type": "function"
    },
    {
      "inputs": [
        {
          "internalType": "uint256",
          "name": "_id",
          "type": "uint256"
        }
      ],
      "name": "deleteTask",
      "outputs": [],
      "stateMutability": "nonpayable",
      "type": "function"
    },
    {
      "inputs": [
        {
          "internalType": "uint256",
          "name": "_id",
          "type": "uint256"
        }
      ],
      "name": "toggleCheckBox",
      "outputs": [],
      "stateMutability": "nonpayable",
      "type": "function"
    }
  ],
  "bytecode": "0x608060405234801561001057600080fd5b5061055c806100206000396000f3fe608060405234801561001057600080fd5b50600436106100625760003560e01c8063292a458514610067578063560f319214610135578063659870ad14610163578063d1fb1b5014610191578063d22c81e5146101e9578063f4b938ba14610207575b600080fd5b6101336004803603604081101561007d57600080fd5b810190808035906020019064010000000081111561009a57600080fd5b8201836020820111156100ac57600080fd5b803590602001918460018302840111640100000000831117156100ce57600080fd5b9091929391929390803590602001906401000000008111156100ef57600080fd5b82018360208201111561010157600080fd5b8035906020019184600183028401116401000000008311171561012357600080fd5b9091929391929390505050610225565b005b6101616004803603602081101561014b57600080fd5b810190808035906020019092919050505061036e565b005b61018f6004803603602081101561017957600080fd5b81019080803590602001909291905050506103b2565b005b6101bd600480360360208110156101a757600080fd5b81019080803590602001909291905050506104d6565b604051808415151515815260200183151515158152602001828152602001935050505060405180910390f35b6101f161051a565b6040518082815260200191505060405180910390f35b61020f610520565b6040518082815260200191505060405180910390f35b818160405180838380828437808301925050509250505060405180910390206000547f7a5edbf9b276ba85fe227f67e7384a1e16302d099ca568c3e92dc855871ac4c942878787876040518086815260200180602001806020018381038352878782818152602001925080828437600081840152601f19601f8201169050808301925050508381038252858582818152602001925080828437600081840152601f19601f82011690508083019250505097505050505050505060405180910390a360018060008054815260200190815260200160002060000160006101000a81548160ff0219169083151502179055506000600160008054815260200190815260200160002060000160016101000a81548160ff021916908315150217905550600080815480929190600101919050555060026000815480929190600101919050555050505050565b60006001600083815260200190815260200160002060000160006101000a81548160ff02191690831515021790555060036000815480929190600101919050555050565b6001600082815260200190815260200160002060000160019054906101000a900460ff16156001600083815260200190815260200160002060000160016101000a81548160ff0219169083151502179055506001600082815260200190815260200160002060000160019054906101000a900460ff16610433576000610435565b425b60016000838152602001908152602001600020600101819055507fcb1ceae718a6ae11d5daf00e292e318717e0acf2d326ed670df0e5ff67ba5000816001600084815260200190815260200160002060000160019054906101000a900460ff1660016000858152602001908152602001600020600101546040518084815260200183151515158152602001828152602001935050505060405180910390a150565b60016020528060005260406000206000915090508060000160009054906101000a900460ff16908060000160019054906101000a900460ff16908060010154905083565b60025481565b6003548156fea26469706673582212202f176b0736022c780caa2f2393a8f5f517a3d423ee1cf7b8c97fed382a1f371764736f6c63430006000033",
  "source": "pragma solidity ^0.6.0;\n\ncontract ToDoList {\n    struct task {\n        bool taskExist;\n        bool done;\n        uint256 completedDate;\n    }\n\n    uint256 lastTaskId;\n    mapping(uint256 => task) public taskDetails;\n    uint256 public totalTasks;\n    uint256 public deletedTasks;\n\n    event TaskInfo(\n        uint256 indexed id,\n        uint256 date,\n        string content,\n        string author,\n        string indexed authorFilter\n    );\n\n    event TaskStatusToggled(uint256 id, bool done, uint256 date);\n\n    // (id, date, content, author, done);\n    // remember if you are indexing string then it is stored in the form of hash or bytes bytes(_author);\n\n    function createTask(string calldata _content, string calldata _author)\n        external\n    {\n        emit TaskInfo(lastTaskId, now, _content, _author, _author);\n        taskDetails[lastTaskId].taskExist = true;\n        taskDetails[lastTaskId].done = false;\n        lastTaskId++;\n        totalTasks++;\n    }\n\n    function deleteTask(uint256 _id) external {\n        taskDetails[_id].taskExist = false;\n        deletedTasks++;\n    }\n\n    function toggleCheckBox(uint256 _id) external {\n        taskDetails[_id].done = !taskDetails[_id].done;\n        taskDetails[_id].completedDate = taskDetails[_id].done ? now : 0;\n        emit TaskStatusToggled(\n            _id,\n            taskDetails[_id].done,\n            taskDetails[_id].completedDate\n        );\n    }\n}\n",
  "sourcePath": "/home/dante/Iris/Study/Projects/toDoList/contracts/ToDoList.sol",
  "compiler": {
    "name": "solc",
    "version": "0.6.0+commit.26b70077.Emscripten.clang"
  },
  "schemaVersion": "3.2.0",
  "updatedAt": "2020-06-29T14:39:46.227Z",
  "networkType": "ethereum",
  "devdoc": {
    "methods": {}
  },
  "userdoc": {
    "methods": {}
  }
}