{
  "contractName": "ToDoList",
  "abi": [
    {
      "inputs": [
        {
          "internalType": "uint256",
          "name": "",
          "type": "uint256"
        }
      ],
      "name": "tasks",
      "outputs": [
        {
          "internalType": "uint256",
          "name": "id",
          "type": "uint256"
        },
        {
          "internalType": "uint256",
          "name": "date",
          "type": "uint256"
        },
        {
          "internalType": "string",
          "name": "content",
          "type": "string"
        },
        {
          "internalType": "string",
          "name": "author",
          "type": "string"
        },
        {
          "internalType": "bool",
          "name": "done",
          "type": "bool"
        }
      ],
      "stateMutability": "view",
      "type": "function",
      "constant": true
    },
    {
      "inputs": [
        {
          "internalType": "string",
          "name": "_content",
          "type": "string"
        },
        {
          "internalType": "string",
          "name": "_author",
          "type": "string"
        }
      ],
      "name": "createTask",
      "outputs": [],
      "stateMutability": "nonpayable",
      "type": "function"
    },
    {
      "inputs": [
        {
          "internalType": "uint256",
          "name": "_id",
          "type": "uint256"
        }
      ],
      "name": "getTask",
      "outputs": [
        {
          "components": [
            {
              "internalType": "uint256",
              "name": "id",
              "type": "uint256"
            },
            {
              "internalType": "uint256",
              "name": "date",
              "type": "uint256"
            },
            {
              "internalType": "string",
              "name": "content",
              "type": "string"
            },
            {
              "internalType": "string",
              "name": "author",
              "type": "string"
            },
            {
              "internalType": "bool",
              "name": "done",
              "type": "bool"
            }
          ],
          "internalType": "struct ToDoList.Task",
          "name": "",
          "type": "tuple"
        }
      ],
      "stateMutability": "view",
      "type": "function",
      "constant": true
    },
    {
      "inputs": [],
      "name": "getAllTask",
      "outputs": [
        {
          "components": [
            {
              "internalType": "uint256",
              "name": "id",
              "type": "uint256"
            },
            {
              "internalType": "uint256",
              "name": "date",
              "type": "uint256"
            },
            {
              "internalType": "string",
              "name": "content",
              "type": "string"
            },
            {
              "internalType": "string",
              "name": "author",
              "type": "string"
            },
            {
              "internalType": "bool",
              "name": "done",
              "type": "bool"
            }
          ],
          "internalType": "struct ToDoList.Task[]",
          "name": "",
          "type": "tuple[]"
        }
      ],
      "stateMutability": "view",
      "type": "function",
      "constant": true
    }
  ],
  "bytecode": "0x608060405234801561001057600080fd5b50610cf7806100206000396000f3fe608060405234801561001057600080fd5b506004361061004c5760003560e01c80631bbaf3cf146100515780631d65e77e1461006f578063292a45851461009f5780638d977672146100bb575b600080fd5b6100596100ef565b6040516100669190610b45565b60405180910390f35b610089600480360361008491908101906108eb565b6102c1565b6040516100969190610b67565b60405180910390f35b6100b960048036036100b49190810190610876565b610469565b005b6100d560048036036100d091908101906108eb565b6105c1565b6040516100e6959493929190610b89565b60405180910390f35b60606000805480602002602001604051908101604052809291908181526020016000905b828210156102b857838290600052602060002090600502016040518060a00160405290816000820154815260200160018201548152602001600282018054600181600116156101000203166002900480601f0160208091040260200160405190810160405280929190818152602001828054600181600116156101000203166002900480156101e35780601f106101b8576101008083540402835291602001916101e3565b820191906000526020600020905b8154815290600101906020018083116101c657829003601f168201915b50505050508152602001600382018054600181600116156101000203166002900480601f0160208091040260200160405190810160405280929190818152602001828054600181600116156101000203166002900480156102855780601f1061025a57610100808354040283529160200191610285565b820191906000526020600020905b81548152906001019060200180831161026857829003601f168201915b505050505081526020016004820160009054906101000a900460ff16151515158152505081526020019060010190610113565b50505050905090565b6102c9610741565b600082815481106102d657fe5b90600052602060002090600502016040518060a00160405290816000820154815260200160018201548152602001600282018054600181600116156101000203166002900480601f01602080910402602001604051908101604052809291908181526020018280546001816001161561010002031660029004801561039c5780601f106103715761010080835404028352916020019161039c565b820191906000526020600020905b81548152906001019060200180831161037f57829003601f168201915b50505050508152602001600382018054600181600116156101000203166002900480601f01602080910402602001604051908101604052809291908181526020018280546001816001161561010002031660029004801561043e5780601f106104135761010080835404028352916020019161043e565b820191906000526020600020905b81548152906001019060200180831161042157829003601f168201915b505050505081526020016004820160009054906101000a900460ff1615151515815250509050919050565b60006040518060a00160405280600080549050815260200142815260200186868080601f016020809104026020016040519081016040528093929190818152602001838380828437600081840152601f19601f82011690508083019250505050505050815260200184848080601f016020809104026020016040519081016040528093929190818152602001838380828437600081840152601f19601f8201169050808301925050505050505081526020016000151581525090806001815401808255809150506001900390600052602060002090600502016000909190919091506000820151816000015560208201518160010155604082015181600201908051906020019061057b929190610772565b506060820151816003019080519060200190610598929190610772565b5060808201518160040160006101000a81548160ff021916908315150217905550505050505050565b600081815481106105ce57fe5b9060005260206000209060050201600091509050806000015490806001015490806002018054600181600116156101000203166002900480601f0160208091040260200160405190810160405280929190818152602001828054600181600116156101000203166002900480156106865780601f1061065b57610100808354040283529160200191610686565b820191906000526020600020905b81548152906001019060200180831161066957829003601f168201915b505050505090806003018054600181600116156101000203166002900480601f0160208091040260200160405190810160405280929190818152602001828054600181600116156101000203166002900480156107245780601f106106f957610100808354040283529160200191610724565b820191906000526020600020905b81548152906001019060200180831161070757829003601f168201915b5050505050908060040160009054906101000a900460ff16905085565b6040518060a00160405280600081526020016000815260200160608152602001606081526020016000151581525090565b828054600181600116156101000203166002900490600052602060002090601f016020900481019282601f106107b357805160ff19168380011785556107e1565b828001600101855582156107e1579182015b828111156107e05782518255916020019190600101906107c5565b5b5090506107ee91906107f2565b5090565b61081491905b808211156108105760008160009055506001016107f8565b5090565b90565b60008083601f84011261082957600080fd5b8235905067ffffffffffffffff81111561084257600080fd5b60208301915083600182028301111561085a57600080fd5b9250929050565b60008135905061087081610caa565b92915050565b6000806000806040858703121561088c57600080fd5b600085013567ffffffffffffffff8111156108a657600080fd5b6108b287828801610817565b9450945050602085013567ffffffffffffffff8111156108d157600080fd5b6108dd87828801610817565b925092505092959194509250565b6000602082840312156108fd57600080fd5b600061090b84828501610861565b91505092915050565b60006109208383610aaa565b905092915050565b600061093382610bfa565b61093d8185610c1d565b93508360208202850161094f85610bea565b8060005b8581101561098b578484038952815161096c8582610914565b945061097783610c10565b925060208a01995050600181019050610953565b50829750879550505050505092915050565b6109a681610c50565b82525050565b6109b581610c50565b82525050565b60006109c682610c05565b6109d08185610c2e565b93506109e0818560208601610c66565b6109e981610c99565b840191505092915050565b60006109ff82610c05565b610a098185610c3f565b9350610a19818560208601610c66565b610a2281610c99565b840191505092915050565b600060a083016000830151610a456000860182610b27565b506020830151610a586020860182610b27565b5060408301518482036040860152610a7082826109bb565b91505060608301518482036060860152610a8a82826109bb565b9150506080830151610a9f608086018261099d565b508091505092915050565b600060a083016000830151610ac26000860182610b27565b506020830151610ad56020860182610b27565b5060408301518482036040860152610aed82826109bb565b91505060608301518482036060860152610b0782826109bb565b9150506080830151610b1c608086018261099d565b508091505092915050565b610b3081610c5c565b82525050565b610b3f81610c5c565b82525050565b60006020820190508181036000830152610b5f8184610928565b905092915050565b60006020820190508181036000830152610b818184610a2d565b905092915050565b600060a082019050610b9e6000830188610b36565b610bab6020830187610b36565b8181036040830152610bbd81866109f4565b90508181036060830152610bd181856109f4565b9050610be060808301846109ac565b9695505050505050565b6000819050602082019050919050565b600081519050919050565b600081519050919050565b6000602082019050919050565b600082825260208201905092915050565b600082825260208201905092915050565b600082825260208201905092915050565b60008115159050919050565b6000819050919050565b60005b83811015610c84578082015181840152602081019050610c69565b83811115610c93576000848401525b50505050565b6000601f19601f8301169050919050565b610cb381610c5c565b8114610cbe57600080fd5b5056fea264697066735822122000c2efa3395f14e41ea06d10e1235b7741d5c3daa393655d7e2ddaacfeee367064736f6c63430006000033",
  "source": "pragma solidity ^0.6.0;\npragma experimental ABIEncoderV2;\n\ncontract ToDoList {\n    struct Task {\n        uint256 id;\n        uint256 date;\n        string content;\n        string author;\n        bool done;\n    }\n\n    Task[] public tasks;\n\n    function createTask(string calldata _content, string calldata _author)\n        external\n    {\n        tasks.push(Task(tasks.length, now, _content, _author, false));\n    }\n\n    function getTask(uint256 _id) external view returns (Task memory) {\n        return tasks[_id];\n    }\n\n    function getAllTask() external view returns (Task[] memory) {\n        return tasks;\n    }\n}\n",
  "sourcePath": "/home/dante/Iris/Study/Projects/toDoList/contracts/ToDoList.sol",
  "compiler": {
    "name": "solc",
    "version": "0.6.0+commit.26b70077.Emscripten.clang"
  },
  "schemaVersion": "3.2.0",
  "updatedAt": "2020-06-22T00:59:11.313Z",
  "networkType": "ethereum",
  "devdoc": {
    "methods": {}
  },
  "userdoc": {
    "methods": {}
  }
}